{
  "contractName": "Factory",
  "abi": [
    {
      "anonymous": false,
      "inputs": [
        {
          "indexed": true,
          "internalType": "address",
          "name": "token0",
          "type": "address"
        },
        {
          "indexed": true,
          "internalType": "address",
          "name": "token1",
          "type": "address"
        },
        {
          "indexed": false,
          "internalType": "address",
          "name": "pair",
          "type": "address"
        }
      ],
      "name": "PairCreated",
      "type": "event"
    },
    {
      "inputs": [
        {
          "internalType": "address",
          "name": "",
          "type": "address"
        },
        {
          "internalType": "address",
          "name": "",
          "type": "address"
        }
      ],
      "name": "pairs",
      "outputs": [
        {
          "internalType": "address",
          "name": "",
          "type": "address"
        }
      ],
      "stateMutability": "view",
      "type": "function",
      "constant": true
    },
    {
      "inputs": [
        {
          "internalType": "address",
          "name": "token0",
          "type": "address"
        },
        {
          "internalType": "address",
          "name": "token1",
          "type": "address"
        }
      ],
      "name": "createPair",
      "outputs": [
        {
          "internalType": "address",
          "name": "pairAddress",
          "type": "address"
        }
      ],
      "stateMutability": "nonpayable",
      "type": "function"
    }
  ],
  "bytecode": "0x608060405234801561001057600080fd5b50613b91806100206000396000f3fe60806040523480156200001157600080fd5b50600436106200003a5760003560e01c806369454b86146200003f578063c9c653961462000075575b600080fd5b6200005d6004803603810190620000579190620006ec565b620000ab565b6040516200006c919062000744565b60405180910390f35b6200009360048036038101906200008d9190620006ec565b620000ed565b604051620000a2919062000744565b60405180910390f35b60006020528160005260406000206020528060005260406000206000915091509054906101000a900473ffffffffffffffffffffffffffffffffffffffff1681565b60008173ffffffffffffffffffffffffffffffffffffffff168373ffffffffffffffffffffffffffffffffffffffff160362000160576040517f08c379a00000000000000000000000000000000000000000000000000000000081526004016200015790620007e8565b60405180910390fd5b600073ffffffffffffffffffffffffffffffffffffffff168373ffffffffffffffffffffffffffffffffffffffff161480620001c85750600073ffffffffffffffffffffffffffffffffffffffff168273ffffffffffffffffffffffffffffffffffffffff16145b156200020b576040517f08c379a0000000000000000000000000000000000000000000000000000000008152600401620002029062000880565b60405180910390fd5b600073ffffffffffffffffffffffffffffffffffffffff166000808573ffffffffffffffffffffffffffffffffffffffff1673ffffffffffffffffffffffffffffffffffffffff16815260200190815260200160002060008473ffffffffffffffffffffffffffffffffffffffff1673ffffffffffffffffffffffffffffffffffffffff16815260200190815260200160002060009054906101000a900473ffffffffffffffffffffffffffffffffffffffff1673ffffffffffffffffffffffffffffffffffffffff16141580620003ab5750600073ffffffffffffffffffffffffffffffffffffffff166000808473ffffffffffffffffffffffffffffffffffffffff1673ffffffffffffffffffffffffffffffffffffffff16815260200190815260200160002060008573ffffffffffffffffffffffffffffffffffffffff1673ffffffffffffffffffffffffffffffffffffffff16815260200190815260200160002060009054906101000a900473ffffffffffffffffffffffffffffffffffffffff1673ffffffffffffffffffffffffffffffffffffffff1614155b15620003ee576040517f08c379a0000000000000000000000000000000000000000000000000000000008152600401620003e59062000918565b60405180910390fd5b6000604051620003fe9062000674565b604051809103906000f0801580156200041b573d6000803e3d6000fd5b5090508073ffffffffffffffffffffffffffffffffffffffff1663485cc95585856040518363ffffffff1660e01b81526004016200045b9291906200093a565b600060405180830381600087803b1580156200047657600080fd5b505af11580156200048b573d6000803e3d6000fd5b50505050809150816000808673ffffffffffffffffffffffffffffffffffffffff1673ffffffffffffffffffffffffffffffffffffffff16815260200190815260200160002060008573ffffffffffffffffffffffffffffffffffffffff1673ffffffffffffffffffffffffffffffffffffffff16815260200190815260200160002060006101000a81548173ffffffffffffffffffffffffffffffffffffffff021916908373ffffffffffffffffffffffffffffffffffffffff160217905550816000808573ffffffffffffffffffffffffffffffffffffffff1673ffffffffffffffffffffffffffffffffffffffff16815260200190815260200160002060008673ffffffffffffffffffffffffffffffffffffffff1673ffffffffffffffffffffffffffffffffffffffff16815260200190815260200160002060006101000a81548173ffffffffffffffffffffffffffffffffffffffff021916908373ffffffffffffffffffffffffffffffffffffffff1602179055508273ffffffffffffffffffffffffffffffffffffffff168473ffffffffffffffffffffffffffffffffffffffff167fa92a2b95c8d8436f6ac4c673c61487364f877efb9534d4296fad8ef904546c948460405162000665919062000744565b60405180910390a35092915050565b6131f4806200096883390190565b600080fd5b600073ffffffffffffffffffffffffffffffffffffffff82169050919050565b6000620006b48262000687565b9050919050565b620006c681620006a7565b8114620006d257600080fd5b50565b600081359050620006e681620006bb565b92915050565b6000806040838503121562000706576200070562000682565b5b60006200071685828601620006d5565b92505060206200072985828601620006d5565b9150509250929050565b6200073e81620006a7565b82525050565b60006020820190506200075b600083018462000733565b92915050565b600082825260208201905092915050565b7f546f6b656e732073686f756c64206861766520646966666572656e742061646460008201527f7265737365730000000000000000000000000000000000000000000000000000602082015250565b6000620007d060268362000761565b9150620007dd8262000772565b604082019050919050565b600060208201905081810360008301526200080381620007c1565b9050919050565b7f546f6b656e732073686f756c642068617665206e6f6e2d7a65726f206164647260008201527f6573736573000000000000000000000000000000000000000000000000000000602082015250565b60006200086860258362000761565b915062000875826200080a565b604082019050919050565b600060208201905081810360008301526200089b8162000859565b9050919050565b7f5061697220616c72656164792065786973747320666f7220746865736520746f60008201527f6b656e7300000000000000000000000000000000000000000000000000000000602082015250565b60006200090060248362000761565b91506200090d82620008a2565b604082019050919050565b600060208201905081810360008301526200093381620008f1565b9050919050565b600060408201905062000951600083018562000733565b62000960602083018462000733565b939250505056fe60806040523480156200001157600080fd5b506040518060400160405280601881526020017f4c69717569646974792050726f766964657220546f6b656e00000000000000008152506040518060400160405280600381526020017f4c5054000000000000000000000000000000000000000000000000000000000081525081600390816200008f919062000324565b508060049081620000a1919062000324565b5050506200040b565b600081519050919050565b7f4e487b7100000000000000000000000000000000000000000000000000000000600052604160045260246000fd5b7f4e487b7100000000000000000000000000000000000000000000000000000000600052602260045260246000fd5b600060028204905060018216806200012c57607f821691505b602082108103620001425762000141620000e4565b5b50919050565b60008190508160005260206000209050919050565b60006020601f8301049050919050565b600082821b905092915050565b600060088302620001ac7fffffffffffffffffffffffffffffffffffffffffffffffffffffffffffffffff826200016d565b620001b886836200016d565b95508019841693508086168417925050509392505050565b6000819050919050565b6000819050919050565b600062000205620001ff620001f984620001d0565b620001da565b620001d0565b9050919050565b6000819050919050565b6200022183620001e4565b6200023962000230826200020c565b8484546200017a565b825550505050565b600090565b6200025062000241565b6200025d81848462000216565b505050565b5b8181101562000285576200027960008262000246565b60018101905062000263565b5050565b601f821115620002d4576200029e8162000148565b620002a9846200015d565b81016020851015620002b9578190505b620002d1620002c8856200015d565b83018262000262565b50505b505050565b600082821c905092915050565b6000620002f960001984600802620002d9565b1980831691505092915050565b6000620003148383620002e6565b9150826002028217905092915050565b6200032f82620000aa565b67ffffffffffffffff8111156200034b576200034a620000b5565b5b62000357825462000113565b6200036482828562000289565b600060209050601f8311600181146200039c576000841562000387578287015190505b62000393858262000306565b86555062000403565b601f198416620003ac8662000148565b60005b82811015620003d657848901518255600182019150602085019450602081019050620003af565b86831015620003f65784890151620003f2601f891682620002e6565b8355505b6001600288020188555050505b505050505050565b612dd9806200041b6000396000f3fe608060405234801561001057600080fd5b50600436106101215760003560e01c80635a76f25e116100ad5780639dc29fac116100715780639dc29fac14610320578063a457c2d714610351578063a9059cbb14610381578063d21220a7146103b1578063dd62ed3e146103cf57610121565b80635a76f25e146102685780636a627842146102865780636d9a640a146102b657806370a08231146102d257806395d89b411461030257610121565b806323b872dd116100f457806323b872dd146101b0578063313ce567146101e057806339509351146101fe578063443cb4bc1461022e578063485cc9551461024c57610121565b806306fdde0314610126578063095ea7b3146101445780630dfe16811461017457806318160ddd14610192575b600080fd5b61012e6103ff565b60405161013b9190611ee9565b60405180910390f35b61015e60048036038101906101599190611fa4565b610491565b60405161016b9190611fff565b60405180910390f35b61017c6104b4565b6040516101899190612029565b60405180910390f35b61019a6104da565b6040516101a79190612053565b60405180910390f35b6101ca60048036038101906101c5919061206e565b6104e4565b6040516101d79190611fff565b60405180910390f35b6101e8610513565b6040516101f591906120dd565b60405180910390f35b61021860048036038101906102139190611fa4565b61051c565b6040516102259190611fff565b60405180910390f35b610236610553565b6040516102439190612053565b60405180910390f35b610266600480360381019061026191906120f8565b610559565b005b6102706106cc565b60405161027d9190612053565b60405180910390f35b6102a0600480360381019061029b9190612138565b6106d2565b6040516102ad9190612053565b60405180910390f35b6102d060048036038101906102cb9190612165565b610992565b005b6102ec60048036038101906102e79190612138565b610eac565b6040516102f99190612053565b60405180910390f35b61030a610ef4565b6040516103179190611ee9565b60405180910390f35b61033a60048036038101906103359190611fa4565b610f86565b6040516103489291906121b8565b60405180910390f35b61036b60048036038101906103669190611fa4565b611328565b6040516103789190611fff565b60405180910390f35b61039b60048036038101906103969190611fa4565b61139f565b6040516103a89190611fff565b60405180910390f35b6103b96113c2565b6040516103c69190612029565b60405180910390f35b6103e960048036038101906103e491906120f8565b6113e8565b6040516103f69190612053565b60405180910390f35b60606003805461040e90612210565b80601f016020809104026020016040519081016040528092919081815260200182805461043a90612210565b80156104875780601f1061045c57610100808354040283529160200191610487565b820191906000526020600020905b81548152906001019060200180831161046a57829003601f168201915b5050505050905090565b60008061049c61146f565b90506104a9818585611477565b600191505092915050565b600560009054906101000a900473ffffffffffffffffffffffffffffffffffffffff1681565b6000600254905090565b6000806104ef61146f565b90506104fc858285611640565b6105078585856116cc565b60019150509392505050565b60006012905090565b60008061052761146f565b905061054881858561053985896113e8565b6105439190612270565b611477565b600191505092915050565b60075481565b600073ffffffffffffffffffffffffffffffffffffffff16600560009054906101000a900473ffffffffffffffffffffffffffffffffffffffff1673ffffffffffffffffffffffffffffffffffffffff161415806106065750600073ffffffffffffffffffffffffffffffffffffffff16600660009054906101000a900473ffffffffffffffffffffffffffffffffffffffff1673ffffffffffffffffffffffffffffffffffffffff1614155b15610646576040517f08c379a000000000000000000000000000000000000000000000000000000000815260040161063d90612312565b60405180910390fd5b81600560006101000a81548173ffffffffffffffffffffffffffffffffffffffff021916908373ffffffffffffffffffffffffffffffffffffffff16021790555080600660006101000a81548173ffffffffffffffffffffffffffffffffffffffff021916908373ffffffffffffffffffffffffffffffffffffffff1602179055505050565b60085481565b600080600560009054906101000a900473ffffffffffffffffffffffffffffffffffffffff1673ffffffffffffffffffffffffffffffffffffffff166370a08231306040518263ffffffff1660e01b81526004016107309190612029565b602060405180830381865afa15801561074d573d6000803e3d6000fd5b505050506040513d601f19601f820116820180604052508101906107719190612347565b90506000600660009054906101000a900473ffffffffffffffffffffffffffffffffffffffff1673ffffffffffffffffffffffffffffffffffffffff166370a08231306040518263ffffffff1660e01b81526004016107d09190612029565b602060405180830381865afa1580156107ed573d6000803e3d6000fd5b505050506040513d601f19601f820116820180604052508101906108119190612347565b90506000600754836108239190612374565b90506000600854836108359190612374565b905060006108416104da565b0361087a576103e861085d828461085891906123a8565b61194b565b6108679190612374565b9450610875306103e8611af8565b6108c5565b6108c26007546108886104da565b8461089391906123a8565b61089d9190612431565b6008546108a86104da565b846108b391906123a8565b6108bd9190612431565b611c57565b94505b60008511610908576040517f08c379a00000000000000000000000000000000000000000000000000000000081526004016108ff906124d4565b60405180910390fd5b6109128686611af8565b83600781905550826008819055508573ffffffffffffffffffffffffffffffffffffffff163373ffffffffffffffffffffffffffffffffffffffff167fa8137fff86647d8a402117b9c5dbda627f721d3773338fb9678c83e54ed39080848489604051610981939291906124f4565b60405180910390a350505050919050565b6000831480156109a25750600082145b156109e2576040517f08c379a00000000000000000000000000000000000000000000000000000000081526004016109d990612577565b60405180910390fd5b6007548311806109f3575060085482115b15610a33576040517f08c379a0000000000000000000000000000000000000000000000000000000008152600401610a2a90612609565b60405180910390fd5b6000831115610ade57600560009054906101000a900473ffffffffffffffffffffffffffffffffffffffff1673ffffffffffffffffffffffffffffffffffffffff1663a9059cbb82856040518363ffffffff1660e01b8152600401610a99929190612629565b6020604051808303816000875af1158015610ab8573d6000803e3d6000fd5b505050506040513d601f19601f82011682018060405250810190610adc919061267e565b505b6000821115610b8957600660009054906101000a900473ffffffffffffffffffffffffffffffffffffffff1673ffffffffffffffffffffffffffffffffffffffff1663a9059cbb82846040518363ffffffff1660e01b8152600401610b44929190612629565b6020604051808303816000875af1158015610b63573d6000803e3d6000fd5b505050506040513d601f19601f82011682018060405250810190610b87919061267e565b505b6000600560009054906101000a900473ffffffffffffffffffffffffffffffffffffffff1673ffffffffffffffffffffffffffffffffffffffff166370a08231306040518263ffffffff1660e01b8152600401610be69190612029565b602060405180830381865afa158015610c03573d6000803e3d6000fd5b505050506040513d601f19601f82011682018060405250810190610c279190612347565b90506000600660009054906101000a900473ffffffffffffffffffffffffffffffffffffffff1673ffffffffffffffffffffffffffffffffffffffff166370a08231306040518263ffffffff1660e01b8152600401610c869190612029565b602060405180830381865afa158015610ca3573d6000803e3d6000fd5b505050506040513d601f19601f82011682018060405250810190610cc79190612347565b9050600085600754610cd99190612374565b83610ce49190612374565b9050600085600854610cf69190612374565b83610d019190612374565b90506000821015610d1157600091505b6000811015610d1f57600090505b600082148015610d2f5750600081145b15610d6f576040517f08c379a0000000000000000000000000000000000000000000000000000000008152600401610d66906126f7565b60405180910390fd5b6000600383610d7e91906123a8565b6103e886610d8c91906123a8565b610d969190612374565b90506000600383610da791906123a8565b6103e886610db591906123a8565b610dbf9190612374565b9050620f4240600854600754610dd591906123a8565b610ddf91906123a8565b8183610deb91906123a8565b1015610e2c576040517f08c379a0000000000000000000000000000000000000000000000000000000008152600401610e2390612789565b60405180910390fd5b85600781905550846008819055508673ffffffffffffffffffffffffffffffffffffffff163373ffffffffffffffffffffffffffffffffffffffff167f2a9237ff5aa599ef4c5ee4b1142b53429d5755e2685fe6288b2e3320202115f58b8b604051610e999291906121b8565b60405180910390a3505050505050505050565b60008060008373ffffffffffffffffffffffffffffffffffffffff1673ffffffffffffffffffffffffffffffffffffffff168152602001908152602001600020549050919050565b606060048054610f0390612210565b80601f0160208091040260200160405190810160405280929190818152602001828054610f2f90612210565b8015610f7c5780601f10610f5157610100808354040283529160200191610f7c565b820191906000526020600020905b815481529060010190602001808311610f5f57829003601f168201915b5050505050905090565b600080610f916104da565b60075484610f9f91906123a8565b610fa99190612431565b9150610fb36104da565b60085484610fc191906123a8565b610fcb9190612431565b90506000821480610fdc5750600081145b1561101c576040517f08c379a00000000000000000000000000000000000000000000000000000000081526004016110139061281b565b60405180910390fd5b6110268484611c70565b600560009054906101000a900473ffffffffffffffffffffffffffffffffffffffff1673ffffffffffffffffffffffffffffffffffffffff1663a9059cbb85846040518363ffffffff1660e01b8152600401611083929190612629565b6020604051808303816000875af11580156110a2573d6000803e3d6000fd5b505050506040513d601f19601f820116820180604052508101906110c6919061267e565b50600660009054906101000a900473ffffffffffffffffffffffffffffffffffffffff1673ffffffffffffffffffffffffffffffffffffffff1663a9059cbb85836040518363ffffffff1660e01b8152600401611124929190612629565b6020604051808303816000875af1158015611143573d6000803e3d6000fd5b505050506040513d601f19601f82011682018060405250810190611167919061267e565b506000600560009054906101000a900473ffffffffffffffffffffffffffffffffffffffff1673ffffffffffffffffffffffffffffffffffffffff166370a08231306040518263ffffffff1660e01b81526004016111c59190612029565b602060405180830381865afa1580156111e2573d6000803e3d6000fd5b505050506040513d601f19601f820116820180604052508101906112069190612347565b90506000600660009054906101000a900473ffffffffffffffffffffffffffffffffffffffff1673ffffffffffffffffffffffffffffffffffffffff166370a08231306040518263ffffffff1660e01b81526004016112659190612029565b602060405180830381865afa158015611282573d6000803e3d6000fd5b505050506040513d601f19601f820116820180604052508101906112a69190612347565b905081600781905550806008819055508573ffffffffffffffffffffffffffffffffffffffff163373ffffffffffffffffffffffffffffffffffffffff167fd175a80c109434bb89948928ab2475a6647c94244cb70002197896423c883363868689604051611317939291906124f4565b60405180910390a350509250929050565b60008061133361146f565b9050600061134182866113e8565b905083811015611386576040517f08c379a000000000000000000000000000000000000000000000000000000000815260040161137d906128ad565b60405180910390fd5b6113938286868403611477565b60019250505092915050565b6000806113aa61146f565b90506113b78185856116cc565b600191505092915050565b600660009054906101000a900473ffffffffffffffffffffffffffffffffffffffff1681565b6000600160008473ffffffffffffffffffffffffffffffffffffffff1673ffffffffffffffffffffffffffffffffffffffff16815260200190815260200160002060008373ffffffffffffffffffffffffffffffffffffffff1673ffffffffffffffffffffffffffffffffffffffff16815260200190815260200160002054905092915050565b600033905090565b600073ffffffffffffffffffffffffffffffffffffffff168373ffffffffffffffffffffffffffffffffffffffff16036114e6576040517f08c379a00000000000000000000000000000000000000000000000000000000081526004016114dd9061293f565b60405180910390fd5b600073ffffffffffffffffffffffffffffffffffffffff168273ffffffffffffffffffffffffffffffffffffffff1603611555576040517f08c379a000000000000000000000000000000000000000000000000000000000815260040161154c906129d1565b60405180910390fd5b80600160008573ffffffffffffffffffffffffffffffffffffffff1673ffffffffffffffffffffffffffffffffffffffff16815260200190815260200160002060008473ffffffffffffffffffffffffffffffffffffffff1673ffffffffffffffffffffffffffffffffffffffff168152602001908152602001600020819055508173ffffffffffffffffffffffffffffffffffffffff168373ffffffffffffffffffffffffffffffffffffffff167f8c5be1e5ebec7d5bd14f71427d1e84f3dd0314c0f7b2291e5b200ac8c7c3b925836040516116339190612053565b60405180910390a3505050565b600061164c84846113e8565b90507fffffffffffffffffffffffffffffffffffffffffffffffffffffffffffffffff81146116c657818110156116b8576040517f08c379a00000000000000000000000000000000000000000000000000000000081526004016116af90612a3d565b60405180910390fd5b6116c58484848403611477565b5b50505050565b600073ffffffffffffffffffffffffffffffffffffffff168373ffffffffffffffffffffffffffffffffffffffff160361173b576040517f08c379a000000000000000000000000000000000000000000000000000000000815260040161173290612acf565b60405180910390fd5b600073ffffffffffffffffffffffffffffffffffffffff168273ffffffffffffffffffffffffffffffffffffffff16036117aa576040517f08c379a00000000000000000000000000000000000000000000000000000000081526004016117a190612b61565b60405180910390fd5b6117b5838383611e46565b60008060008573ffffffffffffffffffffffffffffffffffffffff1673ffffffffffffffffffffffffffffffffffffffff1681526020019081526020016000205490508181101561183b576040517f08c379a000000000000000000000000000000000000000000000000000000000815260040161183290612bf3565b60405180910390fd5b8181036000808673ffffffffffffffffffffffffffffffffffffffff1673ffffffffffffffffffffffffffffffffffffffff16815260200190815260200160002081905550816000808573ffffffffffffffffffffffffffffffffffffffff1673ffffffffffffffffffffffffffffffffffffffff16815260200190815260200160002060008282546118ce9190612270565b925050819055508273ffffffffffffffffffffffffffffffffffffffff168473ffffffffffffffffffffffffffffffffffffffff167fddf252ad1be2c89b69c2b068fc378daa952ba7f163c4a11628f55a4df523b3ef846040516119329190612053565b60405180910390a3611945848484611e4b565b50505050565b600080820361195d5760009050611af3565b60006001905060008390506000608082901c111561198457608081901c9050604082901b91505b6000604082901c11156119a057604081901c9050602082901b91505b6000602082901c11156119bc57602081901c9050601082901b91505b6000601082901c11156119d857601081901c9050600882901b91505b6000600882901c11156119f457600881901c9050600482901b91505b6000600482901c1115611a1057600481901c9050600282901b91505b6000600282901c1115611a2557600182901b91505b6001828581611a3757611a36612402565b5b048301901c91506001828581611a5057611a4f612402565b5b048301901c91506001828581611a6957611a68612402565b5b048301901c91506001828581611a8257611a81612402565b5b048301901c91506001828581611a9b57611a9a612402565b5b048301901c91506001828581611ab457611ab3612402565b5b048301901c91506001828581611acd57611acc612402565b5b048301901c9150611aee82838681611ae857611ae7612402565b5b04611c57565b925050505b919050565b600073ffffffffffffffffffffffffffffffffffffffff168273ffffffffffffffffffffffffffffffffffffffff1603611b67576040517f08c379a0000000000000000000000000000000000000000000000000000000008152600401611b5e90612c5f565b60405180910390fd5b611b7360008383611e46565b8060026000828254611b859190612270565b92505081905550806000808473ffffffffffffffffffffffffffffffffffffffff1673ffffffffffffffffffffffffffffffffffffffff1681526020019081526020016000206000828254611bda9190612270565b925050819055508173ffffffffffffffffffffffffffffffffffffffff16600073ffffffffffffffffffffffffffffffffffffffff167fddf252ad1be2c89b69c2b068fc378daa952ba7f163c4a11628f55a4df523b3ef83604051611c3f9190612053565b60405180910390a3611c5360008383611e4b565b5050565b6000818310611c665781611c68565b825b905092915050565b600073ffffffffffffffffffffffffffffffffffffffff168273ffffffffffffffffffffffffffffffffffffffff1603611cdf576040517f08c379a0000000000000000000000000000000000000000000000000000000008152600401611cd690612cf1565b60405180910390fd5b611ceb82600083611e46565b60008060008473ffffffffffffffffffffffffffffffffffffffff1673ffffffffffffffffffffffffffffffffffffffff16815260200190815260200160002054905081811015611d71576040517f08c379a0000000000000000000000000000000000000000000000000000000008152600401611d6890612d83565b60405180910390fd5b8181036000808573ffffffffffffffffffffffffffffffffffffffff1673ffffffffffffffffffffffffffffffffffffffff168152602001908152602001600020819055508160026000828254611dc89190612374565b92505081905550600073ffffffffffffffffffffffffffffffffffffffff168373ffffffffffffffffffffffffffffffffffffffff167fddf252ad1be2c89b69c2b068fc378daa952ba7f163c4a11628f55a4df523b3ef84604051611e2d9190612053565b60405180910390a3611e4183600084611e4b565b505050565b505050565b505050565b600081519050919050565b600082825260208201905092915050565b60005b83811015611e8a578082015181840152602081019050611e6f565b83811115611e99576000848401525b50505050565b6000601f19601f8301169050919050565b6000611ebb82611e50565b611ec58185611e5b565b9350611ed5818560208601611e6c565b611ede81611e9f565b840191505092915050565b60006020820190508181036000830152611f038184611eb0565b905092915050565b600080fd5b600073ffffffffffffffffffffffffffffffffffffffff82169050919050565b6000611f3b82611f10565b9050919050565b611f4b81611f30565b8114611f5657600080fd5b50565b600081359050611f6881611f42565b92915050565b6000819050919050565b611f8181611f6e565b8114611f8c57600080fd5b50565b600081359050611f9e81611f78565b92915050565b60008060408385031215611fbb57611fba611f0b565b5b6000611fc985828601611f59565b9250506020611fda85828601611f8f565b9150509250929050565b60008115159050919050565b611ff981611fe4565b82525050565b60006020820190506120146000830184611ff0565b92915050565b61202381611f30565b82525050565b600060208201905061203e600083018461201a565b92915050565b61204d81611f6e565b82525050565b60006020820190506120686000830184612044565b92915050565b60008060006060848603121561208757612086611f0b565b5b600061209586828701611f59565b93505060206120a686828701611f59565b92505060406120b786828701611f8f565b9150509250925092565b600060ff82169050919050565b6120d7816120c1565b82525050565b60006020820190506120f260008301846120ce565b92915050565b6000806040838503121561210f5761210e611f0b565b5b600061211d85828601611f59565b925050602061212e85828601611f59565b9150509250929050565b60006020828403121561214e5761214d611f0b565b5b600061215c84828501611f59565b91505092915050565b60008060006060848603121561217e5761217d611f0b565b5b600061218c86828701611f8f565b935050602061219d86828701611f8f565b92505060406121ae86828701611f59565b9150509250925092565b60006040820190506121cd6000830185612044565b6121da6020830184612044565b9392505050565b7f4e487b7100000000000000000000000000000000000000000000000000000000600052602260045260246000fd5b6000600282049050600182168061222857607f821691505b60208210810361223b5761223a6121e1565b5b50919050565b7f4e487b7100000000000000000000000000000000000000000000000000000000600052601160045260246000fd5b600061227b82611f6e565b915061228683611f6e565b9250827fffffffffffffffffffffffffffffffffffffffffffffffffffffffffffffffff038211156122bb576122ba612241565b5b828201905092915050565b7f5061697220616c726561647920696e697469616c697a65640000000000000000600082015250565b60006122fc601883611e5b565b9150612307826122c6565b602082019050919050565b6000602082019050818103600083015261232b816122ef565b9050919050565b60008151905061234181611f78565b92915050565b60006020828403121561235d5761235c611f0b565b5b600061236b84828501612332565b91505092915050565b600061237f82611f6e565b915061238a83611f6e565b92508282101561239d5761239c612241565b5b828203905092915050565b60006123b382611f6e565b91506123be83611f6e565b9250817fffffffffffffffffffffffffffffffffffffffffffffffffffffffffffffffff04831182151516156123f7576123f6612241565b5b828202905092915050565b7f4e487b7100000000000000000000000000000000000000000000000000000000600052601260045260246000fd5b600061243c82611f6e565b915061244783611f6e565b92508261245757612456612402565b5b828204905092915050565b7f496e73756666696369656e74206c697175696469747920746f6b656e73206d6960008201527f6e74656421000000000000000000000000000000000000000000000000000000602082015250565b60006124be602583611e5b565b91506124c982612462565b604082019050919050565b600060208201905081810360008301526124ed816124b1565b9050919050565b60006060820190506125096000830186612044565b6125166020830185612044565b6125236040830184612044565b949350505050565b7f5a65726f206f757470757420616d6f756e747300000000000000000000000000600082015250565b6000612561601383611e5b565b915061256c8261252b565b602082019050919050565b6000602082019050818103600083015261259081612554565b9050919050565b7f4f757470757420616d6f756e742069732067726561746572207468616e20726560008201527f7365727665000000000000000000000000000000000000000000000000000000602082015250565b60006125f3602583611e5b565b91506125fe82612597565b604082019050919050565b60006020820190508181036000830152612622816125e6565b9050919050565b600060408201905061263e600083018561201a565b61264b6020830184612044565b9392505050565b61265b81611fe4565b811461266657600080fd5b50565b60008151905061267881612652565b92915050565b60006020828403121561269457612693611f0b565b5b60006126a284828501612669565b91505092915050565b7f5a65726f20696e70757420616d6f756e74730000000000000000000000000000600082015250565b60006126e1601283611e5b565b91506126ec826126ab565b602082019050919050565b60006020820190508181036000830152612710816126d4565b9050919050565b7f4e65772070726f64756374206f66207265736572766573206973206c6573732060008201527f7468616e2070726576696f757300000000000000000000000000000000000000602082015250565b6000612773602d83611e5b565b915061277e82612717565b604082019050919050565b600060208201905081810360008301526127a281612766565b9050919050565b7f496e73756666696369656e74206c697175696469747920746f6b656e7320627560008201527f726e656421000000000000000000000000000000000000000000000000000000602082015250565b6000612805602583611e5b565b9150612810826127a9565b604082019050919050565b60006020820190508181036000830152612834816127f8565b9050919050565b7f45524332303a2064656372656173656420616c6c6f77616e63652062656c6f7760008201527f207a65726f000000000000000000000000000000000000000000000000000000602082015250565b6000612897602583611e5b565b91506128a28261283b565b604082019050919050565b600060208201905081810360008301526128c68161288a565b9050919050565b7f45524332303a20617070726f76652066726f6d20746865207a65726f2061646460008201527f7265737300000000000000000000000000000000000000000000000000000000602082015250565b6000612929602483611e5b565b9150612934826128cd565b604082019050919050565b600060208201905081810360008301526129588161291c565b9050919050565b7f45524332303a20617070726f766520746f20746865207a65726f20616464726560008201527f7373000000000000000000000000000000000000000000000000000000000000602082015250565b60006129bb602283611e5b565b91506129c68261295f565b604082019050919050565b600060208201905081810360008301526129ea816129ae565b9050919050565b7f45524332303a20696e73756666696369656e7420616c6c6f77616e6365000000600082015250565b6000612a27601d83611e5b565b9150612a32826129f1565b602082019050919050565b60006020820190508181036000830152612a5681612a1a565b9050919050565b7f45524332303a207472616e736665722066726f6d20746865207a65726f20616460008201527f6472657373000000000000000000000000000000000000000000000000000000602082015250565b6000612ab9602583611e5b565b9150612ac482612a5d565b604082019050919050565b60006020820190508181036000830152612ae881612aac565b9050919050565b7f45524332303a207472616e7366657220746f20746865207a65726f206164647260008201527f6573730000000000000000000000000000000000000000000000000000000000602082015250565b6000612b4b602383611e5b565b9150612b5682612aef565b604082019050919050565b60006020820190508181036000830152612b7a81612b3e565b9050919050565b7f45524332303a207472616e7366657220616d6f756e742065786365656473206260008201527f616c616e63650000000000000000000000000000000000000000000000000000602082015250565b6000612bdd602683611e5b565b9150612be882612b81565b604082019050919050565b60006020820190508181036000830152612c0c81612bd0565b9050919050565b7f45524332303a206d696e7420746f20746865207a65726f206164647265737300600082015250565b6000612c49601f83611e5b565b9150612c5482612c13565b602082019050919050565b60006020820190508181036000830152612c7881612c3c565b9050919050565b7f45524332303a206275726e2066726f6d20746865207a65726f2061646472657360008201527f7300000000000000000000000000000000000000000000000000000000000000602082015250565b6000612cdb602183611e5b565b9150612ce682612c7f565b604082019050919050565b60006020820190508181036000830152612d0a81612cce565b9050919050565b7f45524332303a206275726e20616d6f756e7420657863656564732062616c616e60008201527f6365000000000000000000000000000000000000000000000000000000000000602082015250565b6000612d6d602283611e5b565b9150612d7882612d11565b604082019050919050565b60006020820190508181036000830152612d9c81612d60565b905091905056fea2646970667358221220dbabbc9e06337bc28dad8394fa532792ff185ccccec25a0cd00f38e32383440164736f6c634300080f0033a264697066735822122055e8316d5f9fe2c2df4a1b56389084040c03efad9400da2693accfa9252db83e64736f6c634300080f0033",
  "immutableReferences": {},
  "source": "// SPDX-License-Identifier: MIT\npragma solidity ^0.8.15;\n\nimport \"./Pair.sol\";\n\ncontract Factory {\n  event PairCreated(address indexed token0, address indexed token1, address pair);\n  \n  mapping(address => mapping(address => address)) public pairs;\n\n  function createPair(address token0, address token1) public returns (address pairAddress) {\n    if (token0 == token1) {\n      revert('Tokens should have different addresses');\n    }\n\n    if (token0 == address(0) || token1 == address(0)) {\n      revert('Tokens should have non-zero addresses');\n    }\n    \n    if (pairs[token0][token1] != address(0) || pairs[token1][token0] != address(0)) {\n      revert('Pair already exists for these tokens');\n    }\n\n    Pair pair = new Pair();\n    pair.initialize(token0, token1);\n\n    pairAddress = address(pair);\n    pairs[token0][token1] = pairAddress;\n    pairs[token1][token0] = pairAddress;\n\n    emit PairCreated(token0, token1, pairAddress);\n  }\n}",
  "sourcePath": "/Users/lambros/Downloads/my-crypto-exchange/contracts/Factory.sol",
  "compiler": {
    "name": "solc",
    "version": "0.8.15+commit.e14f2714.Emscripten.clang"
  },
  "schemaVersion": "3.4.8",
  "updatedAt": "2022-09-18T16:25:47.989Z",
  "networkType": "ethereum",
  "devdoc": {
    "kind": "dev",
    "methods": {},
    "version": 1
  },
  "userdoc": {
    "kind": "user",
    "methods": {},
    "version": 1
  }
}