{
  "contractName": "Library",
  "abi": [
    {
      "inputs": [
        {
          "internalType": "address",
          "name": "factoryAddress",
          "type": "address"
        },
        {
          "internalType": "address",
          "name": "tokenA",
          "type": "address"
        },
        {
          "internalType": "address",
          "name": "tokenB",
          "type": "address"
        }
      ],
      "name": "getReserves",
      "outputs": [
        {
          "internalType": "uint256",
          "name": "reserveA",
          "type": "uint256"
        },
        {
          "internalType": "uint256",
          "name": "reserveB",
          "type": "uint256"
        }
      ],
      "stateMutability": "view",
      "type": "function",
      "constant": true
    },
    {
      "inputs": [
        {
          "internalType": "uint256",
          "name": "amountIn",
          "type": "uint256"
        },
        {
          "internalType": "uint256",
          "name": "reserveIn",
          "type": "uint256"
        },
        {
          "internalType": "uint256",
          "name": "reserveOut",
          "type": "uint256"
        }
      ],
      "name": "quote",
      "outputs": [
        {
          "internalType": "uint256",
          "name": "amountOut",
          "type": "uint256"
        }
      ],
      "stateMutability": "pure",
      "type": "function",
      "constant": true
    },
    {
      "inputs": [
        {
          "internalType": "uint256",
          "name": "amountIn",
          "type": "uint256"
        },
        {
          "internalType": "uint256",
          "name": "reserveIn",
          "type": "uint256"
        },
        {
          "internalType": "uint256",
          "name": "reserveOut",
          "type": "uint256"
        }
      ],
      "name": "getAmountOut",
      "outputs": [
        {
          "internalType": "uint256",
          "name": "",
          "type": "uint256"
        }
      ],
      "stateMutability": "pure",
      "type": "function",
      "constant": true
    },
    {
      "inputs": [
        {
          "internalType": "address",
          "name": "factory",
          "type": "address"
        },
        {
          "internalType": "uint256",
          "name": "amountIn",
          "type": "uint256"
        },
        {
          "internalType": "address[]",
          "name": "path",
          "type": "address[]"
        }
      ],
      "name": "getAmountsOut",
      "outputs": [
        {
          "internalType": "uint256[]",
          "name": "",
          "type": "uint256[]"
        }
      ],
      "stateMutability": "view",
      "type": "function",
      "constant": true
    },
    {
      "inputs": [
        {
          "internalType": "uint256",
          "name": "amountOut",
          "type": "uint256"
        },
        {
          "internalType": "uint256",
          "name": "reserveIn",
          "type": "uint256"
        },
        {
          "internalType": "uint256",
          "name": "reserveOut",
          "type": "uint256"
        }
      ],
      "name": "getAmountIn",
      "outputs": [
        {
          "internalType": "uint256",
          "name": "",
          "type": "uint256"
        }
      ],
      "stateMutability": "pure",
      "type": "function",
      "constant": true
    },
    {
      "inputs": [
        {
          "internalType": "address",
          "name": "factory",
          "type": "address"
        },
        {
          "internalType": "uint256",
          "name": "amountOut",
          "type": "uint256"
        },
        {
          "internalType": "address[]",
          "name": "path",
          "type": "address[]"
        }
      ],
      "name": "getAmountsIn",
      "outputs": [
        {
          "internalType": "uint256[]",
          "name": "",
          "type": "uint256[]"
        }
      ],
      "stateMutability": "view",
      "type": "function",
      "constant": true
    }
  ],
  "bytecode": "0x6113aa610053600b82828239805160001a607314610046577f4e487b7100000000000000000000000000000000000000000000000000000000600052600060045260246000fd5b30600052607381538281f3fe730000000000000000000000000000000000000000301460806040526004361061006c5760003560e01c8063054d50d414610071578063192128b2146100a157806332749461146100d157806385f8c25914610102578063ad615dec14610132578063bb7b9c7614610162575b600080fd5b61008b60048036038101906100869190610b51565b610192565b6040516100989190610bb3565b60405180910390f35b6100bb60048036038101906100b69190610d85565b61027c565b6040516100c89190610eb2565b60405180910390f35b6100eb60048036038101906100e69190610ed4565b61041d565b6040516100f9929190610f27565b60405180910390f35b61011c60048036038101906101179190610b51565b61074c565b6040516101299190610bb3565b60405180910390f35b61014c60048036038101906101479190610b51565b61083c565b6040516101599190610bb3565b60405180910390f35b61017c60048036038101906101779190610d85565b6108ef565b6040516101899190610eb2565b60405180910390f35b60008084036101d6576040517f08c379a00000000000000000000000000000000000000000000000000000000081526004016101cd90610fad565b60405180910390fd5b60008314806101e55750600082145b15610225576040517f08c379a000000000000000000000000000000000000000000000000000000000815260040161021c90611019565b60405180910390fd5b60006103e5856102359190611068565b9050600083826102459190611068565b90506000826103e8876102589190611068565b61026291906110c2565b905080826102709190611147565b93505050509392505050565b60606002825110156102c3576040517f08c379a00000000000000000000000000000000000000000000000000000000081526004016102ba906111c4565b60405180910390fd5b6000825167ffffffffffffffff8111156102e0576102df610c42565b5b60405190808252806020026020018201604052801561030e5781602001602082028036833780820191505090505b50905083816001835161032191906111e4565b8151811061033257610331611218565b5b60200260200101818152505060006001845161034e91906111e4565b90505b6000811115610411576000806103a8888760018661036f91906111e4565b815181106103805761037f611218565b5b602002602001015188868151811061039b5761039a611218565b5b602002602001015161041d565b915091506103d18484815181106103c2576103c1611218565b5b6020026020010151838361074c565b846001856103df91906111e4565b815181106103f0576103ef611218565b5b6020026020010181815250505050808061040990611247565b915050610351565b50809150509392505050565b600080600061042d868686610a80565b905060008190508573ffffffffffffffffffffffffffffffffffffffff168173ffffffffffffffffffffffffffffffffffffffff16630dfe16816040518163ffffffff1660e01b8152600401602060405180830381865afa158015610496573d6000803e3d6000fd5b505050506040513d601f19601f820116820180604052508101906104ba9190611285565b73ffffffffffffffffffffffffffffffffffffffff1614610549578073ffffffffffffffffffffffffffffffffffffffff16635a76f25e6040518163ffffffff1660e01b8152600401602060405180830381865afa158015610520573d6000803e3d6000fd5b505050506040513d601f19601f8201168201806040525081019061054491906112c7565b6105b9565b8073ffffffffffffffffffffffffffffffffffffffff1663443cb4bc6040518163ffffffff1660e01b8152600401602060405180830381865afa158015610594573d6000803e3d6000fd5b505050506040513d601f19601f820116820180604052508101906105b891906112c7565b5b93508573ffffffffffffffffffffffffffffffffffffffff168173ffffffffffffffffffffffffffffffffffffffff16630dfe16816040518163ffffffff1660e01b8152600401602060405180830381865afa15801561061d573d6000803e3d6000fd5b505050506040513d601f19601f820116820180604052508101906106419190611285565b73ffffffffffffffffffffffffffffffffffffffff16146106d0578073ffffffffffffffffffffffffffffffffffffffff1663443cb4bc6040518163ffffffff1660e01b8152600401602060405180830381865afa1580156106a7573d6000803e3d6000fd5b505050506040513d601f19601f820116820180604052508101906106cb91906112c7565b610740565b8073ffffffffffffffffffffffffffffffffffffffff16635a76f25e6040518163ffffffff1660e01b8152600401602060405180830381865afa15801561071b573d6000803e3d6000fd5b505050506040513d601f19601f8201168201806040525081019061073f91906112c7565b5b92505050935093915050565b6000808403610790576040517f08c379a000000000000000000000000000000000000000000000000000000000815260040161078790610fad565b60405180910390fd5b600083148061079f5750600082145b156107df576040517f08c379a00000000000000000000000000000000000000000000000000000000081526004016107d690611019565b60405180910390fd5b60006103e885856107f09190611068565b6107fa9190611068565b905060006103e5868561080d91906111e4565b6108179190611068565b9050600181836108279190611147565b61083191906110c2565b925050509392505050565b6000808403610880576040517f08c379a000000000000000000000000000000000000000000000000000000000815260040161087790610fad565b60405180910390fd5b600083148061088f5750600082145b156108cf576040517f08c379a00000000000000000000000000000000000000000000000000000000081526004016108c690611019565b60405180910390fd5b8282856108dc9190611068565b6108e69190611147565b90509392505050565b6060600282511015610936576040517f08c379a000000000000000000000000000000000000000000000000000000000815260040161092d906111c4565b60405180910390fd5b6000825167ffffffffffffffff81111561095357610952610c42565b5b6040519080825280602002602001820160405280156109815781602001602082028036833780820191505090505b509050838160008151811061099957610998611218565b5b60200260200101818152505060005b600184516109b691906111e4565b811015610a7457600080610a0b888785815181106109d7576109d6611218565b5b6020026020010151886001876109ed91906110c2565b815181106109fe576109fd611218565b5b602002602001015161041d565b91509150610a34848481518110610a2557610a24611218565b5b60200260200101518383610192565b84600185610a4291906110c2565b81518110610a5357610a52611218565b5b60200260200101818152505050508080610a6c906112f4565b9150506109a8565b50809150509392505050565b60008373ffffffffffffffffffffffffffffffffffffffff166369454b8684846040518363ffffffff1660e01b8152600401610abd92919061134b565b602060405180830381865afa158015610ada573d6000803e3d6000fd5b505050506040513d601f19601f82011682018060405250810190610afe9190611285565b90509392505050565b6000604051905090565b600080fd5b600080fd5b6000819050919050565b610b2e81610b1b565b8114610b3957600080fd5b50565b600081359050610b4b81610b25565b92915050565b600080600060608486031215610b6a57610b69610b11565b5b6000610b7886828701610b3c565b9350506020610b8986828701610b3c565b9250506040610b9a86828701610b3c565b9150509250925092565b610bad81610b1b565b82525050565b6000602082019050610bc86000830184610ba4565b92915050565b600073ffffffffffffffffffffffffffffffffffffffff82169050919050565b6000610bf982610bce565b9050919050565b610c0981610bee565b8114610c1457600080fd5b50565b600081359050610c2681610c00565b92915050565b600080fd5b6000601f19601f8301169050919050565b7f4e487b7100000000000000000000000000000000000000000000000000000000600052604160045260246000fd5b610c7a82610c31565b810181811067ffffffffffffffff82111715610c9957610c98610c42565b5b80604052505050565b6000610cac610b07565b9050610cb88282610c71565b919050565b600067ffffffffffffffff821115610cd857610cd7610c42565b5b602082029050602081019050919050565b600080fd5b6000610d01610cfc84610cbd565b610ca2565b90508083825260208201905060208402830185811115610d2457610d23610ce9565b5b835b81811015610d4d5780610d398882610c17565b845260208401935050602081019050610d26565b5050509392505050565b600082601f830112610d6c57610d6b610c2c565b5b8135610d7c848260208601610cee565b91505092915050565b600080600060608486031215610d9e57610d9d610b11565b5b6000610dac86828701610c17565b9350506020610dbd86828701610b3c565b925050604084013567ffffffffffffffff811115610dde57610ddd610b16565b5b610dea86828701610d57565b9150509250925092565b600081519050919050565b600082825260208201905092915050565b6000819050602082019050919050565b610e2981610b1b565b82525050565b6000610e3b8383610e20565b60208301905092915050565b6000602082019050919050565b6000610e5f82610df4565b610e698185610dff565b9350610e7483610e10565b8060005b83811015610ea5578151610e8c8882610e2f565b9750610e9783610e47565b925050600181019050610e78565b5085935050505092915050565b60006020820190508181036000830152610ecc8184610e54565b905092915050565b600080600060608486031215610eed57610eec610b11565b5b6000610efb86828701610c17565b9350506020610f0c86828701610c17565b9250506040610f1d86828701610c17565b9150509250925092565b6000604082019050610f3c6000830185610ba4565b610f496020830184610ba4565b9392505050565b600082825260208201905092915050565b7f496e73756666696369656e7420616d6f756e7400000000000000000000000000600082015250565b6000610f97601383610f50565b9150610fa282610f61565b602082019050919050565b60006020820190508181036000830152610fc681610f8a565b9050919050565b7f496e73756666696369656e74206c697175696469747900000000000000000000600082015250565b6000611003601683610f50565b915061100e82610fcd565b602082019050919050565b6000602082019050818103600083015261103281610ff6565b9050919050565b7f4e487b7100000000000000000000000000000000000000000000000000000000600052601160045260246000fd5b600061107382610b1b565b915061107e83610b1b565b9250817fffffffffffffffffffffffffffffffffffffffffffffffffffffffffffffffff04831182151516156110b7576110b6611039565b5b828202905092915050565b60006110cd82610b1b565b91506110d883610b1b565b9250827fffffffffffffffffffffffffffffffffffffffffffffffffffffffffffffffff0382111561110d5761110c611039565b5b828201905092915050565b7f4e487b7100000000000000000000000000000000000000000000000000000000600052601260045260246000fd5b600061115282610b1b565b915061115d83610b1b565b92508261116d5761116c611118565b5b828204905092915050565b7f496e76616c696420706174680000000000000000000000000000000000000000600082015250565b60006111ae600c83610f50565b91506111b982611178565b602082019050919050565b600060208201905081810360008301526111dd816111a1565b9050919050565b60006111ef82610b1b565b91506111fa83610b1b565b92508282101561120d5761120c611039565b5b828203905092915050565b7f4e487b7100000000000000000000000000000000000000000000000000000000600052603260045260246000fd5b600061125282610b1b565b91506000820361126557611264611039565b5b600182039050919050565b60008151905061127f81610c00565b92915050565b60006020828403121561129b5761129a610b11565b5b60006112a984828501611270565b91505092915050565b6000815190506112c181610b25565b92915050565b6000602082840312156112dd576112dc610b11565b5b60006112eb848285016112b2565b91505092915050565b60006112ff82610b1b565b91507fffffffffffffffffffffffffffffffffffffffffffffffffffffffffffffffff820361133157611330611039565b5b600182019050919050565b61134581610bee565b82525050565b6000604082019050611360600083018561133c565b61136d602083018461133c565b939250505056fea2646970667358221220006b1bc78ebca08909983fea9c7ba2b47e1a932b076afd77c21fd2b943b17bc364736f6c634300080f0033",
  "immutableReferences": {},
  "source": "// SPDX-License-Identifier: MIT\npragma solidity ^0.8.15;\n\nimport \"./Factory.sol\";\n\nlibrary Library {\n  function getReserves(\n    address factoryAddress,\n    address tokenA,\n    address tokenB\n  ) public view returns (\n    uint256 reserveA, \n    uint256 reserveB\n  ) {\n    address pairAddress = pairFor(factoryAddress, tokenA, tokenB);\n    Pair pair = Pair(pairAddress);\n    \n    reserveA = pair.token0() == tokenA ? pair.reserve0() : pair.reserve1();\n    reserveB = pair.token0() == tokenA ? pair.reserve1() : pair.reserve0();\n  }\n\n  function quote(\n    uint256 amountIn,\n    uint256 reserveIn,\n    uint256 reserveOut\n  ) public pure returns (uint256 amountOut) {\n    if (amountIn == 0) {\n      revert('Insufficient amount');\n    }\n\n    if (reserveIn == 0 || reserveOut == 0) {\n      revert('Insufficient liquidity');\n    }\n\n    return (amountIn * reserveOut) / reserveIn;\n  }\n\n  function getAmountOut(\n    uint256 amountIn,\n    uint256 reserveIn,\n    uint256 reserveOut\n  ) public pure returns (uint256) {\n    if (amountIn == 0) {\n      revert('Insufficient amount');\n    }\n\n    if (reserveIn == 0 || reserveOut == 0) {\n      revert('Insufficient liquidity');\n    }\n\n    // apply 0.3% fee\n    uint256 amountInWithFee = amountIn * 997;\n    uint256 numerator = amountInWithFee * reserveOut;\n    uint256 denominator = (reserveIn * 1000) + amountInWithFee;\n\n    return numerator / denominator;\n  }\n\n  function getAmountsOut(\n    address factory,\n    uint256 amountIn,\n    address[] memory path\n  ) public view returns (uint256[] memory) {\n    if (path.length < 2) {\n      revert('Invalid path');\n    }\n\n    uint256[] memory amountsOut = new uint256[](path.length);\n    amountsOut[0] = amountIn;\n\n    for (uint256 i; i < path.length - 1; i++) {\n      (uint256 reserve0, uint256 reserve1) = getReserves(\n        factory,\n        path[i],\n        path[i + 1]\n      );\n    \n      amountsOut[i + 1] = getAmountOut(amountsOut[i], reserve0, reserve1);\n    }\n\n    return amountsOut;\n  }\n\n  function getAmountIn(\n    uint256 amountOut,\n    uint256 reserveIn,\n    uint256 reserveOut\n  ) public pure returns (uint256) {\n    if (amountOut == 0) {\n      revert('Insufficient amount');\n    }\n\n    if (reserveIn == 0 || reserveOut == 0) {\n      revert('Insufficient liquidity');\n    }\n\n    // apply 0.3% fee\n    uint256 numerator = reserveIn * amountOut * 1000;\n    uint256 denominator = (reserveOut - amountOut) * 997;\n\n    // add 1 to handle truncated result\n    return (numerator / denominator) + 1;\n  }\n\n  function getAmountsIn(\n    address factory,\n    uint256 amountOut,\n    address[] memory path\n  ) public view returns (uint256[] memory) {\n    if (path.length < 2) {\n      revert('Invalid path');\n    }\n\n    uint256[] memory amountsIn = new uint256[](path.length);\n    amountsIn[amountsIn.length - 1] = amountOut;\n\n    for (uint256 i = path.length - 1; i > 0; i--) {\n      (uint256 reserve0, uint256 reserve1) = getReserves(\n        factory,\n        path[i - 1],\n        path[i]\n      );\n    \n      amountsIn[i - 1] = getAmountIn(amountsIn[i], reserve0, reserve1);\n    }\n\n    return amountsIn;\n  }\n\n  function pairFor(\n    address factoryAddress,\n    address tokenA,\n    address tokenB\n  ) internal view returns (address pairAddress) {\n    pairAddress = Factory(factoryAddress).pairs(tokenA, tokenB);\n  }\n}\n",
  "sourcePath": "/Users/lambros/Downloads/my-crypto-exchange/contracts/Library.sol",
  "compiler": {
    "name": "solc",
    "version": "0.8.15+commit.e14f2714.Emscripten.clang"
  },
  "schemaVersion": "3.4.8",
  "updatedAt": "2022-09-04T19:31:30.595Z",
  "networkType": "ethereum",
  "devdoc": {
    "kind": "dev",
    "methods": {},
    "version": 1
  },
  "userdoc": {
    "kind": "user",
    "methods": {},
    "version": 1
  }
}