{
  "contractName": "Library",
  "abi": [
    {
      "inputs": [
        {
          "internalType": "address",
          "name": "factoryAddress",
          "type": "address"
        },
        {
          "internalType": "address",
          "name": "tokenA",
          "type": "address"
        },
        {
          "internalType": "address",
          "name": "tokenB",
          "type": "address"
        }
      ],
      "name": "getReserves",
      "outputs": [
        {
          "internalType": "uint256",
          "name": "reserveA",
          "type": "uint256"
        },
        {
          "internalType": "uint256",
          "name": "reserveB",
          "type": "uint256"
        }
      ],
      "stateMutability": "view",
      "type": "function",
      "constant": true
    },
    {
      "inputs": [
        {
          "internalType": "uint256",
          "name": "amountIn",
          "type": "uint256"
        },
        {
          "internalType": "uint256",
          "name": "reserveIn",
          "type": "uint256"
        },
        {
          "internalType": "uint256",
          "name": "reserveOut",
          "type": "uint256"
        }
      ],
      "name": "quote",
      "outputs": [
        {
          "internalType": "uint256",
          "name": "amountOut",
          "type": "uint256"
        }
      ],
      "stateMutability": "pure",
      "type": "function",
      "constant": true
    },
    {
      "inputs": [
        {
          "internalType": "address",
          "name": "factoryAddress",
          "type": "address"
        },
        {
          "internalType": "address",
          "name": "tokenA",
          "type": "address"
        },
        {
          "internalType": "address",
          "name": "tokenB",
          "type": "address"
        },
        {
          "internalType": "uint8",
          "name": "percentageToRemove",
          "type": "uint8"
        }
      ],
      "name": "quoteBeforeRemovingLiquidity",
      "outputs": [
        {
          "internalType": "uint256",
          "name": "amountA",
          "type": "uint256"
        },
        {
          "internalType": "uint256",
          "name": "amountB",
          "type": "uint256"
        },
        {
          "internalType": "uint256",
          "name": "lpTokensToRemove",
          "type": "uint256"
        }
      ],
      "stateMutability": "view",
      "type": "function",
      "constant": true
    },
    {
      "inputs": [
        {
          "internalType": "uint256",
          "name": "amountIn",
          "type": "uint256"
        },
        {
          "internalType": "uint256",
          "name": "reserveIn",
          "type": "uint256"
        },
        {
          "internalType": "uint256",
          "name": "reserveOut",
          "type": "uint256"
        }
      ],
      "name": "getAmountOut",
      "outputs": [
        {
          "internalType": "uint256",
          "name": "",
          "type": "uint256"
        }
      ],
      "stateMutability": "pure",
      "type": "function",
      "constant": true
    },
    {
      "inputs": [
        {
          "internalType": "address",
          "name": "factory",
          "type": "address"
        },
        {
          "internalType": "uint256",
          "name": "amountIn",
          "type": "uint256"
        },
        {
          "internalType": "address[]",
          "name": "path",
          "type": "address[]"
        }
      ],
      "name": "getAmountsOut",
      "outputs": [
        {
          "internalType": "uint256[]",
          "name": "",
          "type": "uint256[]"
        }
      ],
      "stateMutability": "view",
      "type": "function",
      "constant": true
    },
    {
      "inputs": [
        {
          "internalType": "uint256",
          "name": "amountOut",
          "type": "uint256"
        },
        {
          "internalType": "uint256",
          "name": "reserveIn",
          "type": "uint256"
        },
        {
          "internalType": "uint256",
          "name": "reserveOut",
          "type": "uint256"
        }
      ],
      "name": "getAmountIn",
      "outputs": [
        {
          "internalType": "uint256",
          "name": "",
          "type": "uint256"
        }
      ],
      "stateMutability": "pure",
      "type": "function",
      "constant": true
    },
    {
      "inputs": [
        {
          "internalType": "address",
          "name": "factory",
          "type": "address"
        },
        {
          "internalType": "uint256",
          "name": "amountOut",
          "type": "uint256"
        },
        {
          "internalType": "address[]",
          "name": "path",
          "type": "address[]"
        }
      ],
      "name": "getAmountsIn",
      "outputs": [
        {
          "internalType": "uint256[]",
          "name": "",
          "type": "uint256[]"
        }
      ],
      "stateMutability": "view",
      "type": "function",
      "constant": true
    }
  ],
  "bytecode": "0x6116cb610053600b82828239805160001a607314610046577f4e487b7100000000000000000000000000000000000000000000000000000000600052600060045260246000fd5b30600052607381538281f3fe73000000000000000000000000000000000000000030146080604052600436106100875760003560e01c806385f8c2591161006557806385f8c2591461011d578063ad615dec1461014d578063bb7b9c761461017d578063d8f1360e146101ad57610087565b8063054d50d41461008c578063192128b2146100bc57806332749461146100ec575b600080fd5b6100a660048036038101906100a19190610d80565b6101df565b6040516100b39190610de2565b60405180910390f35b6100d660048036038101906100d19190610fb4565b6102c9565b6040516100e391906110e1565b60405180910390f35b61010660048036038101906101019190611103565b61046a565b604051610114929190611156565b60405180910390f35b61013760048036038101906101329190610d80565b610799565b6040516101449190610de2565b60405180910390f35b61016760048036038101906101629190610d80565b610889565b6040516101749190610de2565b60405180910390f35b61019760048036038101906101929190610fb4565b61093c565b6040516101a491906110e1565b60405180910390f35b6101c760048036038101906101c291906111b8565b610acd565b6040516101d69392919061121f565b60405180910390f35b6000808403610223576040517f08c379a000000000000000000000000000000000000000000000000000000000815260040161021a906112b3565b60405180910390fd5b60008314806102325750600082145b15610272576040517f08c379a00000000000000000000000000000000000000000000000000000000081526004016102699061131f565b60405180910390fd5b60006103e585610282919061136e565b905060008382610292919061136e565b90506000826103e8876102a5919061136e565b6102af91906113c8565b905080826102bd919061144d565b93505050509392505050565b6060600282511015610310576040517f08c379a0000000000000000000000000000000000000000000000000000000008152600401610307906114ca565b60405180910390fd5b6000825167ffffffffffffffff81111561032d5761032c610e71565b5b60405190808252806020026020018201604052801561035b5781602001602082028036833780820191505090505b50905083816001835161036e91906114ea565b8151811061037f5761037e61151e565b5b60200260200101818152505060006001845161039b91906114ea565b90505b600081111561045e576000806103f588876001866103bc91906114ea565b815181106103cd576103cc61151e565b5b60200260200101518886815181106103e8576103e761151e565b5b602002602001015161046a565b9150915061041e84848151811061040f5761040e61151e565b5b60200260200101518383610799565b8460018561042c91906114ea565b8151811061043d5761043c61151e565b5b602002602001018181525050505080806104569061154d565b91505061039e565b50809150509392505050565b600080600061047a868686610caf565b905060008190508573ffffffffffffffffffffffffffffffffffffffff168173ffffffffffffffffffffffffffffffffffffffff16630dfe16816040518163ffffffff1660e01b8152600401602060405180830381865afa1580156104e3573d6000803e3d6000fd5b505050506040513d601f19601f82011682018060405250810190610507919061158b565b73ffffffffffffffffffffffffffffffffffffffff1614610596578073ffffffffffffffffffffffffffffffffffffffff16635a76f25e6040518163ffffffff1660e01b8152600401602060405180830381865afa15801561056d573d6000803e3d6000fd5b505050506040513d601f19601f8201168201806040525081019061059191906115cd565b610606565b8073ffffffffffffffffffffffffffffffffffffffff1663443cb4bc6040518163ffffffff1660e01b8152600401602060405180830381865afa1580156105e1573d6000803e3d6000fd5b505050506040513d601f19601f8201168201806040525081019061060591906115cd565b5b93508573ffffffffffffffffffffffffffffffffffffffff168173ffffffffffffffffffffffffffffffffffffffff16630dfe16816040518163ffffffff1660e01b8152600401602060405180830381865afa15801561066a573d6000803e3d6000fd5b505050506040513d601f19601f8201168201806040525081019061068e919061158b565b73ffffffffffffffffffffffffffffffffffffffff161461071d578073ffffffffffffffffffffffffffffffffffffffff1663443cb4bc6040518163ffffffff1660e01b8152600401602060405180830381865afa1580156106f4573d6000803e3d6000fd5b505050506040513d601f19601f8201168201806040525081019061071891906115cd565b61078d565b8073ffffffffffffffffffffffffffffffffffffffff16635a76f25e6040518163ffffffff1660e01b8152600401602060405180830381865afa158015610768573d6000803e3d6000fd5b505050506040513d601f19601f8201168201806040525081019061078c91906115cd565b5b92505050935093915050565b60008084036107dd576040517f08c379a00000000000000000000000000000000000000000000000000000000081526004016107d4906112b3565b60405180910390fd5b60008314806107ec5750600082145b1561082c576040517f08c379a00000000000000000000000000000000000000000000000000000000081526004016108239061131f565b60405180910390fd5b60006103e8858561083d919061136e565b610847919061136e565b905060006103e5868561085a91906114ea565b610864919061136e565b905060018183610874919061144d565b61087e91906113c8565b925050509392505050565b60008084036108cd576040517f08c379a00000000000000000000000000000000000000000000000000000000081526004016108c4906112b3565b60405180910390fd5b60008314806108dc5750600082145b1561091c576040517f08c379a00000000000000000000000000000000000000000000000000000000081526004016109139061131f565b60405180910390fd5b828285610929919061136e565b610933919061144d565b90509392505050565b6060600282511015610983576040517f08c379a000000000000000000000000000000000000000000000000000000000815260040161097a906114ca565b60405180910390fd5b6000825167ffffffffffffffff8111156109a05761099f610e71565b5b6040519080825280602002602001820160405280156109ce5781602001602082028036833780820191505090505b50905083816000815181106109e6576109e561151e565b5b60200260200101818152505060005b60018451610a0391906114ea565b811015610ac157600080610a5888878581518110610a2457610a2361151e565b5b602002602001015188600187610a3a91906113c8565b81518110610a4b57610a4a61151e565b5b602002602001015161046a565b91509150610a81848481518110610a7257610a7161151e565b5b602002602001015183836101df565b84600185610a8f91906113c8565b81518110610aa057610a9f61151e565b5b60200260200101818152505050508080610ab9906115fa565b9150506109f5565b50809150509392505050565b600080600080610ade888888610caf565b9050600081905060008173ffffffffffffffffffffffffffffffffffffffff166370a08231336040518263ffffffff1660e01b8152600401610b209190611651565b602060405180830381865afa158015610b3d573d6000803e3d6000fd5b505050506040513d601f19601f82011682018060405250810190610b6191906115cd565b90506064818860ff16610b74919061136e565b610b7e919061144d565b9350600080610b8e8c8c8c61046a565b915091508373ffffffffffffffffffffffffffffffffffffffff166318160ddd6040518163ffffffff1660e01b8152600401602060405180830381865afa158015610bdd573d6000803e3d6000fd5b505050506040513d601f19601f82011682018060405250810190610c0191906115cd565b8287610c0d919061136e565b610c17919061144d565b97508373ffffffffffffffffffffffffffffffffffffffff166318160ddd6040518163ffffffff1660e01b8152600401602060405180830381865afa158015610c64573d6000803e3d6000fd5b505050506040513d601f19601f82011682018060405250810190610c8891906115cd565b8187610c94919061136e565b610c9e919061144d565b965050505050509450945094915050565b60008373ffffffffffffffffffffffffffffffffffffffff166369454b8684846040518363ffffffff1660e01b8152600401610cec92919061166c565b602060405180830381865afa158015610d09573d6000803e3d6000fd5b505050506040513d601f19601f82011682018060405250810190610d2d919061158b565b90509392505050565b6000604051905090565b600080fd5b600080fd5b6000819050919050565b610d5d81610d4a565b8114610d6857600080fd5b50565b600081359050610d7a81610d54565b92915050565b600080600060608486031215610d9957610d98610d40565b5b6000610da786828701610d6b565b9350506020610db886828701610d6b565b9250506040610dc986828701610d6b565b9150509250925092565b610ddc81610d4a565b82525050565b6000602082019050610df76000830184610dd3565b92915050565b600073ffffffffffffffffffffffffffffffffffffffff82169050919050565b6000610e2882610dfd565b9050919050565b610e3881610e1d565b8114610e4357600080fd5b50565b600081359050610e5581610e2f565b92915050565b600080fd5b6000601f19601f8301169050919050565b7f4e487b7100000000000000000000000000000000000000000000000000000000600052604160045260246000fd5b610ea982610e60565b810181811067ffffffffffffffff82111715610ec857610ec7610e71565b5b80604052505050565b6000610edb610d36565b9050610ee78282610ea0565b919050565b600067ffffffffffffffff821115610f0757610f06610e71565b5b602082029050602081019050919050565b600080fd5b6000610f30610f2b84610eec565b610ed1565b90508083825260208201905060208402830185811115610f5357610f52610f18565b5b835b81811015610f7c5780610f688882610e46565b845260208401935050602081019050610f55565b5050509392505050565b600082601f830112610f9b57610f9a610e5b565b5b8135610fab848260208601610f1d565b91505092915050565b600080600060608486031215610fcd57610fcc610d40565b5b6000610fdb86828701610e46565b9350506020610fec86828701610d6b565b925050604084013567ffffffffffffffff81111561100d5761100c610d45565b5b61101986828701610f86565b9150509250925092565b600081519050919050565b600082825260208201905092915050565b6000819050602082019050919050565b61105881610d4a565b82525050565b600061106a838361104f565b60208301905092915050565b6000602082019050919050565b600061108e82611023565b611098818561102e565b93506110a38361103f565b8060005b838110156110d45781516110bb888261105e565b97506110c683611076565b9250506001810190506110a7565b5085935050505092915050565b600060208201905081810360008301526110fb8184611083565b905092915050565b60008060006060848603121561111c5761111b610d40565b5b600061112a86828701610e46565b935050602061113b86828701610e46565b925050604061114c86828701610e46565b9150509250925092565b600060408201905061116b6000830185610dd3565b6111786020830184610dd3565b9392505050565b600060ff82169050919050565b6111958161117f565b81146111a057600080fd5b50565b6000813590506111b28161118c565b92915050565b600080600080608085870312156111d2576111d1610d40565b5b60006111e087828801610e46565b94505060206111f187828801610e46565b935050604061120287828801610e46565b9250506060611213878288016111a3565b91505092959194509250565b60006060820190506112346000830186610dd3565b6112416020830185610dd3565b61124e6040830184610dd3565b949350505050565b600082825260208201905092915050565b7f496e73756666696369656e7420616d6f756e7400000000000000000000000000600082015250565b600061129d601383611256565b91506112a882611267565b602082019050919050565b600060208201905081810360008301526112cc81611290565b9050919050565b7f496e73756666696369656e74206c697175696469747900000000000000000000600082015250565b6000611309601683611256565b9150611314826112d3565b602082019050919050565b60006020820190508181036000830152611338816112fc565b9050919050565b7f4e487b7100000000000000000000000000000000000000000000000000000000600052601160045260246000fd5b600061137982610d4a565b915061138483610d4a565b9250817fffffffffffffffffffffffffffffffffffffffffffffffffffffffffffffffff04831182151516156113bd576113bc61133f565b5b828202905092915050565b60006113d382610d4a565b91506113de83610d4a565b9250827fffffffffffffffffffffffffffffffffffffffffffffffffffffffffffffffff038211156114135761141261133f565b5b828201905092915050565b7f4e487b7100000000000000000000000000000000000000000000000000000000600052601260045260246000fd5b600061145882610d4a565b915061146383610d4a565b9250826114735761147261141e565b5b828204905092915050565b7f496e76616c696420706174680000000000000000000000000000000000000000600082015250565b60006114b4600c83611256565b91506114bf8261147e565b602082019050919050565b600060208201905081810360008301526114e3816114a7565b9050919050565b60006114f582610d4a565b915061150083610d4a565b9250828210156115135761151261133f565b5b828203905092915050565b7f4e487b7100000000000000000000000000000000000000000000000000000000600052603260045260246000fd5b600061155882610d4a565b91506000820361156b5761156a61133f565b5b600182039050919050565b60008151905061158581610e2f565b92915050565b6000602082840312156115a1576115a0610d40565b5b60006115af84828501611576565b91505092915050565b6000815190506115c781610d54565b92915050565b6000602082840312156115e3576115e2610d40565b5b60006115f1848285016115b8565b91505092915050565b600061160582610d4a565b91507fffffffffffffffffffffffffffffffffffffffffffffffffffffffffffffffff82036116375761163661133f565b5b600182019050919050565b61164b81610e1d565b82525050565b60006020820190506116666000830184611642565b92915050565b60006040820190506116816000830185611642565b61168e6020830184611642565b939250505056fea2646970667358221220306e7ec5717566c87bd70bb1a80e2b8c140a0bf3be72406aff87df17428f309b64736f6c634300080f0033",
  "immutableReferences": {},
  "source": "// SPDX-License-Identifier: MIT\npragma solidity ^0.8.15;\n\nimport \"./Factory.sol\";\n\nlibrary Library {\n  function getReserves(\n    address factoryAddress,\n    address tokenA,\n    address tokenB\n  ) public view returns (\n    uint256 reserveA, \n    uint256 reserveB\n  ) {\n    address pairAddress = pairFor(factoryAddress, tokenA, tokenB);\n    Pair pair = Pair(pairAddress);\n    \n    reserveA = pair.token0() == tokenA ? pair.reserve0() : pair.reserve1();\n    reserveB = pair.token0() == tokenA ? pair.reserve1() : pair.reserve0();\n  }\n\n  function quote(\n    uint256 amountIn,\n    uint256 reserveIn,\n    uint256 reserveOut\n  ) public pure returns (uint256 amountOut) {\n    if (amountIn == 0) {\n      revert('Insufficient amount');\n    }\n\n    if (reserveIn == 0 || reserveOut == 0) {\n      revert('Insufficient liquidity');\n    }\n\n    return (amountIn * reserveOut) / reserveIn;\n  }\n\n  function quoteBeforeRemovingLiquidity(\n    address factoryAddress,\n    address tokenA,\n    address tokenB,\n    uint8 percentageToRemove\n  ) public view returns (\n    uint256 amountA, \n    uint256 amountB,\n    uint256 lpTokensToRemove\n  ) {\n    address pairAddress = pairFor(factoryAddress, tokenA, tokenB);\n    Pair pair = Pair(pairAddress);\n    \n    uint256 liquidity = pair.balanceOf(msg.sender);\n    lpTokensToRemove = percentageToRemove * liquidity / 100;\n\n    (uint256 reserveA, uint256 reserveB) = getReserves(factoryAddress, tokenA, tokenB);\n\n    amountA = (lpTokensToRemove * reserveA) / pair.totalSupply();\n    amountB = (lpTokensToRemove * reserveB) / pair.totalSupply();\n  }\n\n  function getAmountOut(\n    uint256 amountIn,\n    uint256 reserveIn,\n    uint256 reserveOut\n  ) public pure returns (uint256) {\n    if (amountIn == 0) {\n      revert('Insufficient amount');\n    }\n\n    if (reserveIn == 0 || reserveOut == 0) {\n      revert('Insufficient liquidity');\n    }\n\n    // apply 0.3% fee\n    uint256 amountInWithFee = amountIn * 997;\n    uint256 numerator = amountInWithFee * reserveOut;\n    uint256 denominator = (reserveIn * 1000) + amountInWithFee;\n\n    return numerator / denominator;\n  }\n\n  function getAmountsOut(\n    address factory,\n    uint256 amountIn,\n    address[] memory path\n  ) public view returns (uint256[] memory) {\n    if (path.length < 2) {\n      revert('Invalid path');\n    }\n\n    uint256[] memory amountsOut = new uint256[](path.length);\n    amountsOut[0] = amountIn;\n\n    for (uint256 i; i < path.length - 1; i++) {\n      (uint256 reserve0, uint256 reserve1) = getReserves(\n        factory,\n        path[i],\n        path[i + 1]\n      );\n    \n      amountsOut[i + 1] = getAmountOut(amountsOut[i], reserve0, reserve1);\n    }\n\n    return amountsOut;\n  }\n\n  function getAmountIn(\n    uint256 amountOut,\n    uint256 reserveIn,\n    uint256 reserveOut\n  ) public pure returns (uint256) {\n    if (amountOut == 0) {\n      revert('Insufficient amount');\n    }\n\n    if (reserveIn == 0 || reserveOut == 0) {\n      revert('Insufficient liquidity');\n    }\n\n    // apply 0.3% fee\n    uint256 numerator = reserveIn * amountOut * 1000;\n    uint256 denominator = (reserveOut - amountOut) * 997;\n\n    // add 1 to handle truncated result\n    return (numerator / denominator) + 1;\n  }\n\n  function getAmountsIn(\n    address factory,\n    uint256 amountOut,\n    address[] memory path\n  ) public view returns (uint256[] memory) {\n    if (path.length < 2) {\n      revert('Invalid path');\n    }\n\n    uint256[] memory amountsIn = new uint256[](path.length);\n    amountsIn[amountsIn.length - 1] = amountOut;\n\n    for (uint256 i = path.length - 1; i > 0; i--) {\n      (uint256 reserve0, uint256 reserve1) = getReserves(\n        factory,\n        path[i - 1],\n        path[i]\n      );\n    \n      amountsIn[i - 1] = getAmountIn(amountsIn[i], reserve0, reserve1);\n    }\n\n    return amountsIn;\n  }\n\n  function pairFor(\n    address factoryAddress,\n    address tokenA,\n    address tokenB\n  ) internal view returns (address pairAddress) {\n    pairAddress = Factory(factoryAddress).pairs(tokenA, tokenB);\n  }\n}\n",
  "sourcePath": "/Users/lambros/Downloads/my-crypto-exchange/contracts/Library.sol",
  "compiler": {
    "name": "solc",
    "version": "0.8.15+commit.e14f2714.Emscripten.clang"
  },
  "schemaVersion": "3.4.8",
  "updatedAt": "2022-09-18T16:25:47.137Z",
  "networkType": "ethereum",
  "devdoc": {
    "kind": "dev",
    "methods": {},
    "version": 1
  },
  "userdoc": {
    "kind": "user",
    "methods": {},
    "version": 1
  }
}