{
  "contractName": "Router",
  "abi": [
    {
      "inputs": [
        {
          "internalType": "address",
          "name": "factoryAddress",
          "type": "address"
        }
      ],
      "stateMutability": "nonpayable",
      "type": "constructor"
    },
    {
      "inputs": [
        {
          "internalType": "address",
          "name": "tokenA",
          "type": "address"
        },
        {
          "internalType": "address",
          "name": "tokenB",
          "type": "address"
        },
        {
          "internalType": "uint256",
          "name": "amountADesired",
          "type": "uint256"
        },
        {
          "internalType": "uint256",
          "name": "amountBDesired",
          "type": "uint256"
        },
        {
          "internalType": "uint256",
          "name": "amountAMin",
          "type": "uint256"
        },
        {
          "internalType": "uint256",
          "name": "amountBMin",
          "type": "uint256"
        },
        {
          "internalType": "address",
          "name": "to",
          "type": "address"
        }
      ],
      "name": "addLiquidity",
      "outputs": [
        {
          "internalType": "uint256",
          "name": "amountA",
          "type": "uint256"
        },
        {
          "internalType": "uint256",
          "name": "amountB",
          "type": "uint256"
        },
        {
          "internalType": "uint256",
          "name": "liquidity",
          "type": "uint256"
        }
      ],
      "stateMutability": "nonpayable",
      "type": "function"
    },
    {
      "inputs": [
        {
          "internalType": "address",
          "name": "tokenA",
          "type": "address"
        },
        {
          "internalType": "address",
          "name": "tokenB",
          "type": "address"
        },
        {
          "internalType": "uint256",
          "name": "liquidity",
          "type": "uint256"
        },
        {
          "internalType": "uint256",
          "name": "amountAMin",
          "type": "uint256"
        },
        {
          "internalType": "uint256",
          "name": "amountBMin",
          "type": "uint256"
        },
        {
          "internalType": "address",
          "name": "to",
          "type": "address"
        }
      ],
      "name": "removeLiquidity",
      "outputs": [
        {
          "internalType": "uint256",
          "name": "amountA",
          "type": "uint256"
        },
        {
          "internalType": "uint256",
          "name": "amountB",
          "type": "uint256"
        }
      ],
      "stateMutability": "nonpayable",
      "type": "function"
    },
    {
      "inputs": [
        {
          "internalType": "uint256",
          "name": "amountIn",
          "type": "uint256"
        },
        {
          "internalType": "uint256",
          "name": "amountOutMin",
          "type": "uint256"
        },
        {
          "internalType": "address[]",
          "name": "path",
          "type": "address[]"
        },
        {
          "internalType": "address",
          "name": "to",
          "type": "address"
        }
      ],
      "name": "swapExactTokensForTokens",
      "outputs": [
        {
          "internalType": "uint256[]",
          "name": "amounts",
          "type": "uint256[]"
        }
      ],
      "stateMutability": "nonpayable",
      "type": "function"
    },
    {
      "inputs": [
        {
          "internalType": "uint256",
          "name": "amountOut",
          "type": "uint256"
        },
        {
          "internalType": "uint256",
          "name": "amountInMax",
          "type": "uint256"
        },
        {
          "internalType": "address[]",
          "name": "path",
          "type": "address[]"
        },
        {
          "internalType": "address",
          "name": "to",
          "type": "address"
        }
      ],
      "name": "swapTokensForExactTokens",
      "outputs": [
        {
          "internalType": "uint256[]",
          "name": "amounts",
          "type": "uint256[]"
        }
      ],
      "stateMutability": "nonpayable",
      "type": "function"
    }
  ],
  "bytecode": "0x60806040523480156200001157600080fd5b5060405162001def38038062001def8339818101604052810190620000379190620000e8565b806000806101000a81548173ffffffffffffffffffffffffffffffffffffffff021916908373ffffffffffffffffffffffffffffffffffffffff160217905550506200011a565b600080fd5b600073ffffffffffffffffffffffffffffffffffffffff82169050919050565b6000620000b08262000083565b9050919050565b620000c281620000a3565b8114620000ce57600080fd5b50565b600081519050620000e281620000b7565b92915050565b6000602082840312156200010157620001006200007e565b5b60006200011184828501620000d1565b91505092915050565b611cc5806200012a6000396000f3fe608060405234801561001057600080fd5b506004361061004c5760003560e01c806342712a6714610051578063472b43f314610081578063c0e3ee6b146100b1578063ca3d6539146100e2575b600080fd5b61006b60048036038101906100669190611102565b610114565b6040516100789190611248565b60405180910390f35b61009b60048036038101906100969190611102565b6103b8565b6040516100a89190611248565b60405180910390f35b6100cb60048036038101906100c6919061126a565b61065c565b6040516100d9929190611306565b60405180910390f35b6100fc60048036038101906100f7919061132f565b6107a5565b60405161010b939291906113d1565b60405180910390f35b606073__Library_______________________________63192128b260008054906101000a900473ffffffffffffffffffffffffffffffffffffffff168887876040518563ffffffff1660e01b815260040161017394939291906114e9565b600060405180830381865af4158015610190573d6000803e3d6000fd5b505050506040513d6000823e3d601f19601f820116820180604052508101906101b9919061168d565b90508481600183516101cb9190611705565b815181106101dc576101db611739565b5b60200260200101511115610225576040517f08c379a000000000000000000000000000000000000000000000000000000000815260040161021c906117c5565b60405180910390fd5b8383600081811061023957610238611739565b5b905060200201602081019061024e91906117e5565b73ffffffffffffffffffffffffffffffffffffffff166323b872dd336102e560008054906101000a900473ffffffffffffffffffffffffffffffffffffffff16888860008181106102a2576102a1611739565b5b90506020020160208101906102b791906117e5565b898960018181106102cb576102ca611739565b5b90506020020160208101906102e091906117e5565b610a51565b846000815181106102f9576102f8611739565b5b60200260200101516040518463ffffffff1660e01b815260040161031f93929190611821565b6020604051808303816000875af115801561033e573d6000803e3d6000fd5b505050506040513d601f19601f820116820180604052508101906103629190611890565b506103af81858580806020026020016040519081016040528093929190818152602001838360200280828437600081840152601f19601f8201169050808301925050505050505084610ad8565b95945050505050565b606073__Library_______________________________63bb7b9c7660008054906101000a900473ffffffffffffffffffffffffffffffffffffffff168887876040518563ffffffff1660e01b815260040161041794939291906114e9565b600060405180830381865af4158015610434573d6000803e3d6000fd5b505050506040513d6000823e3d601f19601f8201168201806040525081019061045d919061168d565b905084816001835161046f9190611705565b815181106104805761047f611739565b5b602002602001015110156104c9576040517f08c379a00000000000000000000000000000000000000000000000000000000081526004016104c090611909565b60405180910390fd5b838360008181106104dd576104dc611739565b5b90506020020160208101906104f291906117e5565b73ffffffffffffffffffffffffffffffffffffffff166323b872dd3361058960008054906101000a900473ffffffffffffffffffffffffffffffffffffffff168888600081811061054657610545611739565b5b905060200201602081019061055b91906117e5565b8989600181811061056f5761056e611739565b5b905060200201602081019061058491906117e5565b610a51565b8460008151811061059d5761059c611739565b5b60200260200101516040518463ffffffff1660e01b81526004016105c393929190611821565b6020604051808303816000875af11580156105e2573d6000803e3d6000fd5b505050506040513d601f19601f820116820180604052508101906106069190611890565b5061065381858580806020026020016040519081016040528093929190818152602001838360200280828437600081840152601f19601f8201169050808301925050505050505084610ad8565b95945050505050565b600080600061068c60008054906101000a900473ffffffffffffffffffffffffffffffffffffffff168a8a610a51565b90508073ffffffffffffffffffffffffffffffffffffffff16639dc29fac85896040518363ffffffff1660e01b81526004016106c9929190611929565b60408051808303816000875af11580156106e7573d6000803e3d6000fd5b505050506040513d601f19601f8201168201806040525081019061070b9190611952565b809350819450505085831015610756576040517f08c379a000000000000000000000000000000000000000000000000000000000815260040161074d906119de565b60405180910390fd5b84821015610799576040517f08c379a000000000000000000000000000000000000000000000000000000000815260040161079090611a4a565b60405180910390fd5b50965096945050505050565b6000806000806107d660008054906101000a900473ffffffffffffffffffffffffffffffffffffffff168c8c610a51565b9050600073ffffffffffffffffffffffffffffffffffffffff168173ffffffffffffffffffffffffffffffffffffffff16036108ad5760008054906101000a900473ffffffffffffffffffffffffffffffffffffffff1673ffffffffffffffffffffffffffffffffffffffff1663c9c653968c8c6040518363ffffffff1660e01b8152600401610867929190611a6a565b6020604051808303816000875af1158015610886573d6000803e3d6000fd5b505050506040513d601f19601f820116820180604052508101906108aa9190611aa8565b90505b6108bb8b8b8b8b8b8b610d66565b80945081955050508a73ffffffffffffffffffffffffffffffffffffffff166323b872dd3383876040518463ffffffff1660e01b815260040161090093929190611821565b6020604051808303816000875af115801561091f573d6000803e3d6000fd5b505050506040513d601f19601f820116820180604052508101906109439190611890565b508973ffffffffffffffffffffffffffffffffffffffff166323b872dd3383866040518463ffffffff1660e01b815260040161098193929190611821565b6020604051808303816000875af11580156109a0573d6000803e3d6000fd5b505050506040513d601f19601f820116820180604052508101906109c49190611890565b508073ffffffffffffffffffffffffffffffffffffffff16636a627842866040518263ffffffff1660e01b81526004016109fe9190611ad5565b6020604051808303816000875af1158015610a1d573d6000803e3d6000fd5b505050506040513d601f19601f82011682018060405250810190610a419190611af0565b9150509750975097945050505050565b60008373ffffffffffffffffffffffffffffffffffffffff166369454b8684846040518363ffffffff1660e01b8152600401610a8e929190611a6a565b602060405180830381865afa158015610aab573d6000803e3d6000fd5b505050506040513d601f19601f82011682018060405250810190610acf9190611aa8565b90509392505050565b60005b60018351610ae99190611705565b811015610d6057600080848381518110610b0657610b05611739565b5b602002602001015185600185610b1c9190611b1d565b81518110610b2d57610b2c611739565b5b6020026020010151915091506000610b6660008054906101000a900473ffffffffffffffffffffffffffffffffffffffff168484610a51565b90506000808273ffffffffffffffffffffffffffffffffffffffff16630dfe16816040518163ffffffff1660e01b8152600401602060405180830381865afa158015610bb6573d6000803e3d6000fd5b505050506040513d601f19601f82011682018060405250810190610bda9190611aa8565b73ffffffffffffffffffffffffffffffffffffffff168573ffffffffffffffffffffffffffffffffffffffff1614610c3a5788600187610c1a9190611b1d565b81518110610c2b57610c2a611739565b5b60200260200101516000610c64565b600089600188610c4a9190611b1d565b81518110610c5b57610c5a611739565b5b60200260200101515b91509150600060028951610c789190611705565b8710610c845787610cd6565b610cd560008054906101000a900473ffffffffffffffffffffffffffffffffffffffff16868b60028b610cb79190611b1d565b81518110610cc857610cc7611739565b5b6020026020010151610a51565b5b90508373ffffffffffffffffffffffffffffffffffffffff16636d9a640a8484846040518463ffffffff1660e01b8152600401610d1593929190611b73565b600060405180830381600087803b158015610d2f57600080fd5b505af1158015610d43573d6000803e3d6000fd5b505050505050505050508080610d5890611baa565b915050610adb565b50505050565b60008060008073__Library_______________________________633274946160008054906101000a900473ffffffffffffffffffffffffffffffffffffffff168c8c6040518463ffffffff1660e01b8152600401610dc793929190611bf2565b6040805180830381865af4158015610de3573d6000803e3d6000fd5b505050506040513d601f19601f82011682018060405250810190610e079190611952565b91509150600082148015610e1b5750600081145b15610e2f5787878094508195505050610fe8565b600073__Library_______________________________63ad615dec8a85856040518463ffffffff1660e01b8152600401610e6c93929190611c29565b602060405180830381865af4158015610e89573d6000803e3d6000fd5b505050506040513d601f19601f82011682018060405250810190610ead9190611af0565b9050878111610f0757858111610ef8576040517f08c379a0000000000000000000000000000000000000000000000000000000008152600401610eef90611a4a565b60405180910390fd5b88818095508196505050610fe6565b600073__Library_______________________________63ad615dec8a85876040518463ffffffff1660e01b8152600401610f4493929190611c29565b602060405180830381865af4158015610f61573d6000803e3d6000fd5b505050506040513d601f19601f82011682018060405250810190610f859190611af0565b905089811115610f9857610f97611c60565b5b878111610fda576040517f08c379a0000000000000000000000000000000000000000000000000000000008152600401610fd1906119de565b60405180910390fd5b80898096508197505050505b505b5050965096945050505050565b6000604051905090565b600080fd5b600080fd5b6000819050919050565b61101c81611009565b811461102757600080fd5b50565b60008135905061103981611013565b92915050565b600080fd5b600080fd5b600080fd5b60008083601f8401126110645761106361103f565b5b8235905067ffffffffffffffff81111561108157611080611044565b5b60208301915083602082028301111561109d5761109c611049565b5b9250929050565b600073ffffffffffffffffffffffffffffffffffffffff82169050919050565b60006110cf826110a4565b9050919050565b6110df816110c4565b81146110ea57600080fd5b50565b6000813590506110fc816110d6565b92915050565b60008060008060006080868803121561111e5761111d610fff565b5b600061112c8882890161102a565b955050602061113d8882890161102a565b945050604086013567ffffffffffffffff81111561115e5761115d611004565b5b61116a8882890161104e565b9350935050606061117d888289016110ed565b9150509295509295909350565b600081519050919050565b600082825260208201905092915050565b6000819050602082019050919050565b6111bf81611009565b82525050565b60006111d183836111b6565b60208301905092915050565b6000602082019050919050565b60006111f58261118a565b6111ff8185611195565b935061120a836111a6565b8060005b8381101561123b57815161122288826111c5565b975061122d836111dd565b92505060018101905061120e565b5085935050505092915050565b6000602082019050818103600083015261126281846111ea565b905092915050565b60008060008060008060c0878903121561128757611286610fff565b5b600061129589828a016110ed565b96505060206112a689828a016110ed565b95505060406112b789828a0161102a565b94505060606112c889828a0161102a565b93505060806112d989828a0161102a565b92505060a06112ea89828a016110ed565b9150509295509295509295565b61130081611009565b82525050565b600060408201905061131b60008301856112f7565b61132860208301846112f7565b9392505050565b600080600080600080600060e0888a03121561134e5761134d610fff565b5b600061135c8a828b016110ed565b975050602061136d8a828b016110ed565b965050604061137e8a828b0161102a565b955050606061138f8a828b0161102a565b94505060806113a08a828b0161102a565b93505060a06113b18a828b0161102a565b92505060c06113c28a828b016110ed565b91505092959891949750929550565b60006060820190506113e660008301866112f7565b6113f360208301856112f7565b61140060408301846112f7565b949350505050565b611411816110c4565b82525050565b61142081611009565b82525050565b600082825260208201905092915050565b6000819050919050565b61144a816110c4565b82525050565b600061145c8383611441565b60208301905092915050565b600061147760208401846110ed565b905092915050565b6000602082019050919050565b60006114988385611426565b93506114a382611437565b8060005b858110156114dc576114b98284611468565b6114c38882611450565b97506114ce8361147f565b9250506001810190506114a7565b5085925050509392505050565b60006060820190506114fe6000830187611408565b61150b6020830186611417565b818103604083015261151e81848661148c565b905095945050505050565b6000601f19601f8301169050919050565b7f4e487b7100000000000000000000000000000000000000000000000000000000600052604160045260246000fd5b61157282611529565b810181811067ffffffffffffffff821117156115915761159061153a565b5b80604052505050565b60006115a4610ff5565b90506115b08282611569565b919050565b600067ffffffffffffffff8211156115d0576115cf61153a565b5b602082029050602081019050919050565b6000815190506115f081611013565b92915050565b6000611609611604846115b5565b61159a565b9050808382526020820190506020840283018581111561162c5761162b611049565b5b835b81811015611655578061164188826115e1565b84526020840193505060208101905061162e565b5050509392505050565b600082601f8301126116745761167361103f565b5b81516116848482602086016115f6565b91505092915050565b6000602082840312156116a3576116a2610fff565b5b600082015167ffffffffffffffff8111156116c1576116c0611004565b5b6116cd8482850161165f565b91505092915050565b7f4e487b7100000000000000000000000000000000000000000000000000000000600052601160045260246000fd5b600061171082611009565b915061171b83611009565b92508282101561172e5761172d6116d6565b5b828203905092915050565b7f4e487b7100000000000000000000000000000000000000000000000000000000600052603260045260246000fd5b600082825260208201905092915050565b7f45786365737369766520696e70757420616d6f756e7400000000000000000000600082015250565b60006117af601683611768565b91506117ba82611779565b602082019050919050565b600060208201905081810360008301526117de816117a2565b9050919050565b6000602082840312156117fb576117fa610fff565b5b6000611809848285016110ed565b91505092915050565b61181b816110c4565b82525050565b60006060820190506118366000830186611812565b6118436020830185611812565b61185060408301846112f7565b949350505050565b60008115159050919050565b61186d81611858565b811461187857600080fd5b50565b60008151905061188a81611864565b92915050565b6000602082840312156118a6576118a5610fff565b5b60006118b48482850161187b565b91505092915050565b7f496e73756666696369656e74206f757470757420616d6f756e74000000000000600082015250565b60006118f3601a83611768565b91506118fe826118bd565b602082019050919050565b60006020820190508181036000830152611922816118e6565b9050919050565b600060408201905061193e6000830185611812565b61194b60208301846112f7565b9392505050565b6000806040838503121561196957611968610fff565b5b6000611977858286016115e1565b9250506020611988858286016115e1565b9150509250929050565b7f496e73756666696369656e74204120616d6f756e740000000000000000000000600082015250565b60006119c8601583611768565b91506119d382611992565b602082019050919050565b600060208201905081810360008301526119f7816119bb565b9050919050565b7f496e73756666696369656e74204220616d6f756e740000000000000000000000600082015250565b6000611a34601583611768565b9150611a3f826119fe565b602082019050919050565b60006020820190508181036000830152611a6381611a27565b9050919050565b6000604082019050611a7f6000830185611812565b611a8c6020830184611812565b9392505050565b600081519050611aa2816110d6565b92915050565b600060208284031215611abe57611abd610fff565b5b6000611acc84828501611a93565b91505092915050565b6000602082019050611aea6000830184611812565b92915050565b600060208284031215611b0657611b05610fff565b5b6000611b14848285016115e1565b91505092915050565b6000611b2882611009565b9150611b3383611009565b9250827fffffffffffffffffffffffffffffffffffffffffffffffffffffffffffffffff03821115611b6857611b676116d6565b5b828201905092915050565b6000606082019050611b8860008301866112f7565b611b9560208301856112f7565b611ba26040830184611812565b949350505050565b6000611bb582611009565b91507fffffffffffffffffffffffffffffffffffffffffffffffffffffffffffffffff8203611be757611be66116d6565b5b600182019050919050565b6000606082019050611c076000830186611408565b611c146020830185611408565b611c216040830184611408565b949350505050565b6000606082019050611c3e6000830186611417565b611c4b6020830185611417565b611c586040830184611417565b949350505050565b7f4e487b7100000000000000000000000000000000000000000000000000000000600052600160045260246000fdfea2646970667358221220ace1a9f8a75b02ea52efc64eb3e5cffdf6403749bf2b35a4987a7b1dfb81cba264736f6c634300080f0033",
  "immutableReferences": {},
  "source": "// SPDX-License-Identifier: MIT\npragma solidity ^0.8.15;\n\nimport \"@openzeppelin/contracts/token/ERC20/ERC20.sol\";\nimport \"./Factory.sol\";\nimport \"./Pair.sol\";\nimport \"./Library.sol\";\n\ncontract Router {\n  Factory factory;\n\n  constructor(address factoryAddress) {\n    factory = Factory(factoryAddress);\n  }\n  \n  function addLiquidity(        \n    address tokenA,\n    address tokenB,\n    uint256 amountADesired,\n    uint256 amountBDesired,\n    uint256 amountAMin,\n    uint256 amountBMin,\n    address to\n  ) public returns (\n    uint256 amountA,\n    uint256 amountB,\n    uint256 liquidity\n  ) {\n    address pairAddress = Library.pairFor(address(factory), tokenA, tokenB);\n\n    if (pairAddress == address(0)) {\n      pairAddress = factory.createPair(tokenA, tokenB);\n    }\n\n    (amountA, amountB) = calculateLiquidity(\n      tokenA,\n      tokenB,\n      amountADesired,\n      amountBDesired,\n      amountAMin,\n      amountBMin\n    );\n        \n    ERC20(tokenA).transferFrom(msg.sender, pairAddress, amountA);\n    ERC20(tokenB).transferFrom(msg.sender, pairAddress, amountB);\n    liquidity = Pair(pairAddress).mint(to);\n  }\n\n  function removeLiquidity(        \n    address tokenA,\n    address tokenB,\n    uint256 liquidity,\n    uint256 amountAMin,\n    uint256 amountBMin,\n    address to\n  ) public returns (\n    uint256 amountA,\n    uint256 amountB\n  ) {\n    address pairAddress = Library.pairFor(address(factory), tokenA, tokenB);\n        \n    (amountA, amountB) = Pair(pairAddress).burn(to, liquidity);\n    \n    if (amountA < amountAMin) {\n      revert('Insufficient A amount');\n    }\n\n    if (amountB < amountBMin) {\n      revert('Insufficient B amount');\n    }\n  }\n\n  function swapExactTokensForTokens(\n    uint256 amountIn,\n    uint256 amountOutMin,\n    address[] calldata path,\n    address to\n  ) public returns (uint256[] memory amounts) {\n    amounts = Library.getAmountsOut(\n      address(factory),\n      amountIn,\n      path\n    );\n    \n    if (amounts[amounts.length - 1] < amountOutMin) {\n      revert('Insufficient output amount');\n    }\n            \n    ERC20(path[0]).transferFrom(\n      msg.sender,\n      Library.pairFor(address(factory), path[0], path[1]),\n      amounts[0]\n    );\n        \n    swap(amounts, path, to);\n  }\n\n  function swapTokensForExactTokens(\n    uint256 amountOut,\n    uint256 amountInMax,\n    address[] calldata path,\n    address to\n  ) public returns (uint256[] memory amounts) {\n    amounts = Library.getAmountsIn(\n      address(factory),\n      amountOut,\n      path\n    );\n    \n    if (amounts[amounts.length - 1] > amountInMax) {\n      revert('Excessive input amount');\n    }\n            \n    ERC20(path[0]).transferFrom(\n      msg.sender,\n      Library.pairFor(address(factory), path[0], path[1]),\n      amounts[0]\n    );\n        \n    swap(amounts, path, to);\n  }\n\n  function calculateLiquidity(\n    address tokenA,\n    address tokenB,\n    uint256 amountADesired,\n    uint256 amountBDesired,\n    uint256 amountAMin,\n    uint256 amountBMin\n  ) internal view returns (\n    uint256 amountA, \n    uint256 amountB\n  ) {\n    (uint256 reserveA, uint256 reserveB) = Library.getReserves(address(factory), tokenA, tokenB);\n\n    if (reserveA == 0 && reserveB == 0) {\n      (amountA, amountB) = (amountADesired, amountBDesired);\n    } else {\n      uint256 amountBOptimal = Library.quote(amountADesired, reserveA, reserveB);\n\n      if (amountBOptimal <= amountBDesired) {\n        if (amountBOptimal <= amountBMin) {\n          revert('Insufficient B amount');\n        }\n\n        (amountA, amountB) = (amountADesired, amountBOptimal);\n      } else {\n        uint256 amountAOptimal = Library.quote(amountBDesired, reserveB, reserveA);\n        assert(amountAOptimal <= amountADesired);\n\n        if (amountAOptimal <= amountAMin) {\n          revert('Insufficient A amount');\n        }\n                \n        (amountA, amountB) = (amountAOptimal, amountBDesired);\n      }\n    }\n  }\n\n  function swap(\n    uint256[] memory amounts,\n    address[] memory path,\n    address to\n  ) internal {\n    for (uint256 i; i < path.length - 1; i++) {\n      (address input, address output) = (path[i], path[i + 1]);\n      Pair pair = Pair(Library.pairFor(address(factory), input, output));\n      \n      (uint256 amount0Out, uint256 amount1Out) = input == pair.token0()\n        ? (uint256(0), amounts[i + 1])\n        : (amounts[i + 1], uint256(0));\n\n      address _to = i < path.length - 2\n        ? Library.pairFor(address(factory), output, path[i + 2])\n        : to;\n            \n      pair.swap(amount0Out, amount1Out, _to);\n    }\n  }\n}",
  "sourcePath": "/Users/lambros/Downloads/my-crypto-exchange/contracts/Router.sol",
  "compiler": {
    "name": "solc",
    "version": "0.8.15+commit.e14f2714.Emscripten.clang"
  },
  "schemaVersion": "3.4.8",
  "updatedAt": "2022-09-18T16:25:47.999Z",
  "networkType": "ethereum",
  "devdoc": {
    "kind": "dev",
    "methods": {},
    "version": 1
  },
  "userdoc": {
    "kind": "user",
    "methods": {},
    "version": 1
  }
}