{
  "contractName": "Factory",
  "abi": [
    {
      "anonymous": false,
      "inputs": [
        {
          "indexed": true,
          "internalType": "address",
          "name": "token0",
          "type": "address"
        },
        {
          "indexed": true,
          "internalType": "address",
          "name": "token1",
          "type": "address"
        },
        {
          "indexed": false,
          "internalType": "address",
          "name": "pair",
          "type": "address"
        }
      ],
      "name": "PairCreated",
      "type": "event"
    },
    {
      "inputs": [
        {
          "internalType": "address",
          "name": "",
          "type": "address"
        },
        {
          "internalType": "address",
          "name": "",
          "type": "address"
        }
      ],
      "name": "pairs",
      "outputs": [
        {
          "internalType": "address",
          "name": "",
          "type": "address"
        }
      ],
      "stateMutability": "view",
      "type": "function",
      "constant": true
    },
    {
      "inputs": [
        {
          "internalType": "address",
          "name": "tokenA",
          "type": "address"
        },
        {
          "internalType": "address",
          "name": "tokenB",
          "type": "address"
        }
      ],
      "name": "createPair",
      "outputs": [
        {
          "internalType": "address",
          "name": "pair",
          "type": "address"
        }
      ],
      "stateMutability": "nonpayable",
      "type": "function"
    }
  ],
  "bytecode": "0x608060405234801561001057600080fd5b50610883806100206000396000f3fe608060405234801561001057600080fd5b50600436106100365760003560e01c806369454b861461003b578063c9c653961461006b575b600080fd5b610055600480360381019061005091906105f3565b61009b565b6040516100629190610642565b60405180910390f35b610085600480360381019061008091906105f3565b6100dd565b6040516100929190610642565b60405180910390f35b60006020528160005260406000206020528060005260406000206000915091509054906101000a900473ffffffffffffffffffffffffffffffffffffffff1681565b60008173ffffffffffffffffffffffffffffffffffffffff168373ffffffffffffffffffffffffffffffffffffffff160361014d576040517f08c379a0000000000000000000000000000000000000000000000000000000008152600401610144906106e0565b60405180910390fd5b600073ffffffffffffffffffffffffffffffffffffffff168373ffffffffffffffffffffffffffffffffffffffff1614806101b45750600073ffffffffffffffffffffffffffffffffffffffff168273ffffffffffffffffffffffffffffffffffffffff16145b156101f4576040517f08c379a00000000000000000000000000000000000000000000000000000000081526004016101eb90610772565b60405180910390fd5b6000808373ffffffffffffffffffffffffffffffffffffffff168573ffffffffffffffffffffffffffffffffffffffff1610610231578385610234565b84845b91509150600073ffffffffffffffffffffffffffffffffffffffff166000808473ffffffffffffffffffffffffffffffffffffffff1673ffffffffffffffffffffffffffffffffffffffff16815260200190815260200160002060008373ffffffffffffffffffffffffffffffffffffffff1673ffffffffffffffffffffffffffffffffffffffff16815260200190815260200160002060009054906101000a900473ffffffffffffffffffffffffffffffffffffffff1673ffffffffffffffffffffffffffffffffffffffff1614610342576040517f08c379a000000000000000000000000000000000000000000000000000000000815260040161033990610804565b60405180910390fd5b8273ffffffffffffffffffffffffffffffffffffffff1663485cc95583836040518363ffffffff1660e01b815260040161037d929190610824565b600060405180830381600087803b15801561039757600080fd5b505af11580156103ab573d6000803e3d6000fd5b50505050826000808473ffffffffffffffffffffffffffffffffffffffff1673ffffffffffffffffffffffffffffffffffffffff16815260200190815260200160002060008373ffffffffffffffffffffffffffffffffffffffff1673ffffffffffffffffffffffffffffffffffffffff16815260200190815260200160002060006101000a81548173ffffffffffffffffffffffffffffffffffffffff021916908373ffffffffffffffffffffffffffffffffffffffff160217905550826000808373ffffffffffffffffffffffffffffffffffffffff1673ffffffffffffffffffffffffffffffffffffffff16815260200190815260200160002060008473ffffffffffffffffffffffffffffffffffffffff1673ffffffffffffffffffffffffffffffffffffffff16815260200190815260200160002060006101000a81548173ffffffffffffffffffffffffffffffffffffffff021916908373ffffffffffffffffffffffffffffffffffffffff1602179055508073ffffffffffffffffffffffffffffffffffffffff168273ffffffffffffffffffffffffffffffffffffffff167fa92a2b95c8d8436f6ac4c673c61487364f877efb9534d4296fad8ef904546c94856040516105809190610642565b60405180910390a3505092915050565b600080fd5b600073ffffffffffffffffffffffffffffffffffffffff82169050919050565b60006105c082610595565b9050919050565b6105d0816105b5565b81146105db57600080fd5b50565b6000813590506105ed816105c7565b92915050565b6000806040838503121561060a57610609610590565b5b6000610618858286016105de565b9250506020610629858286016105de565b9150509250929050565b61063c816105b5565b82525050565b60006020820190506106576000830184610633565b92915050565b600082825260208201905092915050565b7f546f6b656e732073686f756c64206861766520646966666572656e742061646460008201527f7265737365730000000000000000000000000000000000000000000000000000602082015250565b60006106ca60268361065d565b91506106d58261066e565b604082019050919050565b600060208201905081810360008301526106f9816106bd565b9050919050565b7f546f6b656e732073686f756c642068617665206e6f6e2d7a65726f206164647260008201527f6573736573000000000000000000000000000000000000000000000000000000602082015250565b600061075c60258361065d565b915061076782610700565b604082019050919050565b6000602082019050818103600083015261078b8161074f565b9050919050565b7f5061697220616c72656164792065786973747320666f7220746865736520746f60008201527f6b656e7300000000000000000000000000000000000000000000000000000000602082015250565b60006107ee60248361065d565b91506107f982610792565b604082019050919050565b6000602082019050818103600083015261081d816107e1565b9050919050565b60006040820190506108396000830185610633565b6108466020830184610633565b939250505056fea26469706673582212201331cd6a9b65e0706ffced9eee1bef168e88b5579bcf10235382940b4586b5cf64736f6c634300080f0033",
  "immutableReferences": {},
  "source": "// SPDX-License-Identifier: MIT\npragma solidity ^0.8.15;\n\nimport \"./Pair.sol\";\n\ncontract Factory {\n  event PairCreated(address indexed token0, address indexed token1, address pair);\n  \n  mapping(address => mapping(address => address)) public pairs;\n\n  function createPair(address tokenA, address tokenB) public returns (address pair) {\n    if (tokenA == tokenB) {\n      revert('Tokens should have different addresses');\n    }\n\n    if (tokenA == address(0) || tokenB == address(0)) {\n      revert('Tokens should have non-zero addresses');\n    }\n    \n    (address token0, address token1) = tokenA < tokenB ? (tokenA, tokenB) : (tokenB, tokenA);\n\n    if (pairs[token0][token1] != address(0)) {\n      revert('Pair already exists for these tokens');\n    }\n\n    Pair(pair).initialize(token0, token1);\n    pairs[token0][token1] = pair;\n    pairs[token1][token0] = pair;\n\n    emit PairCreated(token0, token1, pair);\n  }\n}",
  "sourcePath": "/Users/lambros/Downloads/my-crypto-exchange/contracts/Factory.sol",
  "compiler": {
    "name": "solc",
    "version": "0.8.15+commit.e14f2714.Emscripten.clang"
  },
  "schemaVersion": "3.4.8",
  "updatedAt": "2022-08-28T10:01:54.598Z",
  "networkType": "ethereum",
  "devdoc": {
    "kind": "dev",
    "methods": {},
    "version": 1
  },
  "userdoc": {
    "kind": "user",
    "methods": {},
    "version": 1
  }
}