{
  "contractName": "Pair",
  "abi": [
    {
      "inputs": [],
      "stateMutability": "nonpayable",
      "type": "constructor"
    },
    {
      "anonymous": false,
      "inputs": [
        {
          "indexed": true,
          "internalType": "address",
          "name": "owner",
          "type": "address"
        },
        {
          "indexed": true,
          "internalType": "address",
          "name": "spender",
          "type": "address"
        },
        {
          "indexed": false,
          "internalType": "uint256",
          "name": "value",
          "type": "uint256"
        }
      ],
      "name": "Approval",
      "type": "event"
    },
    {
      "anonymous": false,
      "inputs": [
        {
          "indexed": true,
          "internalType": "address",
          "name": "sender",
          "type": "address"
        },
        {
          "indexed": false,
          "internalType": "uint256",
          "name": "amount0",
          "type": "uint256"
        },
        {
          "indexed": false,
          "internalType": "uint256",
          "name": "amount1",
          "type": "uint256"
        },
        {
          "indexed": false,
          "internalType": "uint256",
          "name": "burned",
          "type": "uint256"
        }
      ],
      "name": "Burn",
      "type": "event"
    },
    {
      "anonymous": false,
      "inputs": [
        {
          "indexed": true,
          "internalType": "address",
          "name": "sender",
          "type": "address"
        },
        {
          "indexed": false,
          "internalType": "uint256",
          "name": "amount0",
          "type": "uint256"
        },
        {
          "indexed": false,
          "internalType": "uint256",
          "name": "amount1",
          "type": "uint256"
        },
        {
          "indexed": false,
          "internalType": "uint256",
          "name": "minted",
          "type": "uint256"
        }
      ],
      "name": "Mint",
      "type": "event"
    },
    {
      "anonymous": false,
      "inputs": [
        {
          "indexed": true,
          "internalType": "address",
          "name": "from",
          "type": "address"
        },
        {
          "indexed": true,
          "internalType": "address",
          "name": "to",
          "type": "address"
        },
        {
          "indexed": false,
          "internalType": "uint256",
          "name": "value",
          "type": "uint256"
        }
      ],
      "name": "Transfer",
      "type": "event"
    },
    {
      "inputs": [
        {
          "internalType": "address",
          "name": "owner",
          "type": "address"
        },
        {
          "internalType": "address",
          "name": "spender",
          "type": "address"
        }
      ],
      "name": "allowance",
      "outputs": [
        {
          "internalType": "uint256",
          "name": "",
          "type": "uint256"
        }
      ],
      "stateMutability": "view",
      "type": "function",
      "constant": true
    },
    {
      "inputs": [
        {
          "internalType": "address",
          "name": "spender",
          "type": "address"
        },
        {
          "internalType": "uint256",
          "name": "amount",
          "type": "uint256"
        }
      ],
      "name": "approve",
      "outputs": [
        {
          "internalType": "bool",
          "name": "",
          "type": "bool"
        }
      ],
      "stateMutability": "nonpayable",
      "type": "function"
    },
    {
      "inputs": [
        {
          "internalType": "address",
          "name": "account",
          "type": "address"
        }
      ],
      "name": "balanceOf",
      "outputs": [
        {
          "internalType": "uint256",
          "name": "",
          "type": "uint256"
        }
      ],
      "stateMutability": "view",
      "type": "function",
      "constant": true
    },
    {
      "inputs": [],
      "name": "decimals",
      "outputs": [
        {
          "internalType": "uint8",
          "name": "",
          "type": "uint8"
        }
      ],
      "stateMutability": "view",
      "type": "function",
      "constant": true
    },
    {
      "inputs": [
        {
          "internalType": "address",
          "name": "spender",
          "type": "address"
        },
        {
          "internalType": "uint256",
          "name": "subtractedValue",
          "type": "uint256"
        }
      ],
      "name": "decreaseAllowance",
      "outputs": [
        {
          "internalType": "bool",
          "name": "",
          "type": "bool"
        }
      ],
      "stateMutability": "nonpayable",
      "type": "function"
    },
    {
      "inputs": [
        {
          "internalType": "address",
          "name": "spender",
          "type": "address"
        },
        {
          "internalType": "uint256",
          "name": "addedValue",
          "type": "uint256"
        }
      ],
      "name": "increaseAllowance",
      "outputs": [
        {
          "internalType": "bool",
          "name": "",
          "type": "bool"
        }
      ],
      "stateMutability": "nonpayable",
      "type": "function"
    },
    {
      "inputs": [],
      "name": "name",
      "outputs": [
        {
          "internalType": "string",
          "name": "",
          "type": "string"
        }
      ],
      "stateMutability": "view",
      "type": "function",
      "constant": true
    },
    {
      "inputs": [],
      "name": "reserve0",
      "outputs": [
        {
          "internalType": "uint256",
          "name": "",
          "type": "uint256"
        }
      ],
      "stateMutability": "view",
      "type": "function",
      "constant": true
    },
    {
      "inputs": [],
      "name": "reserve1",
      "outputs": [
        {
          "internalType": "uint256",
          "name": "",
          "type": "uint256"
        }
      ],
      "stateMutability": "view",
      "type": "function",
      "constant": true
    },
    {
      "inputs": [],
      "name": "symbol",
      "outputs": [
        {
          "internalType": "string",
          "name": "",
          "type": "string"
        }
      ],
      "stateMutability": "view",
      "type": "function",
      "constant": true
    },
    {
      "inputs": [],
      "name": "token0",
      "outputs": [
        {
          "internalType": "address",
          "name": "",
          "type": "address"
        }
      ],
      "stateMutability": "view",
      "type": "function",
      "constant": true
    },
    {
      "inputs": [],
      "name": "token1",
      "outputs": [
        {
          "internalType": "address",
          "name": "",
          "type": "address"
        }
      ],
      "stateMutability": "view",
      "type": "function",
      "constant": true
    },
    {
      "inputs": [],
      "name": "totalSupply",
      "outputs": [
        {
          "internalType": "uint256",
          "name": "",
          "type": "uint256"
        }
      ],
      "stateMutability": "view",
      "type": "function",
      "constant": true
    },
    {
      "inputs": [
        {
          "internalType": "address",
          "name": "to",
          "type": "address"
        },
        {
          "internalType": "uint256",
          "name": "amount",
          "type": "uint256"
        }
      ],
      "name": "transfer",
      "outputs": [
        {
          "internalType": "bool",
          "name": "",
          "type": "bool"
        }
      ],
      "stateMutability": "nonpayable",
      "type": "function"
    },
    {
      "inputs": [
        {
          "internalType": "address",
          "name": "from",
          "type": "address"
        },
        {
          "internalType": "address",
          "name": "to",
          "type": "address"
        },
        {
          "internalType": "uint256",
          "name": "amount",
          "type": "uint256"
        }
      ],
      "name": "transferFrom",
      "outputs": [
        {
          "internalType": "bool",
          "name": "",
          "type": "bool"
        }
      ],
      "stateMutability": "nonpayable",
      "type": "function"
    },
    {
      "inputs": [
        {
          "internalType": "address",
          "name": "_token0",
          "type": "address"
        },
        {
          "internalType": "address",
          "name": "_token1",
          "type": "address"
        }
      ],
      "name": "initialize",
      "outputs": [],
      "stateMutability": "nonpayable",
      "type": "function"
    },
    {
      "inputs": [
        {
          "internalType": "address",
          "name": "to",
          "type": "address"
        }
      ],
      "name": "mint",
      "outputs": [
        {
          "internalType": "uint256",
          "name": "mintedLP",
          "type": "uint256"
        }
      ],
      "stateMutability": "nonpayable",
      "type": "function"
    },
    {
      "inputs": [
        {
          "internalType": "address",
          "name": "to",
          "type": "address"
        }
      ],
      "name": "burn",
      "outputs": [
        {
          "internalType": "uint256",
          "name": "amount0",
          "type": "uint256"
        },
        {
          "internalType": "uint256",
          "name": "amount1",
          "type": "uint256"
        }
      ],
      "stateMutability": "nonpayable",
      "type": "function"
    }
  ],
  "bytecode": "0x60806040523480156200001157600080fd5b506040518060400160405280601881526020017f4c69717569646974792050726f766964657220546f6b656e00000000000000008152506040518060400160405280600381526020017f4c5054000000000000000000000000000000000000000000000000000000000081525081600390816200008f919062000324565b508060049081620000a1919062000324565b5050506200040b565b600081519050919050565b7f4e487b7100000000000000000000000000000000000000000000000000000000600052604160045260246000fd5b7f4e487b7100000000000000000000000000000000000000000000000000000000600052602260045260246000fd5b600060028204905060018216806200012c57607f821691505b602082108103620001425762000141620000e4565b5b50919050565b60008190508160005260206000209050919050565b60006020601f8301049050919050565b600082821b905092915050565b600060088302620001ac7fffffffffffffffffffffffffffffffffffffffffffffffffffffffffffffffff826200016d565b620001b886836200016d565b95508019841693508086168417925050509392505050565b6000819050919050565b6000819050919050565b600062000205620001ff620001f984620001d0565b620001da565b620001d0565b9050919050565b6000819050919050565b6200022183620001e4565b6200023962000230826200020c565b8484546200017a565b825550505050565b600090565b6200025062000241565b6200025d81848462000216565b505050565b5b8181101562000285576200027960008262000246565b60018101905062000263565b5050565b601f821115620002d4576200029e8162000148565b620002a9846200015d565b81016020851015620002b9578190505b620002d1620002c8856200015d565b83018262000262565b50505b505050565b600082821c905092915050565b6000620002f960001984600802620002d9565b1980831691505092915050565b6000620003148383620002e6565b9150826002028217905092915050565b6200032f82620000aa565b67ffffffffffffffff8111156200034b576200034a620000b5565b5b62000357825462000113565b6200036482828562000289565b600060209050601f8311600181146200039c576000841562000387578287015190505b62000393858262000306565b86555062000403565b601f198416620003ac8662000148565b60005b82811015620003d657848901518255600182019150602085019450602081019050620003af565b86831015620003f65784890151620003f2601f891682620002e6565b8355505b6001600288020188555050505b505050505050565b612627806200041b6000396000f3fe608060405234801561001057600080fd5b50600436106101165760003560e01c80635a76f25e116100a257806395d89b411161007157806395d89b411461030c578063a457c2d71461032a578063a9059cbb1461035a578063d21220a71461038a578063dd62ed3e146103a857610116565b80635a76f25e1461025d5780636a6278421461027b57806370a08231146102ab57806389afcb44146102db57610116565b806323b872dd116100e957806323b872dd146101a5578063313ce567146101d557806339509351146101f3578063443cb4bc14610223578063485cc9551461024157610116565b806306fdde031461011b578063095ea7b3146101395780630dfe16811461016957806318160ddd14610187575b600080fd5b6101236103d8565b6040516101309190611986565b60405180910390f35b610153600480360381019061014e9190611a41565b61046a565b6040516101609190611a9c565b60405180910390f35b61017161048d565b60405161017e9190611ac6565b60405180910390f35b61018f6104b3565b60405161019c9190611af0565b60405180910390f35b6101bf60048036038101906101ba9190611b0b565b6104bd565b6040516101cc9190611a9c565b60405180910390f35b6101dd6104ec565b6040516101ea9190611b7a565b60405180910390f35b61020d60048036038101906102089190611a41565b6104f5565b60405161021a9190611a9c565b60405180910390f35b61022b61052c565b6040516102389190611af0565b60405180910390f35b61025b60048036038101906102569190611b95565b610532565b005b6102656106a5565b6040516102729190611af0565b60405180910390f35b61029560048036038101906102909190611bd5565b6106ab565b6040516102a29190611af0565b60405180910390f35b6102c560048036038101906102c09190611bd5565b610954565b6040516102d29190611af0565b60405180910390f35b6102f560048036038101906102f09190611bd5565b61099c565b604051610303929190611c02565b60405180910390f35b610314610d33565b6040516103219190611986565b60405180910390f35b610344600480360381019061033f9190611a41565b610dc5565b6040516103519190611a9c565b60405180910390f35b610374600480360381019061036f9190611a41565b610e3c565b6040516103819190611a9c565b60405180910390f35b610392610e5f565b60405161039f9190611ac6565b60405180910390f35b6103c260048036038101906103bd9190611b95565b610e85565b6040516103cf9190611af0565b60405180910390f35b6060600380546103e790611c5a565b80601f016020809104026020016040519081016040528092919081815260200182805461041390611c5a565b80156104605780601f1061043557610100808354040283529160200191610460565b820191906000526020600020905b81548152906001019060200180831161044357829003601f168201915b5050505050905090565b600080610475610f0c565b9050610482818585610f14565b600191505092915050565b600560009054906101000a900473ffffffffffffffffffffffffffffffffffffffff1681565b6000600254905090565b6000806104c8610f0c565b90506104d58582856110dd565b6104e0858585611169565b60019150509392505050565b60006012905090565b600080610500610f0c565b90506105218185856105128589610e85565b61051c9190611cba565b610f14565b600191505092915050565b60075481565b600073ffffffffffffffffffffffffffffffffffffffff16600560009054906101000a900473ffffffffffffffffffffffffffffffffffffffff1673ffffffffffffffffffffffffffffffffffffffff161415806105df5750600073ffffffffffffffffffffffffffffffffffffffff16600660009054906101000a900473ffffffffffffffffffffffffffffffffffffffff1673ffffffffffffffffffffffffffffffffffffffff1614155b1561061f576040517f08c379a000000000000000000000000000000000000000000000000000000000815260040161061690611d5c565b60405180910390fd5b81600560006101000a81548173ffffffffffffffffffffffffffffffffffffffff021916908373ffffffffffffffffffffffffffffffffffffffff16021790555080600660006101000a81548173ffffffffffffffffffffffffffffffffffffffff021916908373ffffffffffffffffffffffffffffffffffffffff1602179055505050565b60085481565b600080600560009054906101000a900473ffffffffffffffffffffffffffffffffffffffff1673ffffffffffffffffffffffffffffffffffffffff166370a08231306040518263ffffffff1660e01b81526004016107099190611ac6565b602060405180830381865afa158015610726573d6000803e3d6000fd5b505050506040513d601f19601f8201168201806040525081019061074a9190611d91565b90506000600660009054906101000a900473ffffffffffffffffffffffffffffffffffffffff1673ffffffffffffffffffffffffffffffffffffffff166370a08231306040518263ffffffff1660e01b81526004016107a99190611ac6565b602060405180830381865afa1580156107c6573d6000803e3d6000fd5b505050506040513d601f19601f820116820180604052508101906107ea9190611d91565b90506000600754836107fc9190611dbe565b905060006008548361080e9190611dbe565b9050600061081a6104b3565b03610853576103e861083682846108319190611df2565b6113e8565b6108409190611dbe565b945061084e306103e8611595565b61089e565b61089b6007546108616104b3565b8461086c9190611df2565b6108769190611e7b565b6008546108816104b3565b8461088c9190611df2565b6108969190611e7b565b6116f4565b94505b600085116108e1576040517f08c379a00000000000000000000000000000000000000000000000000000000081526004016108d890611f1e565b60405180910390fd5b6108eb8686611595565b83600781905550826008819055508573ffffffffffffffffffffffffffffffffffffffff167fb4c03061fb5b7fed76389d5af8f2e0ddb09f8c70d1333abbb62582835e10accb83838860405161094393929190611f3e565b60405180910390a250505050919050565b60008060008373ffffffffffffffffffffffffffffffffffffffff1673ffffffffffffffffffffffffffffffffffffffff168152602001908152602001600020549050919050565b60008060006109aa84610954565b90506109b46104b3565b600754826109c29190611df2565b6109cc9190611e7b565b92506109d66104b3565b600854826109e49190611df2565b6109ee9190611e7b565b915060008314806109ff5750600082145b15610a3f576040517f08c379a0000000000000000000000000000000000000000000000000000000008152600401610a3690611fe7565b60405180910390fd5b610a49848261170d565b600560009054906101000a900473ffffffffffffffffffffffffffffffffffffffff1673ffffffffffffffffffffffffffffffffffffffff1663a9059cbb85856040518363ffffffff1660e01b8152600401610aa6929190612007565b6020604051808303816000875af1158015610ac5573d6000803e3d6000fd5b505050506040513d601f19601f82011682018060405250810190610ae9919061205c565b50600660009054906101000a900473ffffffffffffffffffffffffffffffffffffffff1673ffffffffffffffffffffffffffffffffffffffff1663a9059cbb85846040518363ffffffff1660e01b8152600401610b47929190612007565b6020604051808303816000875af1158015610b66573d6000803e3d6000fd5b505050506040513d601f19601f82011682018060405250810190610b8a919061205c565b506000600560009054906101000a900473ffffffffffffffffffffffffffffffffffffffff1673ffffffffffffffffffffffffffffffffffffffff166370a08231306040518263ffffffff1660e01b8152600401610be89190611ac6565b602060405180830381865afa158015610c05573d6000803e3d6000fd5b505050506040513d601f19601f82011682018060405250810190610c299190611d91565b90506000600660009054906101000a900473ffffffffffffffffffffffffffffffffffffffff1673ffffffffffffffffffffffffffffffffffffffff166370a08231306040518263ffffffff1660e01b8152600401610c889190611ac6565b602060405180830381865afa158015610ca5573d6000803e3d6000fd5b505050506040513d601f19601f82011682018060405250810190610cc99190611d91565b905081600781905550806008819055508573ffffffffffffffffffffffffffffffffffffffff167f743033787f4738ff4d6a7225ce2bd0977ee5f86b91a902a58f5e4d0b297b4644868686604051610d2393929190611f3e565b60405180910390a2505050915091565b606060048054610d4290611c5a565b80601f0160208091040260200160405190810160405280929190818152602001828054610d6e90611c5a565b8015610dbb5780601f10610d9057610100808354040283529160200191610dbb565b820191906000526020600020905b815481529060010190602001808311610d9e57829003601f168201915b5050505050905090565b600080610dd0610f0c565b90506000610dde8286610e85565b905083811015610e23576040517f08c379a0000000000000000000000000000000000000000000000000000000008152600401610e1a906120fb565b60405180910390fd5b610e308286868403610f14565b60019250505092915050565b600080610e47610f0c565b9050610e54818585611169565b600191505092915050565b600660009054906101000a900473ffffffffffffffffffffffffffffffffffffffff1681565b6000600160008473ffffffffffffffffffffffffffffffffffffffff1673ffffffffffffffffffffffffffffffffffffffff16815260200190815260200160002060008373ffffffffffffffffffffffffffffffffffffffff1673ffffffffffffffffffffffffffffffffffffffff16815260200190815260200160002054905092915050565b600033905090565b600073ffffffffffffffffffffffffffffffffffffffff168373ffffffffffffffffffffffffffffffffffffffff1603610f83576040517f08c379a0000000000000000000000000000000000000000000000000000000008152600401610f7a9061218d565b60405180910390fd5b600073ffffffffffffffffffffffffffffffffffffffff168273ffffffffffffffffffffffffffffffffffffffff1603610ff2576040517f08c379a0000000000000000000000000000000000000000000000000000000008152600401610fe99061221f565b60405180910390fd5b80600160008573ffffffffffffffffffffffffffffffffffffffff1673ffffffffffffffffffffffffffffffffffffffff16815260200190815260200160002060008473ffffffffffffffffffffffffffffffffffffffff1673ffffffffffffffffffffffffffffffffffffffff168152602001908152602001600020819055508173ffffffffffffffffffffffffffffffffffffffff168373ffffffffffffffffffffffffffffffffffffffff167f8c5be1e5ebec7d5bd14f71427d1e84f3dd0314c0f7b2291e5b200ac8c7c3b925836040516110d09190611af0565b60405180910390a3505050565b60006110e98484610e85565b90507fffffffffffffffffffffffffffffffffffffffffffffffffffffffffffffffff81146111635781811015611155576040517f08c379a000000000000000000000000000000000000000000000000000000000815260040161114c9061228b565b60405180910390fd5b6111628484848403610f14565b5b50505050565b600073ffffffffffffffffffffffffffffffffffffffff168373ffffffffffffffffffffffffffffffffffffffff16036111d8576040517f08c379a00000000000000000000000000000000000000000000000000000000081526004016111cf9061231d565b60405180910390fd5b600073ffffffffffffffffffffffffffffffffffffffff168273ffffffffffffffffffffffffffffffffffffffff1603611247576040517f08c379a000000000000000000000000000000000000000000000000000000000815260040161123e906123af565b60405180910390fd5b6112528383836118e3565b60008060008573ffffffffffffffffffffffffffffffffffffffff1673ffffffffffffffffffffffffffffffffffffffff168152602001908152602001600020549050818110156112d8576040517f08c379a00000000000000000000000000000000000000000000000000000000081526004016112cf90612441565b60405180910390fd5b8181036000808673ffffffffffffffffffffffffffffffffffffffff1673ffffffffffffffffffffffffffffffffffffffff16815260200190815260200160002081905550816000808573ffffffffffffffffffffffffffffffffffffffff1673ffffffffffffffffffffffffffffffffffffffff168152602001908152602001600020600082825461136b9190611cba565b925050819055508273ffffffffffffffffffffffffffffffffffffffff168473ffffffffffffffffffffffffffffffffffffffff167fddf252ad1be2c89b69c2b068fc378daa952ba7f163c4a11628f55a4df523b3ef846040516113cf9190611af0565b60405180910390a36113e28484846118e8565b50505050565b60008082036113fa5760009050611590565b60006001905060008390506000608082901c111561142157608081901c9050604082901b91505b6000604082901c111561143d57604081901c9050602082901b91505b6000602082901c111561145957602081901c9050601082901b91505b6000601082901c111561147557601081901c9050600882901b91505b6000600882901c111561149157600881901c9050600482901b91505b6000600482901c11156114ad57600481901c9050600282901b91505b6000600282901c11156114c257600182901b91505b60018285816114d4576114d3611e4c565b5b048301901c915060018285816114ed576114ec611e4c565b5b048301901c9150600182858161150657611505611e4c565b5b048301901c9150600182858161151f5761151e611e4c565b5b048301901c9150600182858161153857611537611e4c565b5b048301901c9150600182858161155157611550611e4c565b5b048301901c9150600182858161156a57611569611e4c565b5b048301901c915061158b8283868161158557611584611e4c565b5b046116f4565b925050505b919050565b600073ffffffffffffffffffffffffffffffffffffffff168273ffffffffffffffffffffffffffffffffffffffff1603611604576040517f08c379a00000000000000000000000000000000000000000000000000000000081526004016115fb906124ad565b60405180910390fd5b611610600083836118e3565b80600260008282546116229190611cba565b92505081905550806000808473ffffffffffffffffffffffffffffffffffffffff1673ffffffffffffffffffffffffffffffffffffffff16815260200190815260200160002060008282546116779190611cba565b925050819055508173ffffffffffffffffffffffffffffffffffffffff16600073ffffffffffffffffffffffffffffffffffffffff167fddf252ad1be2c89b69c2b068fc378daa952ba7f163c4a11628f55a4df523b3ef836040516116dc9190611af0565b60405180910390a36116f0600083836118e8565b5050565b60008183106117035781611705565b825b905092915050565b600073ffffffffffffffffffffffffffffffffffffffff168273ffffffffffffffffffffffffffffffffffffffff160361177c576040517f08c379a00000000000000000000000000000000000000000000000000000000081526004016117739061253f565b60405180910390fd5b611788826000836118e3565b60008060008473ffffffffffffffffffffffffffffffffffffffff1673ffffffffffffffffffffffffffffffffffffffff1681526020019081526020016000205490508181101561180e576040517f08c379a0000000000000000000000000000000000000000000000000000000008152600401611805906125d1565b60405180910390fd5b8181036000808573ffffffffffffffffffffffffffffffffffffffff1673ffffffffffffffffffffffffffffffffffffffff1681526020019081526020016000208190555081600260008282546118659190611dbe565b92505081905550600073ffffffffffffffffffffffffffffffffffffffff168373ffffffffffffffffffffffffffffffffffffffff167fddf252ad1be2c89b69c2b068fc378daa952ba7f163c4a11628f55a4df523b3ef846040516118ca9190611af0565b60405180910390a36118de836000846118e8565b505050565b505050565b505050565b600081519050919050565b600082825260208201905092915050565b60005b8381101561192757808201518184015260208101905061190c565b83811115611936576000848401525b50505050565b6000601f19601f8301169050919050565b6000611958826118ed565b61196281856118f8565b9350611972818560208601611909565b61197b8161193c565b840191505092915050565b600060208201905081810360008301526119a0818461194d565b905092915050565b600080fd5b600073ffffffffffffffffffffffffffffffffffffffff82169050919050565b60006119d8826119ad565b9050919050565b6119e8816119cd565b81146119f357600080fd5b50565b600081359050611a05816119df565b92915050565b6000819050919050565b611a1e81611a0b565b8114611a2957600080fd5b50565b600081359050611a3b81611a15565b92915050565b60008060408385031215611a5857611a576119a8565b5b6000611a66858286016119f6565b9250506020611a7785828601611a2c565b9150509250929050565b60008115159050919050565b611a9681611a81565b82525050565b6000602082019050611ab16000830184611a8d565b92915050565b611ac0816119cd565b82525050565b6000602082019050611adb6000830184611ab7565b92915050565b611aea81611a0b565b82525050565b6000602082019050611b056000830184611ae1565b92915050565b600080600060608486031215611b2457611b236119a8565b5b6000611b32868287016119f6565b9350506020611b43868287016119f6565b9250506040611b5486828701611a2c565b9150509250925092565b600060ff82169050919050565b611b7481611b5e565b82525050565b6000602082019050611b8f6000830184611b6b565b92915050565b60008060408385031215611bac57611bab6119a8565b5b6000611bba858286016119f6565b9250506020611bcb858286016119f6565b9150509250929050565b600060208284031215611beb57611bea6119a8565b5b6000611bf9848285016119f6565b91505092915050565b6000604082019050611c176000830185611ae1565b611c246020830184611ae1565b9392505050565b7f4e487b7100000000000000000000000000000000000000000000000000000000600052602260045260246000fd5b60006002820490506001821680611c7257607f821691505b602082108103611c8557611c84611c2b565b5b50919050565b7f4e487b7100000000000000000000000000000000000000000000000000000000600052601160045260246000fd5b6000611cc582611a0b565b9150611cd083611a0b565b9250827fffffffffffffffffffffffffffffffffffffffffffffffffffffffffffffffff03821115611d0557611d04611c8b565b5b828201905092915050565b7f5061697220616c726561647920696e697469616c697a65640000000000000000600082015250565b6000611d466018836118f8565b9150611d5182611d10565b602082019050919050565b60006020820190508181036000830152611d7581611d39565b9050919050565b600081519050611d8b81611a15565b92915050565b600060208284031215611da757611da66119a8565b5b6000611db584828501611d7c565b91505092915050565b6000611dc982611a0b565b9150611dd483611a0b565b925082821015611de757611de6611c8b565b5b828203905092915050565b6000611dfd82611a0b565b9150611e0883611a0b565b9250817fffffffffffffffffffffffffffffffffffffffffffffffffffffffffffffffff0483118215151615611e4157611e40611c8b565b5b828202905092915050565b7f4e487b7100000000000000000000000000000000000000000000000000000000600052601260045260246000fd5b6000611e8682611a0b565b9150611e9183611a0b565b925082611ea157611ea0611e4c565b5b828204905092915050565b7f496e73756666696369656e74206c697175696469747920746f6b656e73206d6960008201527f6e74656421000000000000000000000000000000000000000000000000000000602082015250565b6000611f086025836118f8565b9150611f1382611eac565b604082019050919050565b60006020820190508181036000830152611f3781611efb565b9050919050565b6000606082019050611f536000830186611ae1565b611f606020830185611ae1565b611f6d6040830184611ae1565b949350505050565b7f496e73756666696369656e74206c697175696469747920746f6b656e7320627560008201527f726e656421000000000000000000000000000000000000000000000000000000602082015250565b6000611fd16025836118f8565b9150611fdc82611f75565b604082019050919050565b6000602082019050818103600083015261200081611fc4565b9050919050565b600060408201905061201c6000830185611ab7565b6120296020830184611ae1565b9392505050565b61203981611a81565b811461204457600080fd5b50565b60008151905061205681612030565b92915050565b600060208284031215612072576120716119a8565b5b600061208084828501612047565b91505092915050565b7f45524332303a2064656372656173656420616c6c6f77616e63652062656c6f7760008201527f207a65726f000000000000000000000000000000000000000000000000000000602082015250565b60006120e56025836118f8565b91506120f082612089565b604082019050919050565b60006020820190508181036000830152612114816120d8565b9050919050565b7f45524332303a20617070726f76652066726f6d20746865207a65726f2061646460008201527f7265737300000000000000000000000000000000000000000000000000000000602082015250565b60006121776024836118f8565b91506121828261211b565b604082019050919050565b600060208201905081810360008301526121a68161216a565b9050919050565b7f45524332303a20617070726f766520746f20746865207a65726f20616464726560008201527f7373000000000000000000000000000000000000000000000000000000000000602082015250565b60006122096022836118f8565b9150612214826121ad565b604082019050919050565b60006020820190508181036000830152612238816121fc565b9050919050565b7f45524332303a20696e73756666696369656e7420616c6c6f77616e6365000000600082015250565b6000612275601d836118f8565b91506122808261223f565b602082019050919050565b600060208201905081810360008301526122a481612268565b9050919050565b7f45524332303a207472616e736665722066726f6d20746865207a65726f20616460008201527f6472657373000000000000000000000000000000000000000000000000000000602082015250565b60006123076025836118f8565b9150612312826122ab565b604082019050919050565b60006020820190508181036000830152612336816122fa565b9050919050565b7f45524332303a207472616e7366657220746f20746865207a65726f206164647260008201527f6573730000000000000000000000000000000000000000000000000000000000602082015250565b60006123996023836118f8565b91506123a48261233d565b604082019050919050565b600060208201905081810360008301526123c88161238c565b9050919050565b7f45524332303a207472616e7366657220616d6f756e742065786365656473206260008201527f616c616e63650000000000000000000000000000000000000000000000000000602082015250565b600061242b6026836118f8565b9150612436826123cf565b604082019050919050565b6000602082019050818103600083015261245a8161241e565b9050919050565b7f45524332303a206d696e7420746f20746865207a65726f206164647265737300600082015250565b6000612497601f836118f8565b91506124a282612461565b602082019050919050565b600060208201905081810360008301526124c68161248a565b9050919050565b7f45524332303a206275726e2066726f6d20746865207a65726f2061646472657360008201527f7300000000000000000000000000000000000000000000000000000000000000602082015250565b60006125296021836118f8565b9150612534826124cd565b604082019050919050565b600060208201905081810360008301526125588161251c565b9050919050565b7f45524332303a206275726e20616d6f756e7420657863656564732062616c616e60008201527f6365000000000000000000000000000000000000000000000000000000000000602082015250565b60006125bb6022836118f8565b91506125c68261255f565b604082019050919050565b600060208201905081810360008301526125ea816125ae565b905091905056fea26469706673582212200edccd7790056ae86e851b69b0b3a9e820450edb708121244cbdaead294ce85264736f6c634300080f0033",
  "immutableReferences": {},
  "source": "// SPDX-License-Identifier: MIT\npragma solidity ^0.8.15;\n\nimport \"@openzeppelin/contracts/utils/math/Math.sol\";\nimport \"@openzeppelin/contracts/token/ERC20/ERC20.sol\";\n\ncontract Pair is ERC20 {\n  uint256 constant MINIMUM_LIQUIDITY = 1000;\n\n  address public token0;\n  address public token1;\n\n  uint256 public reserve0;\n  uint256 public reserve1;\n\n  event Mint(address indexed sender, uint256 amount0, uint256 amount1, uint256 minted);\n  event Burn(address indexed sender, uint256 amount0, uint256 amount1, uint256 burned);\n\n  constructor() ERC20(\"Liquidity Provider Token\", \"LPT\") {}\n\n  function initialize(address _token0, address _token1) public {\n    if (token0 != address(0) || token1 != address(0)) {\n      revert(\"Pair already initialized\");\n    }\n\n    token0 = _token0;\n    token1 = _token1;\n  }\n  \n  function mint(address to) public returns (uint256 mintedLP) {\n    uint256 balance0 = ERC20(token0).balanceOf(address(this));\n    uint256 balance1 = ERC20(token1).balanceOf(address(this));\n    \n    uint256 amount0 = balance0 - reserve0;\n    uint256 amount1 = balance1 - reserve1;\n\n    if (totalSupply() == 0) {\n      mintedLP = Math.sqrt(amount0 * amount1) - MINIMUM_LIQUIDITY;\n      _mint(address(this), MINIMUM_LIQUIDITY);\n    } else {\n      mintedLP = Math.min(\n        (amount0 * totalSupply()) / reserve0, \n        (amount1 * totalSupply()) / reserve1\n      );\n    }\n\n    if (mintedLP <= 0) {\n      revert('Insufficient liquidity tokens minted!');\n    }\n\n    _mint(to, mintedLP);\n\n    reserve0 = balance0;\n    reserve1 = balance1;\n\n    emit Mint(to, amount0, amount1, mintedLP);\n  }\n\n  function burn(address to) public returns (uint256 amount0, uint256 amount1) {\n    uint256 lpTokens = balanceOf(to);\n\n    amount0 = (lpTokens * reserve0) / totalSupply();\n    amount1 = (lpTokens * reserve1) / totalSupply();\n\n    if (amount0 == 0 || amount1 == 0) {\n      revert('Insufficient liquidity tokens burned!');\n    }\n\n    _burn(to, lpTokens);\n\n    ERC20(token0).transfer(to, amount0);\n    ERC20(token1).transfer(to, amount1);\n\n    uint256 balance0 = ERC20(token0).balanceOf(address(this));\n    uint256 balance1 = ERC20(token1).balanceOf(address(this));\n\n    reserve0 = balance0;\n    reserve1 = balance1;\n\n    emit Burn(to, amount0, amount1, lpTokens);\n  }\n}\n",
  "sourcePath": "/Users/lambros/Downloads/my-crypto-exchange/contracts/Pair.sol",
  "compiler": {
    "name": "solc",
    "version": "0.8.15+commit.e14f2714.Emscripten.clang"
  },
  "schemaVersion": "3.4.8",
  "updatedAt": "2022-08-27T17:05:24.606Z",
  "networkType": "ethereum",
  "devdoc": {
    "kind": "dev",
    "methods": {
      "allowance(address,address)": {
        "details": "See {IERC20-allowance}."
      },
      "approve(address,uint256)": {
        "details": "See {IERC20-approve}. NOTE: If `amount` is the maximum `uint256`, the allowance is not updated on `transferFrom`. This is semantically equivalent to an infinite approval. Requirements: - `spender` cannot be the zero address."
      },
      "balanceOf(address)": {
        "details": "See {IERC20-balanceOf}."
      },
      "decimals()": {
        "details": "Returns the number of decimals used to get its user representation. For example, if `decimals` equals `2`, a balance of `505` tokens should be displayed to a user as `5.05` (`505 / 10 ** 2`). Tokens usually opt for a value of 18, imitating the relationship between Ether and Wei. This is the value {ERC20} uses, unless this function is overridden; NOTE: This information is only used for _display_ purposes: it in no way affects any of the arithmetic of the contract, including {IERC20-balanceOf} and {IERC20-transfer}."
      },
      "decreaseAllowance(address,uint256)": {
        "details": "Atomically decreases the allowance granted to `spender` by the caller. This is an alternative to {approve} that can be used as a mitigation for problems described in {IERC20-approve}. Emits an {Approval} event indicating the updated allowance. Requirements: - `spender` cannot be the zero address. - `spender` must have allowance for the caller of at least `subtractedValue`."
      },
      "increaseAllowance(address,uint256)": {
        "details": "Atomically increases the allowance granted to `spender` by the caller. This is an alternative to {approve} that can be used as a mitigation for problems described in {IERC20-approve}. Emits an {Approval} event indicating the updated allowance. Requirements: - `spender` cannot be the zero address."
      },
      "name()": {
        "details": "Returns the name of the token."
      },
      "symbol()": {
        "details": "Returns the symbol of the token, usually a shorter version of the name."
      },
      "totalSupply()": {
        "details": "See {IERC20-totalSupply}."
      },
      "transfer(address,uint256)": {
        "details": "See {IERC20-transfer}. Requirements: - `to` cannot be the zero address. - the caller must have a balance of at least `amount`."
      },
      "transferFrom(address,address,uint256)": {
        "details": "See {IERC20-transferFrom}. Emits an {Approval} event indicating the updated allowance. This is not required by the EIP. See the note at the beginning of {ERC20}. NOTE: Does not update the allowance if the current allowance is the maximum `uint256`. Requirements: - `from` and `to` cannot be the zero address. - `from` must have a balance of at least `amount`. - the caller must have allowance for ``from``'s tokens of at least `amount`."
      }
    },
    "version": 1
  },
  "userdoc": {
    "kind": "user",
    "methods": {},
    "version": 1
  }
}