{
  "contractName": "Pair",
  "abi": [
    {
      "inputs": [],
      "stateMutability": "nonpayable",
      "type": "constructor"
    },
    {
      "anonymous": false,
      "inputs": [
        {
          "indexed": true,
          "internalType": "address",
          "name": "owner",
          "type": "address"
        },
        {
          "indexed": true,
          "internalType": "address",
          "name": "spender",
          "type": "address"
        },
        {
          "indexed": false,
          "internalType": "uint256",
          "name": "value",
          "type": "uint256"
        }
      ],
      "name": "Approval",
      "type": "event"
    },
    {
      "anonymous": false,
      "inputs": [
        {
          "indexed": true,
          "internalType": "address",
          "name": "sender",
          "type": "address"
        },
        {
          "indexed": false,
          "internalType": "uint256",
          "name": "amount0",
          "type": "uint256"
        },
        {
          "indexed": false,
          "internalType": "uint256",
          "name": "amount1",
          "type": "uint256"
        },
        {
          "indexed": false,
          "internalType": "uint256",
          "name": "burned",
          "type": "uint256"
        }
      ],
      "name": "Burn",
      "type": "event"
    },
    {
      "anonymous": false,
      "inputs": [
        {
          "indexed": true,
          "internalType": "address",
          "name": "sender",
          "type": "address"
        },
        {
          "indexed": false,
          "internalType": "uint256",
          "name": "amount0",
          "type": "uint256"
        },
        {
          "indexed": false,
          "internalType": "uint256",
          "name": "amount1",
          "type": "uint256"
        },
        {
          "indexed": false,
          "internalType": "uint256",
          "name": "minted",
          "type": "uint256"
        }
      ],
      "name": "Mint",
      "type": "event"
    },
    {
      "anonymous": false,
      "inputs": [
        {
          "indexed": true,
          "internalType": "address",
          "name": "sender",
          "type": "address"
        },
        {
          "indexed": false,
          "internalType": "uint256",
          "name": "amount0",
          "type": "uint256"
        },
        {
          "indexed": false,
          "internalType": "uint256",
          "name": "amount1",
          "type": "uint256"
        }
      ],
      "name": "Swap",
      "type": "event"
    },
    {
      "anonymous": false,
      "inputs": [
        {
          "indexed": true,
          "internalType": "address",
          "name": "from",
          "type": "address"
        },
        {
          "indexed": true,
          "internalType": "address",
          "name": "to",
          "type": "address"
        },
        {
          "indexed": false,
          "internalType": "uint256",
          "name": "value",
          "type": "uint256"
        }
      ],
      "name": "Transfer",
      "type": "event"
    },
    {
      "inputs": [
        {
          "internalType": "address",
          "name": "owner",
          "type": "address"
        },
        {
          "internalType": "address",
          "name": "spender",
          "type": "address"
        }
      ],
      "name": "allowance",
      "outputs": [
        {
          "internalType": "uint256",
          "name": "",
          "type": "uint256"
        }
      ],
      "stateMutability": "view",
      "type": "function"
    },
    {
      "inputs": [
        {
          "internalType": "address",
          "name": "spender",
          "type": "address"
        },
        {
          "internalType": "uint256",
          "name": "amount",
          "type": "uint256"
        }
      ],
      "name": "approve",
      "outputs": [
        {
          "internalType": "bool",
          "name": "",
          "type": "bool"
        }
      ],
      "stateMutability": "nonpayable",
      "type": "function"
    },
    {
      "inputs": [
        {
          "internalType": "address",
          "name": "account",
          "type": "address"
        }
      ],
      "name": "balanceOf",
      "outputs": [
        {
          "internalType": "uint256",
          "name": "",
          "type": "uint256"
        }
      ],
      "stateMutability": "view",
      "type": "function"
    },
    {
      "inputs": [],
      "name": "decimals",
      "outputs": [
        {
          "internalType": "uint8",
          "name": "",
          "type": "uint8"
        }
      ],
      "stateMutability": "view",
      "type": "function"
    },
    {
      "inputs": [
        {
          "internalType": "address",
          "name": "spender",
          "type": "address"
        },
        {
          "internalType": "uint256",
          "name": "subtractedValue",
          "type": "uint256"
        }
      ],
      "name": "decreaseAllowance",
      "outputs": [
        {
          "internalType": "bool",
          "name": "",
          "type": "bool"
        }
      ],
      "stateMutability": "nonpayable",
      "type": "function"
    },
    {
      "inputs": [
        {
          "internalType": "address",
          "name": "spender",
          "type": "address"
        },
        {
          "internalType": "uint256",
          "name": "addedValue",
          "type": "uint256"
        }
      ],
      "name": "increaseAllowance",
      "outputs": [
        {
          "internalType": "bool",
          "name": "",
          "type": "bool"
        }
      ],
      "stateMutability": "nonpayable",
      "type": "function"
    },
    {
      "inputs": [],
      "name": "name",
      "outputs": [
        {
          "internalType": "string",
          "name": "",
          "type": "string"
        }
      ],
      "stateMutability": "view",
      "type": "function"
    },
    {
      "inputs": [],
      "name": "reserve0",
      "outputs": [
        {
          "internalType": "uint256",
          "name": "",
          "type": "uint256"
        }
      ],
      "stateMutability": "view",
      "type": "function"
    },
    {
      "inputs": [],
      "name": "reserve1",
      "outputs": [
        {
          "internalType": "uint256",
          "name": "",
          "type": "uint256"
        }
      ],
      "stateMutability": "view",
      "type": "function"
    },
    {
      "inputs": [],
      "name": "symbol",
      "outputs": [
        {
          "internalType": "string",
          "name": "",
          "type": "string"
        }
      ],
      "stateMutability": "view",
      "type": "function"
    },
    {
      "inputs": [],
      "name": "token0",
      "outputs": [
        {
          "internalType": "address",
          "name": "",
          "type": "address"
        }
      ],
      "stateMutability": "view",
      "type": "function"
    },
    {
      "inputs": [],
      "name": "token1",
      "outputs": [
        {
          "internalType": "address",
          "name": "",
          "type": "address"
        }
      ],
      "stateMutability": "view",
      "type": "function"
    },
    {
      "inputs": [],
      "name": "totalSupply",
      "outputs": [
        {
          "internalType": "uint256",
          "name": "",
          "type": "uint256"
        }
      ],
      "stateMutability": "view",
      "type": "function"
    },
    {
      "inputs": [
        {
          "internalType": "address",
          "name": "to",
          "type": "address"
        },
        {
          "internalType": "uint256",
          "name": "amount",
          "type": "uint256"
        }
      ],
      "name": "transfer",
      "outputs": [
        {
          "internalType": "bool",
          "name": "",
          "type": "bool"
        }
      ],
      "stateMutability": "nonpayable",
      "type": "function"
    },
    {
      "inputs": [
        {
          "internalType": "address",
          "name": "from",
          "type": "address"
        },
        {
          "internalType": "address",
          "name": "to",
          "type": "address"
        },
        {
          "internalType": "uint256",
          "name": "amount",
          "type": "uint256"
        }
      ],
      "name": "transferFrom",
      "outputs": [
        {
          "internalType": "bool",
          "name": "",
          "type": "bool"
        }
      ],
      "stateMutability": "nonpayable",
      "type": "function"
    },
    {
      "inputs": [
        {
          "internalType": "address",
          "name": "_token0",
          "type": "address"
        },
        {
          "internalType": "address",
          "name": "_token1",
          "type": "address"
        }
      ],
      "name": "initialize",
      "outputs": [],
      "stateMutability": "nonpayable",
      "type": "function"
    },
    {
      "inputs": [
        {
          "internalType": "address",
          "name": "to",
          "type": "address"
        }
      ],
      "name": "mint",
      "outputs": [
        {
          "internalType": "uint256",
          "name": "mintedLP",
          "type": "uint256"
        }
      ],
      "stateMutability": "nonpayable",
      "type": "function"
    },
    {
      "inputs": [
        {
          "internalType": "address",
          "name": "to",
          "type": "address"
        }
      ],
      "name": "burn",
      "outputs": [
        {
          "internalType": "uint256",
          "name": "amount0",
          "type": "uint256"
        },
        {
          "internalType": "uint256",
          "name": "amount1",
          "type": "uint256"
        }
      ],
      "stateMutability": "nonpayable",
      "type": "function"
    },
    {
      "inputs": [
        {
          "internalType": "uint256",
          "name": "amount0Out",
          "type": "uint256"
        },
        {
          "internalType": "uint256",
          "name": "amount1Out",
          "type": "uint256"
        },
        {
          "internalType": "address",
          "name": "to",
          "type": "address"
        }
      ],
      "name": "swap",
      "outputs": [],
      "stateMutability": "nonpayable",
      "type": "function"
    }
  ],
  "bytecode": "0x60806040523480156200001157600080fd5b506040518060400160405280601881526020017f4c69717569646974792050726f766964657220546f6b656e00000000000000008152506040518060400160405280600381526020017f4c5054000000000000000000000000000000000000000000000000000000000081525081600390816200008f919062000324565b508060049081620000a1919062000324565b5050506200040b565b600081519050919050565b7f4e487b7100000000000000000000000000000000000000000000000000000000600052604160045260246000fd5b7f4e487b7100000000000000000000000000000000000000000000000000000000600052602260045260246000fd5b600060028204905060018216806200012c57607f821691505b602082108103620001425762000141620000e4565b5b50919050565b60008190508160005260206000209050919050565b60006020601f8301049050919050565b600082821b905092915050565b600060088302620001ac7fffffffffffffffffffffffffffffffffffffffffffffffffffffffffffffffff826200016d565b620001b886836200016d565b95508019841693508086168417925050509392505050565b6000819050919050565b6000819050919050565b600062000205620001ff620001f984620001d0565b620001da565b620001d0565b9050919050565b6000819050919050565b6200022183620001e4565b6200023962000230826200020c565b8484546200017a565b825550505050565b600090565b6200025062000241565b6200025d81848462000216565b505050565b5b8181101562000285576200027960008262000246565b60018101905062000263565b5050565b601f821115620002d4576200029e8162000148565b620002a9846200015d565b81016020851015620002b9578190505b620002d1620002c8856200015d565b83018262000262565b50505b505050565b600082821c905092915050565b6000620002f960001984600802620002d9565b1980831691505092915050565b6000620003148383620002e6565b9150826002028217905092915050565b6200032f82620000aa565b67ffffffffffffffff8111156200034b576200034a620000b5565b5b62000357825462000113565b6200036482828562000289565b600060209050601f8311600181146200039c576000841562000387578287015190505b62000393858262000306565b86555062000403565b601f198416620003ac8662000148565b60005b82811015620003d657848901518255600182019150602085019450602081019050620003af565b86831015620003f65784890151620003f2601f891682620002e6565b8355505b6001600288020188555050505b505050505050565b612c40806200041b6000396000f3fe608060405234801561001057600080fd5b50600436106101215760003560e01c80635a76f25e116100ad57806395d89b411161007157806395d89b4114610333578063a457c2d714610351578063a9059cbb14610381578063d21220a7146103b1578063dd62ed3e146103cf57610121565b80635a76f25e146102685780636a627842146102865780636d9a640a146102b657806370a08231146102d257806389afcb441461030257610121565b806323b872dd116100f457806323b872dd146101b0578063313ce567146101e057806339509351146101fe578063443cb4bc1461022e578063485cc9551461024c57610121565b806306fdde0314610126578063095ea7b3146101445780630dfe16811461017457806318160ddd14610192575b600080fd5b61012e6103ff565b60405161013b9190611dbc565b60405180910390f35b61015e60048036038101906101599190611e77565b610491565b60405161016b9190611ed2565b60405180910390f35b61017c6104b4565b6040516101899190611efc565b60405180910390f35b61019a6104da565b6040516101a79190611f26565b60405180910390f35b6101ca60048036038101906101c59190611f41565b6104e4565b6040516101d79190611ed2565b60405180910390f35b6101e8610513565b6040516101f59190611fb0565b60405180910390f35b61021860048036038101906102139190611e77565b61051c565b6040516102259190611ed2565b60405180910390f35b610236610553565b6040516102439190611f26565b60405180910390f35b61026660048036038101906102619190611fcb565b610559565b005b6102706106cc565b60405161027d9190611f26565b60405180910390f35b6102a0600480360381019061029b919061200b565b6106d2565b6040516102ad9190611f26565b60405180910390f35b6102d060048036038101906102cb9190612038565b61097b565b005b6102ec60048036038101906102e7919061200b565b610d8a565b6040516102f99190611f26565b60405180910390f35b61031c6004803603810190610317919061200b565b610dd2565b60405161032a92919061208b565b60405180910390f35b61033b611169565b6040516103489190611dbc565b60405180910390f35b61036b60048036038101906103669190611e77565b6111fb565b6040516103789190611ed2565b60405180910390f35b61039b60048036038101906103969190611e77565b611272565b6040516103a89190611ed2565b60405180910390f35b6103b9611295565b6040516103c69190611efc565b60405180910390f35b6103e960048036038101906103e49190611fcb565b6112bb565b6040516103f69190611f26565b60405180910390f35b60606003805461040e906120e3565b80601f016020809104026020016040519081016040528092919081815260200182805461043a906120e3565b80156104875780601f1061045c57610100808354040283529160200191610487565b820191906000526020600020905b81548152906001019060200180831161046a57829003601f168201915b5050505050905090565b60008061049c611342565b90506104a981858561134a565b600191505092915050565b600560009054906101000a900473ffffffffffffffffffffffffffffffffffffffff1681565b6000600254905090565b6000806104ef611342565b90506104fc858285611513565b61050785858561159f565b60019150509392505050565b60006012905090565b600080610527611342565b905061054881858561053985896112bb565b6105439190612143565b61134a565b600191505092915050565b60075481565b600073ffffffffffffffffffffffffffffffffffffffff16600560009054906101000a900473ffffffffffffffffffffffffffffffffffffffff1673ffffffffffffffffffffffffffffffffffffffff161415806106065750600073ffffffffffffffffffffffffffffffffffffffff16600660009054906101000a900473ffffffffffffffffffffffffffffffffffffffff1673ffffffffffffffffffffffffffffffffffffffff1614155b15610646576040517f08c379a000000000000000000000000000000000000000000000000000000000815260040161063d906121e5565b60405180910390fd5b81600560006101000a81548173ffffffffffffffffffffffffffffffffffffffff021916908373ffffffffffffffffffffffffffffffffffffffff16021790555080600660006101000a81548173ffffffffffffffffffffffffffffffffffffffff021916908373ffffffffffffffffffffffffffffffffffffffff1602179055505050565b60085481565b600080600560009054906101000a900473ffffffffffffffffffffffffffffffffffffffff1673ffffffffffffffffffffffffffffffffffffffff166370a08231306040518263ffffffff1660e01b81526004016107309190611efc565b602060405180830381865afa15801561074d573d6000803e3d6000fd5b505050506040513d601f19601f82011682018060405250810190610771919061221a565b90506000600660009054906101000a900473ffffffffffffffffffffffffffffffffffffffff1673ffffffffffffffffffffffffffffffffffffffff166370a08231306040518263ffffffff1660e01b81526004016107d09190611efc565b602060405180830381865afa1580156107ed573d6000803e3d6000fd5b505050506040513d601f19601f82011682018060405250810190610811919061221a565b90506000600754836108239190612247565b90506000600854836108359190612247565b905060006108416104da565b0361087a576103e861085d8284610858919061227b565b61181e565b6108679190612247565b9450610875306103e86119cb565b6108c5565b6108c26007546108886104da565b84610893919061227b565b61089d9190612304565b6008546108a86104da565b846108b3919061227b565b6108bd9190612304565b611b2a565b94505b60008511610908576040517f08c379a00000000000000000000000000000000000000000000000000000000081526004016108ff906123a7565b60405180910390fd5b61091286866119cb565b83600781905550826008819055508573ffffffffffffffffffffffffffffffffffffffff167fb4c03061fb5b7fed76389d5af8f2e0ddb09f8c70d1333abbb62582835e10accb83838860405161096a939291906123c7565b60405180910390a250505050919050565b60008314801561098b5750600082145b156109cb576040517f08c379a00000000000000000000000000000000000000000000000000000000081526004016109c29061244a565b60405180910390fd5b6007548311806109dc575060085482115b15610a1c576040517f08c379a0000000000000000000000000000000000000000000000000000000008152600401610a13906124dc565b60405180910390fd5b600083600560009054906101000a900473ffffffffffffffffffffffffffffffffffffffff1673ffffffffffffffffffffffffffffffffffffffff166370a08231306040518263ffffffff1660e01b8152600401610a7a9190611efc565b602060405180830381865afa158015610a97573d6000803e3d6000fd5b505050506040513d601f19601f82011682018060405250810190610abb919061221a565b610ac59190612247565b9050600083600660009054906101000a900473ffffffffffffffffffffffffffffffffffffffff1673ffffffffffffffffffffffffffffffffffffffff166370a08231306040518263ffffffff1660e01b8152600401610b259190611efc565b602060405180830381865afa158015610b42573d6000803e3d6000fd5b505050506040513d601f19601f82011682018060405250810190610b66919061221a565b610b709190612247565b9050600854600754610b82919061227b565b8183610b8e919061227b565b1015610bcf576040517f08c379a0000000000000000000000000000000000000000000000000000000008152600401610bc69061256e565b60405180910390fd5b81600781905550806008819055506000851115610c8857600560009054906101000a900473ffffffffffffffffffffffffffffffffffffffff1673ffffffffffffffffffffffffffffffffffffffff1663a9059cbb84876040518363ffffffff1660e01b8152600401610c4392919061258e565b6020604051808303816000875af1158015610c62573d6000803e3d6000fd5b505050506040513d601f19601f82011682018060405250810190610c8691906125e3565b505b6000841115610d3357600660009054906101000a900473ffffffffffffffffffffffffffffffffffffffff1673ffffffffffffffffffffffffffffffffffffffff1663a9059cbb84866040518363ffffffff1660e01b8152600401610cee92919061258e565b6020604051808303816000875af1158015610d0d573d6000803e3d6000fd5b505050506040513d601f19601f82011682018060405250810190610d3191906125e3565b505b8273ffffffffffffffffffffffffffffffffffffffff167f77f92a1b6a1a11de8ca49515ad4c1fad45632dd3442167d74b90b304a3c7a7588686604051610d7b92919061208b565b60405180910390a25050505050565b60008060008373ffffffffffffffffffffffffffffffffffffffff1673ffffffffffffffffffffffffffffffffffffffff168152602001908152602001600020549050919050565b6000806000610de084610d8a565b9050610dea6104da565b60075482610df8919061227b565b610e029190612304565b9250610e0c6104da565b60085482610e1a919061227b565b610e249190612304565b91506000831480610e355750600082145b15610e75576040517f08c379a0000000000000000000000000000000000000000000000000000000008152600401610e6c90612682565b60405180910390fd5b610e7f8482611b43565b600560009054906101000a900473ffffffffffffffffffffffffffffffffffffffff1673ffffffffffffffffffffffffffffffffffffffff1663a9059cbb85856040518363ffffffff1660e01b8152600401610edc92919061258e565b6020604051808303816000875af1158015610efb573d6000803e3d6000fd5b505050506040513d601f19601f82011682018060405250810190610f1f91906125e3565b50600660009054906101000a900473ffffffffffffffffffffffffffffffffffffffff1673ffffffffffffffffffffffffffffffffffffffff1663a9059cbb85846040518363ffffffff1660e01b8152600401610f7d92919061258e565b6020604051808303816000875af1158015610f9c573d6000803e3d6000fd5b505050506040513d601f19601f82011682018060405250810190610fc091906125e3565b506000600560009054906101000a900473ffffffffffffffffffffffffffffffffffffffff1673ffffffffffffffffffffffffffffffffffffffff166370a08231306040518263ffffffff1660e01b815260040161101e9190611efc565b602060405180830381865afa15801561103b573d6000803e3d6000fd5b505050506040513d601f19601f8201168201806040525081019061105f919061221a565b90506000600660009054906101000a900473ffffffffffffffffffffffffffffffffffffffff1673ffffffffffffffffffffffffffffffffffffffff166370a08231306040518263ffffffff1660e01b81526004016110be9190611efc565b602060405180830381865afa1580156110db573d6000803e3d6000fd5b505050506040513d601f19601f820116820180604052508101906110ff919061221a565b905081600781905550806008819055508573ffffffffffffffffffffffffffffffffffffffff167f743033787f4738ff4d6a7225ce2bd0977ee5f86b91a902a58f5e4d0b297b4644868686604051611159939291906123c7565b60405180910390a2505050915091565b606060048054611178906120e3565b80601f01602080910402602001604051908101604052809291908181526020018280546111a4906120e3565b80156111f15780601f106111c6576101008083540402835291602001916111f1565b820191906000526020600020905b8154815290600101906020018083116111d457829003601f168201915b5050505050905090565b600080611206611342565b9050600061121482866112bb565b905083811015611259576040517f08c379a000000000000000000000000000000000000000000000000000000000815260040161125090612714565b60405180910390fd5b611266828686840361134a565b60019250505092915050565b60008061127d611342565b905061128a81858561159f565b600191505092915050565b600660009054906101000a900473ffffffffffffffffffffffffffffffffffffffff1681565b6000600160008473ffffffffffffffffffffffffffffffffffffffff1673ffffffffffffffffffffffffffffffffffffffff16815260200190815260200160002060008373ffffffffffffffffffffffffffffffffffffffff1673ffffffffffffffffffffffffffffffffffffffff16815260200190815260200160002054905092915050565b600033905090565b600073ffffffffffffffffffffffffffffffffffffffff168373ffffffffffffffffffffffffffffffffffffffff16036113b9576040517f08c379a00000000000000000000000000000000000000000000000000000000081526004016113b0906127a6565b60405180910390fd5b600073ffffffffffffffffffffffffffffffffffffffff168273ffffffffffffffffffffffffffffffffffffffff1603611428576040517f08c379a000000000000000000000000000000000000000000000000000000000815260040161141f90612838565b60405180910390fd5b80600160008573ffffffffffffffffffffffffffffffffffffffff1673ffffffffffffffffffffffffffffffffffffffff16815260200190815260200160002060008473ffffffffffffffffffffffffffffffffffffffff1673ffffffffffffffffffffffffffffffffffffffff168152602001908152602001600020819055508173ffffffffffffffffffffffffffffffffffffffff168373ffffffffffffffffffffffffffffffffffffffff167f8c5be1e5ebec7d5bd14f71427d1e84f3dd0314c0f7b2291e5b200ac8c7c3b925836040516115069190611f26565b60405180910390a3505050565b600061151f84846112bb565b90507fffffffffffffffffffffffffffffffffffffffffffffffffffffffffffffffff8114611599578181101561158b576040517f08c379a0000000000000000000000000000000000000000000000000000000008152600401611582906128a4565b60405180910390fd5b611598848484840361134a565b5b50505050565b600073ffffffffffffffffffffffffffffffffffffffff168373ffffffffffffffffffffffffffffffffffffffff160361160e576040517f08c379a000000000000000000000000000000000000000000000000000000000815260040161160590612936565b60405180910390fd5b600073ffffffffffffffffffffffffffffffffffffffff168273ffffffffffffffffffffffffffffffffffffffff160361167d576040517f08c379a0000000000000000000000000000000000000000000000000000000008152600401611674906129c8565b60405180910390fd5b611688838383611d19565b60008060008573ffffffffffffffffffffffffffffffffffffffff1673ffffffffffffffffffffffffffffffffffffffff1681526020019081526020016000205490508181101561170e576040517f08c379a000000000000000000000000000000000000000000000000000000000815260040161170590612a5a565b60405180910390fd5b8181036000808673ffffffffffffffffffffffffffffffffffffffff1673ffffffffffffffffffffffffffffffffffffffff16815260200190815260200160002081905550816000808573ffffffffffffffffffffffffffffffffffffffff1673ffffffffffffffffffffffffffffffffffffffff16815260200190815260200160002060008282546117a19190612143565b925050819055508273ffffffffffffffffffffffffffffffffffffffff168473ffffffffffffffffffffffffffffffffffffffff167fddf252ad1be2c89b69c2b068fc378daa952ba7f163c4a11628f55a4df523b3ef846040516118059190611f26565b60405180910390a3611818848484611d1e565b50505050565b600080820361183057600090506119c6565b60006001905060008390506000608082901c111561185757608081901c9050604082901b91505b6000604082901c111561187357604081901c9050602082901b91505b6000602082901c111561188f57602081901c9050601082901b91505b6000601082901c11156118ab57601081901c9050600882901b91505b6000600882901c11156118c757600881901c9050600482901b91505b6000600482901c11156118e357600481901c9050600282901b91505b6000600282901c11156118f857600182901b91505b600182858161190a576119096122d5565b5b048301901c91506001828581611923576119226122d5565b5b048301901c9150600182858161193c5761193b6122d5565b5b048301901c91506001828581611955576119546122d5565b5b048301901c9150600182858161196e5761196d6122d5565b5b048301901c91506001828581611987576119866122d5565b5b048301901c915060018285816119a05761199f6122d5565b5b048301901c91506119c1828386816119bb576119ba6122d5565b5b04611b2a565b925050505b919050565b600073ffffffffffffffffffffffffffffffffffffffff168273ffffffffffffffffffffffffffffffffffffffff1603611a3a576040517f08c379a0000000000000000000000000000000000000000000000000000000008152600401611a3190612ac6565b60405180910390fd5b611a4660008383611d19565b8060026000828254611a589190612143565b92505081905550806000808473ffffffffffffffffffffffffffffffffffffffff1673ffffffffffffffffffffffffffffffffffffffff1681526020019081526020016000206000828254611aad9190612143565b925050819055508173ffffffffffffffffffffffffffffffffffffffff16600073ffffffffffffffffffffffffffffffffffffffff167fddf252ad1be2c89b69c2b068fc378daa952ba7f163c4a11628f55a4df523b3ef83604051611b129190611f26565b60405180910390a3611b2660008383611d1e565b5050565b6000818310611b395781611b3b565b825b905092915050565b600073ffffffffffffffffffffffffffffffffffffffff168273ffffffffffffffffffffffffffffffffffffffff1603611bb2576040517f08c379a0000000000000000000000000000000000000000000000000000000008152600401611ba990612b58565b60405180910390fd5b611bbe82600083611d19565b60008060008473ffffffffffffffffffffffffffffffffffffffff1673ffffffffffffffffffffffffffffffffffffffff16815260200190815260200160002054905081811015611c44576040517f08c379a0000000000000000000000000000000000000000000000000000000008152600401611c3b90612bea565b60405180910390fd5b8181036000808573ffffffffffffffffffffffffffffffffffffffff1673ffffffffffffffffffffffffffffffffffffffff168152602001908152602001600020819055508160026000828254611c9b9190612247565b92505081905550600073ffffffffffffffffffffffffffffffffffffffff168373ffffffffffffffffffffffffffffffffffffffff167fddf252ad1be2c89b69c2b068fc378daa952ba7f163c4a11628f55a4df523b3ef84604051611d009190611f26565b60405180910390a3611d1483600084611d1e565b505050565b505050565b505050565b600081519050919050565b600082825260208201905092915050565b60005b83811015611d5d578082015181840152602081019050611d42565b83811115611d6c576000848401525b50505050565b6000601f19601f8301169050919050565b6000611d8e82611d23565b611d988185611d2e565b9350611da8818560208601611d3f565b611db181611d72565b840191505092915050565b60006020820190508181036000830152611dd68184611d83565b905092915050565b600080fd5b600073ffffffffffffffffffffffffffffffffffffffff82169050919050565b6000611e0e82611de3565b9050919050565b611e1e81611e03565b8114611e2957600080fd5b50565b600081359050611e3b81611e15565b92915050565b6000819050919050565b611e5481611e41565b8114611e5f57600080fd5b50565b600081359050611e7181611e4b565b92915050565b60008060408385031215611e8e57611e8d611dde565b5b6000611e9c85828601611e2c565b9250506020611ead85828601611e62565b9150509250929050565b60008115159050919050565b611ecc81611eb7565b82525050565b6000602082019050611ee76000830184611ec3565b92915050565b611ef681611e03565b82525050565b6000602082019050611f116000830184611eed565b92915050565b611f2081611e41565b82525050565b6000602082019050611f3b6000830184611f17565b92915050565b600080600060608486031215611f5a57611f59611dde565b5b6000611f6886828701611e2c565b9350506020611f7986828701611e2c565b9250506040611f8a86828701611e62565b9150509250925092565b600060ff82169050919050565b611faa81611f94565b82525050565b6000602082019050611fc56000830184611fa1565b92915050565b60008060408385031215611fe257611fe1611dde565b5b6000611ff085828601611e2c565b925050602061200185828601611e2c565b9150509250929050565b60006020828403121561202157612020611dde565b5b600061202f84828501611e2c565b91505092915050565b60008060006060848603121561205157612050611dde565b5b600061205f86828701611e62565b935050602061207086828701611e62565b925050604061208186828701611e2c565b9150509250925092565b60006040820190506120a06000830185611f17565b6120ad6020830184611f17565b9392505050565b7f4e487b7100000000000000000000000000000000000000000000000000000000600052602260045260246000fd5b600060028204905060018216806120fb57607f821691505b60208210810361210e5761210d6120b4565b5b50919050565b7f4e487b7100000000000000000000000000000000000000000000000000000000600052601160045260246000fd5b600061214e82611e41565b915061215983611e41565b9250827fffffffffffffffffffffffffffffffffffffffffffffffffffffffffffffffff0382111561218e5761218d612114565b5b828201905092915050565b7f5061697220616c726561647920696e697469616c697a65640000000000000000600082015250565b60006121cf601883611d2e565b91506121da82612199565b602082019050919050565b600060208201905081810360008301526121fe816121c2565b9050919050565b60008151905061221481611e4b565b92915050565b6000602082840312156122305761222f611dde565b5b600061223e84828501612205565b91505092915050565b600061225282611e41565b915061225d83611e41565b9250828210156122705761226f612114565b5b828203905092915050565b600061228682611e41565b915061229183611e41565b9250817fffffffffffffffffffffffffffffffffffffffffffffffffffffffffffffffff04831182151516156122ca576122c9612114565b5b828202905092915050565b7f4e487b7100000000000000000000000000000000000000000000000000000000600052601260045260246000fd5b600061230f82611e41565b915061231a83611e41565b92508261232a576123296122d5565b5b828204905092915050565b7f496e73756666696369656e74206c697175696469747920746f6b656e73206d6960008201527f6e74656421000000000000000000000000000000000000000000000000000000602082015250565b6000612391602583611d2e565b915061239c82612335565b604082019050919050565b600060208201905081810360008301526123c081612384565b9050919050565b60006060820190506123dc6000830186611f17565b6123e96020830185611f17565b6123f66040830184611f17565b949350505050565b7f5a65726f206f757470757420616d6f756e747300000000000000000000000000600082015250565b6000612434601383611d2e565b915061243f826123fe565b602082019050919050565b6000602082019050818103600083015261246381612427565b9050919050565b7f4f757470757420616d6f756e742069732067726561746572207468616e20726560008201527f7365727665000000000000000000000000000000000000000000000000000000602082015250565b60006124c6602583611d2e565b91506124d18261246a565b604082019050919050565b600060208201905081810360008301526124f5816124b9565b9050919050565b7f4e65772070726f64756374206f66207265736572766573206973206c6573732060008201527f7468616e2070726576696f757300000000000000000000000000000000000000602082015250565b6000612558602d83611d2e565b9150612563826124fc565b604082019050919050565b600060208201905081810360008301526125878161254b565b9050919050565b60006040820190506125a36000830185611eed565b6125b06020830184611f17565b9392505050565b6125c081611eb7565b81146125cb57600080fd5b50565b6000815190506125dd816125b7565b92915050565b6000602082840312156125f9576125f8611dde565b5b6000612607848285016125ce565b91505092915050565b7f496e73756666696369656e74206c697175696469747920746f6b656e7320627560008201527f726e656421000000000000000000000000000000000000000000000000000000602082015250565b600061266c602583611d2e565b915061267782612610565b604082019050919050565b6000602082019050818103600083015261269b8161265f565b9050919050565b7f45524332303a2064656372656173656420616c6c6f77616e63652062656c6f7760008201527f207a65726f000000000000000000000000000000000000000000000000000000602082015250565b60006126fe602583611d2e565b9150612709826126a2565b604082019050919050565b6000602082019050818103600083015261272d816126f1565b9050919050565b7f45524332303a20617070726f76652066726f6d20746865207a65726f2061646460008201527f7265737300000000000000000000000000000000000000000000000000000000602082015250565b6000612790602483611d2e565b915061279b82612734565b604082019050919050565b600060208201905081810360008301526127bf81612783565b9050919050565b7f45524332303a20617070726f766520746f20746865207a65726f20616464726560008201527f7373000000000000000000000000000000000000000000000000000000000000602082015250565b6000612822602283611d2e565b915061282d826127c6565b604082019050919050565b6000602082019050818103600083015261285181612815565b9050919050565b7f45524332303a20696e73756666696369656e7420616c6c6f77616e6365000000600082015250565b600061288e601d83611d2e565b915061289982612858565b602082019050919050565b600060208201905081810360008301526128bd81612881565b9050919050565b7f45524332303a207472616e736665722066726f6d20746865207a65726f20616460008201527f6472657373000000000000000000000000000000000000000000000000000000602082015250565b6000612920602583611d2e565b915061292b826128c4565b604082019050919050565b6000602082019050818103600083015261294f81612913565b9050919050565b7f45524332303a207472616e7366657220746f20746865207a65726f206164647260008201527f6573730000000000000000000000000000000000000000000000000000000000602082015250565b60006129b2602383611d2e565b91506129bd82612956565b604082019050919050565b600060208201905081810360008301526129e1816129a5565b9050919050565b7f45524332303a207472616e7366657220616d6f756e742065786365656473206260008201527f616c616e63650000000000000000000000000000000000000000000000000000602082015250565b6000612a44602683611d2e565b9150612a4f826129e8565b604082019050919050565b60006020820190508181036000830152612a7381612a37565b9050919050565b7f45524332303a206d696e7420746f20746865207a65726f206164647265737300600082015250565b6000612ab0601f83611d2e565b9150612abb82612a7a565b602082019050919050565b60006020820190508181036000830152612adf81612aa3565b9050919050565b7f45524332303a206275726e2066726f6d20746865207a65726f2061646472657360008201527f7300000000000000000000000000000000000000000000000000000000000000602082015250565b6000612b42602183611d2e565b9150612b4d82612ae6565b604082019050919050565b60006020820190508181036000830152612b7181612b35565b9050919050565b7f45524332303a206275726e20616d6f756e7420657863656564732062616c616e60008201527f6365000000000000000000000000000000000000000000000000000000000000602082015250565b6000612bd4602283611d2e565b9150612bdf82612b78565b604082019050919050565b60006020820190508181036000830152612c0381612bc7565b905091905056fea2646970667358221220ea34506cda9d87e23bf81141be5944e30c2baa1a19ba69de146e1ec77c8d1d1264736f6c634300080f0033",
  "immutableReferences": {},
  "source": "// SPDX-License-Identifier: MIT\npragma solidity ^0.8.15;\n\nimport \"@openzeppelin/contracts/utils/math/Math.sol\";\nimport \"@openzeppelin/contracts/token/ERC20/ERC20.sol\";\n\ncontract Pair is ERC20 {\n  uint256 constant MINIMUM_LIQUIDITY = 1000;\n\n  address public token0;\n  address public token1;\n\n  uint256 public reserve0;\n  uint256 public reserve1;\n\n  event Mint(address indexed sender, uint256 amount0, uint256 amount1, uint256 minted);\n  event Burn(address indexed sender, uint256 amount0, uint256 amount1, uint256 burned);\n  event Swap(address indexed sender, uint256 amount0, uint256 amount1);\n\n  constructor() ERC20(\"Liquidity Provider Token\", \"LPT\") {}\n\n  function initialize(address _token0, address _token1) public {\n    if (token0 != address(0) || token1 != address(0)) {\n      revert(\"Pair already initialized\");\n    }\n\n    token0 = _token0;\n    token1 = _token1;\n  }\n  \n  function mint(address to) public returns (uint256 mintedLP) {\n    uint256 balance0 = ERC20(token0).balanceOf(address(this));\n    uint256 balance1 = ERC20(token1).balanceOf(address(this));\n    \n    uint256 amount0 = balance0 - reserve0;\n    uint256 amount1 = balance1 - reserve1;\n\n    if (totalSupply() == 0) {\n      mintedLP = Math.sqrt(amount0 * amount1) - MINIMUM_LIQUIDITY;\n      _mint(address(this), MINIMUM_LIQUIDITY);\n    } else {\n      mintedLP = Math.min(\n        (amount0 * totalSupply()) / reserve0, \n        (amount1 * totalSupply()) / reserve1\n      );\n    }\n\n    if (mintedLP <= 0) {\n      revert('Insufficient liquidity tokens minted!');\n    }\n\n    _mint(to, mintedLP);\n\n    reserve0 = balance0;\n    reserve1 = balance1;\n\n    emit Mint(to, amount0, amount1, mintedLP);\n  }\n\n  function burn(address to) public returns (uint256 amount0, uint256 amount1) {\n    uint256 lpTokens = balanceOf(to);\n\n    amount0 = (lpTokens * reserve0) / totalSupply();\n    amount1 = (lpTokens * reserve1) / totalSupply();\n\n    if (amount0 == 0 || amount1 == 0) {\n      revert('Insufficient liquidity tokens burned!');\n    }\n\n    _burn(to, lpTokens);\n\n    ERC20(token0).transfer(to, amount0);\n    ERC20(token1).transfer(to, amount1);\n\n    uint256 balance0 = ERC20(token0).balanceOf(address(this));\n    uint256 balance1 = ERC20(token1).balanceOf(address(this));\n\n    reserve0 = balance0;\n    reserve1 = balance1;\n\n    emit Burn(to, amount0, amount1, lpTokens);\n  }\n\n  function swap(uint256 amount0Out, uint256 amount1Out, address to) public {\n    if (amount0Out == 0 && amount1Out == 0) {\n      revert('Zero output amounts');\n    }\n\n    if (amount0Out > reserve0 || amount1Out > reserve1) {\n      revert('Output amount is greater than reserve');\n    }\n\n    uint256 balance0 = ERC20(token0).balanceOf(address(this)) - amount0Out;\n    uint256 balance1 = ERC20(token1).balanceOf(address(this)) - amount1Out;\n\n    if (balance0 * balance1 < reserve0 * reserve1) {\n      revert('New product of reserves is less than previous');\n    }\n\n    reserve0 = balance0;\n    reserve1 = balance1;\n\n    if (amount0Out > 0) {\n      ERC20(token0).transfer(to, amount0Out);\n    }\n\n    if (amount1Out > 0) {\n      ERC20(token1).transfer(to, amount1Out);\n    }\n\n    emit Swap(to, amount0Out, amount1Out);\n  }\n}\n",
  "sourcePath": "/Users/lambros/Downloads/my-crypto-exchange/contracts/Pair.sol",
  "compiler": {
    "name": "solc",
    "version": "0.8.15+commit.e14f2714.Emscripten.clang"
  },
  "schemaVersion": "3.4.8",
  "updatedAt": "2022-08-27T20:28:14.997Z",
  "devdoc": {
    "kind": "dev",
    "methods": {
      "allowance(address,address)": {
        "details": "See {IERC20-allowance}."
      },
      "approve(address,uint256)": {
        "details": "See {IERC20-approve}. NOTE: If `amount` is the maximum `uint256`, the allowance is not updated on `transferFrom`. This is semantically equivalent to an infinite approval. Requirements: - `spender` cannot be the zero address."
      },
      "balanceOf(address)": {
        "details": "See {IERC20-balanceOf}."
      },
      "decimals()": {
        "details": "Returns the number of decimals used to get its user representation. For example, if `decimals` equals `2`, a balance of `505` tokens should be displayed to a user as `5.05` (`505 / 10 ** 2`). Tokens usually opt for a value of 18, imitating the relationship between Ether and Wei. This is the value {ERC20} uses, unless this function is overridden; NOTE: This information is only used for _display_ purposes: it in no way affects any of the arithmetic of the contract, including {IERC20-balanceOf} and {IERC20-transfer}."
      },
      "decreaseAllowance(address,uint256)": {
        "details": "Atomically decreases the allowance granted to `spender` by the caller. This is an alternative to {approve} that can be used as a mitigation for problems described in {IERC20-approve}. Emits an {Approval} event indicating the updated allowance. Requirements: - `spender` cannot be the zero address. - `spender` must have allowance for the caller of at least `subtractedValue`."
      },
      "increaseAllowance(address,uint256)": {
        "details": "Atomically increases the allowance granted to `spender` by the caller. This is an alternative to {approve} that can be used as a mitigation for problems described in {IERC20-approve}. Emits an {Approval} event indicating the updated allowance. Requirements: - `spender` cannot be the zero address."
      },
      "name()": {
        "details": "Returns the name of the token."
      },
      "symbol()": {
        "details": "Returns the symbol of the token, usually a shorter version of the name."
      },
      "totalSupply()": {
        "details": "See {IERC20-totalSupply}."
      },
      "transfer(address,uint256)": {
        "details": "See {IERC20-transfer}. Requirements: - `to` cannot be the zero address. - the caller must have a balance of at least `amount`."
      },
      "transferFrom(address,address,uint256)": {
        "details": "See {IERC20-transferFrom}. Emits an {Approval} event indicating the updated allowance. This is not required by the EIP. See the note at the beginning of {ERC20}. NOTE: Does not update the allowance if the current allowance is the maximum `uint256`. Requirements: - `from` and `to` cannot be the zero address. - `from` must have a balance of at least `amount`. - the caller must have allowance for ``from``'s tokens of at least `amount`."
      }
    },
    "version": 1
  },
  "userdoc": {
    "kind": "user",
    "methods": {},
    "version": 1
  }
}