{
  "contractName": "Pair",
  "abi": [
    {
      "inputs": [],
      "stateMutability": "nonpayable",
      "type": "constructor"
    },
    {
      "anonymous": false,
      "inputs": [
        {
          "indexed": true,
          "internalType": "address",
          "name": "owner",
          "type": "address"
        },
        {
          "indexed": true,
          "internalType": "address",
          "name": "spender",
          "type": "address"
        },
        {
          "indexed": false,
          "internalType": "uint256",
          "name": "value",
          "type": "uint256"
        }
      ],
      "name": "Approval",
      "type": "event"
    },
    {
      "anonymous": false,
      "inputs": [
        {
          "indexed": true,
          "internalType": "address",
          "name": "sender",
          "type": "address"
        },
        {
          "indexed": false,
          "internalType": "uint256",
          "name": "amount0",
          "type": "uint256"
        },
        {
          "indexed": false,
          "internalType": "uint256",
          "name": "amount1",
          "type": "uint256"
        },
        {
          "indexed": false,
          "internalType": "uint256",
          "name": "burned",
          "type": "uint256"
        },
        {
          "indexed": true,
          "internalType": "address",
          "name": "to",
          "type": "address"
        }
      ],
      "name": "Burn",
      "type": "event"
    },
    {
      "anonymous": false,
      "inputs": [
        {
          "indexed": true,
          "internalType": "address",
          "name": "sender",
          "type": "address"
        },
        {
          "indexed": false,
          "internalType": "uint256",
          "name": "amount0",
          "type": "uint256"
        },
        {
          "indexed": false,
          "internalType": "uint256",
          "name": "amount1",
          "type": "uint256"
        },
        {
          "indexed": false,
          "internalType": "uint256",
          "name": "minte",
          "type": "uint256"
        },
        {
          "indexed": true,
          "internalType": "address",
          "name": "to",
          "type": "address"
        }
      ],
      "name": "Mint",
      "type": "event"
    },
    {
      "anonymous": false,
      "inputs": [
        {
          "indexed": true,
          "internalType": "address",
          "name": "sender",
          "type": "address"
        },
        {
          "indexed": false,
          "internalType": "uint256",
          "name": "amount0",
          "type": "uint256"
        },
        {
          "indexed": false,
          "internalType": "uint256",
          "name": "amount1",
          "type": "uint256"
        },
        {
          "indexed": true,
          "internalType": "address",
          "name": "to",
          "type": "address"
        }
      ],
      "name": "Swap",
      "type": "event"
    },
    {
      "anonymous": false,
      "inputs": [
        {
          "indexed": true,
          "internalType": "address",
          "name": "from",
          "type": "address"
        },
        {
          "indexed": true,
          "internalType": "address",
          "name": "to",
          "type": "address"
        },
        {
          "indexed": false,
          "internalType": "uint256",
          "name": "value",
          "type": "uint256"
        }
      ],
      "name": "Transfer",
      "type": "event"
    },
    {
      "inputs": [
        {
          "internalType": "address",
          "name": "owner",
          "type": "address"
        },
        {
          "internalType": "address",
          "name": "spender",
          "type": "address"
        }
      ],
      "name": "allowance",
      "outputs": [
        {
          "internalType": "uint256",
          "name": "",
          "type": "uint256"
        }
      ],
      "stateMutability": "view",
      "type": "function",
      "constant": true
    },
    {
      "inputs": [
        {
          "internalType": "address",
          "name": "spender",
          "type": "address"
        },
        {
          "internalType": "uint256",
          "name": "amount",
          "type": "uint256"
        }
      ],
      "name": "approve",
      "outputs": [
        {
          "internalType": "bool",
          "name": "",
          "type": "bool"
        }
      ],
      "stateMutability": "nonpayable",
      "type": "function"
    },
    {
      "inputs": [
        {
          "internalType": "address",
          "name": "account",
          "type": "address"
        }
      ],
      "name": "balanceOf",
      "outputs": [
        {
          "internalType": "uint256",
          "name": "",
          "type": "uint256"
        }
      ],
      "stateMutability": "view",
      "type": "function",
      "constant": true
    },
    {
      "inputs": [],
      "name": "decimals",
      "outputs": [
        {
          "internalType": "uint8",
          "name": "",
          "type": "uint8"
        }
      ],
      "stateMutability": "view",
      "type": "function",
      "constant": true
    },
    {
      "inputs": [
        {
          "internalType": "address",
          "name": "spender",
          "type": "address"
        },
        {
          "internalType": "uint256",
          "name": "subtractedValue",
          "type": "uint256"
        }
      ],
      "name": "decreaseAllowance",
      "outputs": [
        {
          "internalType": "bool",
          "name": "",
          "type": "bool"
        }
      ],
      "stateMutability": "nonpayable",
      "type": "function"
    },
    {
      "inputs": [
        {
          "internalType": "address",
          "name": "spender",
          "type": "address"
        },
        {
          "internalType": "uint256",
          "name": "addedValue",
          "type": "uint256"
        }
      ],
      "name": "increaseAllowance",
      "outputs": [
        {
          "internalType": "bool",
          "name": "",
          "type": "bool"
        }
      ],
      "stateMutability": "nonpayable",
      "type": "function"
    },
    {
      "inputs": [],
      "name": "name",
      "outputs": [
        {
          "internalType": "string",
          "name": "",
          "type": "string"
        }
      ],
      "stateMutability": "view",
      "type": "function",
      "constant": true
    },
    {
      "inputs": [],
      "name": "reserve0",
      "outputs": [
        {
          "internalType": "uint256",
          "name": "",
          "type": "uint256"
        }
      ],
      "stateMutability": "view",
      "type": "function",
      "constant": true
    },
    {
      "inputs": [],
      "name": "reserve1",
      "outputs": [
        {
          "internalType": "uint256",
          "name": "",
          "type": "uint256"
        }
      ],
      "stateMutability": "view",
      "type": "function",
      "constant": true
    },
    {
      "inputs": [],
      "name": "symbol",
      "outputs": [
        {
          "internalType": "string",
          "name": "",
          "type": "string"
        }
      ],
      "stateMutability": "view",
      "type": "function",
      "constant": true
    },
    {
      "inputs": [],
      "name": "token0",
      "outputs": [
        {
          "internalType": "address",
          "name": "",
          "type": "address"
        }
      ],
      "stateMutability": "view",
      "type": "function",
      "constant": true
    },
    {
      "inputs": [],
      "name": "token1",
      "outputs": [
        {
          "internalType": "address",
          "name": "",
          "type": "address"
        }
      ],
      "stateMutability": "view",
      "type": "function",
      "constant": true
    },
    {
      "inputs": [],
      "name": "totalSupply",
      "outputs": [
        {
          "internalType": "uint256",
          "name": "",
          "type": "uint256"
        }
      ],
      "stateMutability": "view",
      "type": "function",
      "constant": true
    },
    {
      "inputs": [
        {
          "internalType": "address",
          "name": "to",
          "type": "address"
        },
        {
          "internalType": "uint256",
          "name": "amount",
          "type": "uint256"
        }
      ],
      "name": "transfer",
      "outputs": [
        {
          "internalType": "bool",
          "name": "",
          "type": "bool"
        }
      ],
      "stateMutability": "nonpayable",
      "type": "function"
    },
    {
      "inputs": [
        {
          "internalType": "address",
          "name": "from",
          "type": "address"
        },
        {
          "internalType": "address",
          "name": "to",
          "type": "address"
        },
        {
          "internalType": "uint256",
          "name": "amount",
          "type": "uint256"
        }
      ],
      "name": "transferFrom",
      "outputs": [
        {
          "internalType": "bool",
          "name": "",
          "type": "bool"
        }
      ],
      "stateMutability": "nonpayable",
      "type": "function"
    },
    {
      "inputs": [
        {
          "internalType": "address",
          "name": "_token0",
          "type": "address"
        },
        {
          "internalType": "address",
          "name": "_token1",
          "type": "address"
        }
      ],
      "name": "initialize",
      "outputs": [],
      "stateMutability": "nonpayable",
      "type": "function"
    },
    {
      "inputs": [
        {
          "internalType": "address",
          "name": "to",
          "type": "address"
        }
      ],
      "name": "mint",
      "outputs": [
        {
          "internalType": "uint256",
          "name": "lpTokens",
          "type": "uint256"
        }
      ],
      "stateMutability": "nonpayable",
      "type": "function"
    },
    {
      "inputs": [
        {
          "internalType": "address",
          "name": "to",
          "type": "address"
        },
        {
          "internalType": "uint256",
          "name": "lpTokens",
          "type": "uint256"
        }
      ],
      "name": "burn",
      "outputs": [
        {
          "internalType": "uint256",
          "name": "amount0",
          "type": "uint256"
        },
        {
          "internalType": "uint256",
          "name": "amount1",
          "type": "uint256"
        }
      ],
      "stateMutability": "nonpayable",
      "type": "function"
    },
    {
      "inputs": [
        {
          "internalType": "uint256",
          "name": "amount0Out",
          "type": "uint256"
        },
        {
          "internalType": "uint256",
          "name": "amount1Out",
          "type": "uint256"
        },
        {
          "internalType": "address",
          "name": "to",
          "type": "address"
        }
      ],
      "name": "swap",
      "outputs": [],
      "stateMutability": "nonpayable",
      "type": "function"
    }
  ],
  "bytecode": "0x60806040523480156200001157600080fd5b506040518060400160405280601881526020017f4c69717569646974792050726f766964657220546f6b656e00000000000000008152506040518060400160405280600381526020017f4c5054000000000000000000000000000000000000000000000000000000000081525081600390816200008f919062000324565b508060049081620000a1919062000324565b5050506200040b565b600081519050919050565b7f4e487b7100000000000000000000000000000000000000000000000000000000600052604160045260246000fd5b7f4e487b7100000000000000000000000000000000000000000000000000000000600052602260045260246000fd5b600060028204905060018216806200012c57607f821691505b602082108103620001425762000141620000e4565b5b50919050565b60008190508160005260206000209050919050565b60006020601f8301049050919050565b600082821b905092915050565b600060088302620001ac7fffffffffffffffffffffffffffffffffffffffffffffffffffffffffffffffff826200016d565b620001b886836200016d565b95508019841693508086168417925050509392505050565b6000819050919050565b6000819050919050565b600062000205620001ff620001f984620001d0565b620001da565b620001d0565b9050919050565b6000819050919050565b6200022183620001e4565b6200023962000230826200020c565b8484546200017a565b825550505050565b600090565b6200025062000241565b6200025d81848462000216565b505050565b5b8181101562000285576200027960008262000246565b60018101905062000263565b5050565b601f821115620002d4576200029e8162000148565b620002a9846200015d565b81016020851015620002b9578190505b620002d1620002c8856200015d565b83018262000262565b50505b505050565b600082821c905092915050565b6000620002f960001984600802620002d9565b1980831691505092915050565b6000620003148383620002e6565b9150826002028217905092915050565b6200032f82620000aa565b67ffffffffffffffff8111156200034b576200034a620000b5565b5b62000357825462000113565b6200036482828562000289565b600060209050601f8311600181146200039c576000841562000387578287015190505b62000393858262000306565b86555062000403565b601f198416620003ac8662000148565b60005b82811015620003d657848901518255600182019150602085019450602081019050620003af565b86831015620003f65784890151620003f2601f891682620002e6565b8355505b6001600288020188555050505b505050505050565b612c79806200041b6000396000f3fe608060405234801561001057600080fd5b50600436106101215760003560e01c80635a76f25e116100ad5780639dc29fac116100715780639dc29fac14610320578063a457c2d714610351578063a9059cbb14610381578063d21220a7146103b1578063dd62ed3e146103cf57610121565b80635a76f25e146102685780636a627842146102865780636d9a640a146102b657806370a08231146102d257806395d89b411461030257610121565b806323b872dd116100f457806323b872dd146101b0578063313ce567146101e057806339509351146101fe578063443cb4bc1461022e578063485cc9551461024c57610121565b806306fdde0314610126578063095ea7b3146101445780630dfe16811461017457806318160ddd14610192575b600080fd5b61012e6103ff565b60405161013b9190611df5565b60405180910390f35b61015e60048036038101906101599190611eb0565b610491565b60405161016b9190611f0b565b60405180910390f35b61017c6104b4565b6040516101899190611f35565b60405180910390f35b61019a6104da565b6040516101a79190611f5f565b60405180910390f35b6101ca60048036038101906101c59190611f7a565b6104e4565b6040516101d79190611f0b565b60405180910390f35b6101e8610513565b6040516101f59190611fe9565b60405180910390f35b61021860048036038101906102139190611eb0565b61051c565b6040516102259190611f0b565b60405180910390f35b610236610553565b6040516102439190611f5f565b60405180910390f35b61026660048036038101906102619190612004565b610559565b005b6102706106cc565b60405161027d9190611f5f565b60405180910390f35b6102a0600480360381019061029b9190612044565b6106d2565b6040516102ad9190611f5f565b60405180910390f35b6102d060048036038101906102cb9190612071565b610992565b005b6102ec60048036038101906102e79190612044565b610db8565b6040516102f99190611f5f565b60405180910390f35b61030a610e00565b6040516103179190611df5565b60405180910390f35b61033a60048036038101906103359190611eb0565b610e92565b6040516103489291906120c4565b60405180910390f35b61036b60048036038101906103669190611eb0565b611234565b6040516103789190611f0b565b60405180910390f35b61039b60048036038101906103969190611eb0565b6112ab565b6040516103a89190611f0b565b60405180910390f35b6103b96112ce565b6040516103c69190611f35565b60405180910390f35b6103e960048036038101906103e49190612004565b6112f4565b6040516103f69190611f5f565b60405180910390f35b60606003805461040e9061211c565b80601f016020809104026020016040519081016040528092919081815260200182805461043a9061211c565b80156104875780601f1061045c57610100808354040283529160200191610487565b820191906000526020600020905b81548152906001019060200180831161046a57829003601f168201915b5050505050905090565b60008061049c61137b565b90506104a9818585611383565b600191505092915050565b600560009054906101000a900473ffffffffffffffffffffffffffffffffffffffff1681565b6000600254905090565b6000806104ef61137b565b90506104fc85828561154c565b6105078585856115d8565b60019150509392505050565b60006012905090565b60008061052761137b565b905061054881858561053985896112f4565b610543919061217c565b611383565b600191505092915050565b60075481565b600073ffffffffffffffffffffffffffffffffffffffff16600560009054906101000a900473ffffffffffffffffffffffffffffffffffffffff1673ffffffffffffffffffffffffffffffffffffffff161415806106065750600073ffffffffffffffffffffffffffffffffffffffff16600660009054906101000a900473ffffffffffffffffffffffffffffffffffffffff1673ffffffffffffffffffffffffffffffffffffffff1614155b15610646576040517f08c379a000000000000000000000000000000000000000000000000000000000815260040161063d9061221e565b60405180910390fd5b81600560006101000a81548173ffffffffffffffffffffffffffffffffffffffff021916908373ffffffffffffffffffffffffffffffffffffffff16021790555080600660006101000a81548173ffffffffffffffffffffffffffffffffffffffff021916908373ffffffffffffffffffffffffffffffffffffffff1602179055505050565b60085481565b600080600560009054906101000a900473ffffffffffffffffffffffffffffffffffffffff1673ffffffffffffffffffffffffffffffffffffffff166370a08231306040518263ffffffff1660e01b81526004016107309190611f35565b602060405180830381865afa15801561074d573d6000803e3d6000fd5b505050506040513d601f19601f820116820180604052508101906107719190612253565b90506000600660009054906101000a900473ffffffffffffffffffffffffffffffffffffffff1673ffffffffffffffffffffffffffffffffffffffff166370a08231306040518263ffffffff1660e01b81526004016107d09190611f35565b602060405180830381865afa1580156107ed573d6000803e3d6000fd5b505050506040513d601f19601f820116820180604052508101906108119190612253565b90506000600754836108239190612280565b90506000600854836108359190612280565b905060006108416104da565b0361087a576103e861085d828461085891906122b4565b611857565b6108679190612280565b9450610875306103e8611a04565b6108c5565b6108c26007546108886104da565b8461089391906122b4565b61089d919061233d565b6008546108a86104da565b846108b391906122b4565b6108bd919061233d565b611b63565b94505b60008511610908576040517f08c379a00000000000000000000000000000000000000000000000000000000081526004016108ff906123e0565b60405180910390fd5b6109128686611a04565b83600781905550826008819055508573ffffffffffffffffffffffffffffffffffffffff163373ffffffffffffffffffffffffffffffffffffffff167fa8137fff86647d8a402117b9c5dbda627f721d3773338fb9678c83e54ed3908084848960405161098193929190612400565b60405180910390a350505050919050565b6000831480156109a25750600082145b156109e2576040517f08c379a00000000000000000000000000000000000000000000000000000000081526004016109d990612483565b60405180910390fd5b6007548311806109f3575060085482115b15610a33576040517f08c379a0000000000000000000000000000000000000000000000000000000008152600401610a2a90612515565b60405180910390fd5b600083600560009054906101000a900473ffffffffffffffffffffffffffffffffffffffff1673ffffffffffffffffffffffffffffffffffffffff166370a08231306040518263ffffffff1660e01b8152600401610a919190611f35565b602060405180830381865afa158015610aae573d6000803e3d6000fd5b505050506040513d601f19601f82011682018060405250810190610ad29190612253565b610adc9190612280565b9050600083600660009054906101000a900473ffffffffffffffffffffffffffffffffffffffff1673ffffffffffffffffffffffffffffffffffffffff166370a08231306040518263ffffffff1660e01b8152600401610b3c9190611f35565b602060405180830381865afa158015610b59573d6000803e3d6000fd5b505050506040513d601f19601f82011682018060405250810190610b7d9190612253565b610b879190612280565b9050600854600754610b9991906122b4565b8183610ba591906122b4565b1015610be6576040517f08c379a0000000000000000000000000000000000000000000000000000000008152600401610bdd906125a7565b60405180910390fd5b81600781905550806008819055506000851115610c9f57600560009054906101000a900473ffffffffffffffffffffffffffffffffffffffff1673ffffffffffffffffffffffffffffffffffffffff1663a9059cbb84876040518363ffffffff1660e01b8152600401610c5a9291906125c7565b6020604051808303816000875af1158015610c79573d6000803e3d6000fd5b505050506040513d601f19601f82011682018060405250810190610c9d919061261c565b505b6000841115610d4a57600660009054906101000a900473ffffffffffffffffffffffffffffffffffffffff1673ffffffffffffffffffffffffffffffffffffffff1663a9059cbb84866040518363ffffffff1660e01b8152600401610d059291906125c7565b6020604051808303816000875af1158015610d24573d6000803e3d6000fd5b505050506040513d601f19601f82011682018060405250810190610d48919061261c565b505b8273ffffffffffffffffffffffffffffffffffffffff163373ffffffffffffffffffffffffffffffffffffffff167f2a9237ff5aa599ef4c5ee4b1142b53429d5755e2685fe6288b2e3320202115f58787604051610da99291906120c4565b60405180910390a35050505050565b60008060008373ffffffffffffffffffffffffffffffffffffffff1673ffffffffffffffffffffffffffffffffffffffff168152602001908152602001600020549050919050565b606060048054610e0f9061211c565b80601f0160208091040260200160405190810160405280929190818152602001828054610e3b9061211c565b8015610e885780601f10610e5d57610100808354040283529160200191610e88565b820191906000526020600020905b815481529060010190602001808311610e6b57829003601f168201915b5050505050905090565b600080610e9d6104da565b60075484610eab91906122b4565b610eb5919061233d565b9150610ebf6104da565b60085484610ecd91906122b4565b610ed7919061233d565b90506000821480610ee85750600081145b15610f28576040517f08c379a0000000000000000000000000000000000000000000000000000000008152600401610f1f906126bb565b60405180910390fd5b610f328484611b7c565b600560009054906101000a900473ffffffffffffffffffffffffffffffffffffffff1673ffffffffffffffffffffffffffffffffffffffff1663a9059cbb85846040518363ffffffff1660e01b8152600401610f8f9291906125c7565b6020604051808303816000875af1158015610fae573d6000803e3d6000fd5b505050506040513d601f19601f82011682018060405250810190610fd2919061261c565b50600660009054906101000a900473ffffffffffffffffffffffffffffffffffffffff1673ffffffffffffffffffffffffffffffffffffffff1663a9059cbb85836040518363ffffffff1660e01b81526004016110309291906125c7565b6020604051808303816000875af115801561104f573d6000803e3d6000fd5b505050506040513d601f19601f82011682018060405250810190611073919061261c565b506000600560009054906101000a900473ffffffffffffffffffffffffffffffffffffffff1673ffffffffffffffffffffffffffffffffffffffff166370a08231306040518263ffffffff1660e01b81526004016110d19190611f35565b602060405180830381865afa1580156110ee573d6000803e3d6000fd5b505050506040513d601f19601f820116820180604052508101906111129190612253565b90506000600660009054906101000a900473ffffffffffffffffffffffffffffffffffffffff1673ffffffffffffffffffffffffffffffffffffffff166370a08231306040518263ffffffff1660e01b81526004016111719190611f35565b602060405180830381865afa15801561118e573d6000803e3d6000fd5b505050506040513d601f19601f820116820180604052508101906111b29190612253565b905081600781905550806008819055508573ffffffffffffffffffffffffffffffffffffffff163373ffffffffffffffffffffffffffffffffffffffff167fd175a80c109434bb89948928ab2475a6647c94244cb70002197896423c88336386868960405161122393929190612400565b60405180910390a350509250929050565b60008061123f61137b565b9050600061124d82866112f4565b905083811015611292576040517f08c379a00000000000000000000000000000000000000000000000000000000081526004016112899061274d565b60405180910390fd5b61129f8286868403611383565b60019250505092915050565b6000806112b661137b565b90506112c38185856115d8565b600191505092915050565b600660009054906101000a900473ffffffffffffffffffffffffffffffffffffffff1681565b6000600160008473ffffffffffffffffffffffffffffffffffffffff1673ffffffffffffffffffffffffffffffffffffffff16815260200190815260200160002060008373ffffffffffffffffffffffffffffffffffffffff1673ffffffffffffffffffffffffffffffffffffffff16815260200190815260200160002054905092915050565b600033905090565b600073ffffffffffffffffffffffffffffffffffffffff168373ffffffffffffffffffffffffffffffffffffffff16036113f2576040517f08c379a00000000000000000000000000000000000000000000000000000000081526004016113e9906127df565b60405180910390fd5b600073ffffffffffffffffffffffffffffffffffffffff168273ffffffffffffffffffffffffffffffffffffffff1603611461576040517f08c379a000000000000000000000000000000000000000000000000000000000815260040161145890612871565b60405180910390fd5b80600160008573ffffffffffffffffffffffffffffffffffffffff1673ffffffffffffffffffffffffffffffffffffffff16815260200190815260200160002060008473ffffffffffffffffffffffffffffffffffffffff1673ffffffffffffffffffffffffffffffffffffffff168152602001908152602001600020819055508173ffffffffffffffffffffffffffffffffffffffff168373ffffffffffffffffffffffffffffffffffffffff167f8c5be1e5ebec7d5bd14f71427d1e84f3dd0314c0f7b2291e5b200ac8c7c3b9258360405161153f9190611f5f565b60405180910390a3505050565b600061155884846112f4565b90507fffffffffffffffffffffffffffffffffffffffffffffffffffffffffffffffff81146115d257818110156115c4576040517f08c379a00000000000000000000000000000000000000000000000000000000081526004016115bb906128dd565b60405180910390fd5b6115d18484848403611383565b5b50505050565b600073ffffffffffffffffffffffffffffffffffffffff168373ffffffffffffffffffffffffffffffffffffffff1603611647576040517f08c379a000000000000000000000000000000000000000000000000000000000815260040161163e9061296f565b60405180910390fd5b600073ffffffffffffffffffffffffffffffffffffffff168273ffffffffffffffffffffffffffffffffffffffff16036116b6576040517f08c379a00000000000000000000000000000000000000000000000000000000081526004016116ad90612a01565b60405180910390fd5b6116c1838383611d52565b60008060008573ffffffffffffffffffffffffffffffffffffffff1673ffffffffffffffffffffffffffffffffffffffff16815260200190815260200160002054905081811015611747576040517f08c379a000000000000000000000000000000000000000000000000000000000815260040161173e90612a93565b60405180910390fd5b8181036000808673ffffffffffffffffffffffffffffffffffffffff1673ffffffffffffffffffffffffffffffffffffffff16815260200190815260200160002081905550816000808573ffffffffffffffffffffffffffffffffffffffff1673ffffffffffffffffffffffffffffffffffffffff16815260200190815260200160002060008282546117da919061217c565b925050819055508273ffffffffffffffffffffffffffffffffffffffff168473ffffffffffffffffffffffffffffffffffffffff167fddf252ad1be2c89b69c2b068fc378daa952ba7f163c4a11628f55a4df523b3ef8460405161183e9190611f5f565b60405180910390a3611851848484611d57565b50505050565b600080820361186957600090506119ff565b60006001905060008390506000608082901c111561189057608081901c9050604082901b91505b6000604082901c11156118ac57604081901c9050602082901b91505b6000602082901c11156118c857602081901c9050601082901b91505b6000601082901c11156118e457601081901c9050600882901b91505b6000600882901c111561190057600881901c9050600482901b91505b6000600482901c111561191c57600481901c9050600282901b91505b6000600282901c111561193157600182901b91505b60018285816119435761194261230e565b5b048301901c9150600182858161195c5761195b61230e565b5b048301901c915060018285816119755761197461230e565b5b048301901c9150600182858161198e5761198d61230e565b5b048301901c915060018285816119a7576119a661230e565b5b048301901c915060018285816119c0576119bf61230e565b5b048301901c915060018285816119d9576119d861230e565b5b048301901c91506119fa828386816119f4576119f361230e565b5b04611b63565b925050505b919050565b600073ffffffffffffffffffffffffffffffffffffffff168273ffffffffffffffffffffffffffffffffffffffff1603611a73576040517f08c379a0000000000000000000000000000000000000000000000000000000008152600401611a6a90612aff565b60405180910390fd5b611a7f60008383611d52565b8060026000828254611a91919061217c565b92505081905550806000808473ffffffffffffffffffffffffffffffffffffffff1673ffffffffffffffffffffffffffffffffffffffff1681526020019081526020016000206000828254611ae6919061217c565b925050819055508173ffffffffffffffffffffffffffffffffffffffff16600073ffffffffffffffffffffffffffffffffffffffff167fddf252ad1be2c89b69c2b068fc378daa952ba7f163c4a11628f55a4df523b3ef83604051611b4b9190611f5f565b60405180910390a3611b5f60008383611d57565b5050565b6000818310611b725781611b74565b825b905092915050565b600073ffffffffffffffffffffffffffffffffffffffff168273ffffffffffffffffffffffffffffffffffffffff1603611beb576040517f08c379a0000000000000000000000000000000000000000000000000000000008152600401611be290612b91565b60405180910390fd5b611bf782600083611d52565b60008060008473ffffffffffffffffffffffffffffffffffffffff1673ffffffffffffffffffffffffffffffffffffffff16815260200190815260200160002054905081811015611c7d576040517f08c379a0000000000000000000000000000000000000000000000000000000008152600401611c7490612c23565b60405180910390fd5b8181036000808573ffffffffffffffffffffffffffffffffffffffff1673ffffffffffffffffffffffffffffffffffffffff168152602001908152602001600020819055508160026000828254611cd49190612280565b92505081905550600073ffffffffffffffffffffffffffffffffffffffff168373ffffffffffffffffffffffffffffffffffffffff167fddf252ad1be2c89b69c2b068fc378daa952ba7f163c4a11628f55a4df523b3ef84604051611d399190611f5f565b60405180910390a3611d4d83600084611d57565b505050565b505050565b505050565b600081519050919050565b600082825260208201905092915050565b60005b83811015611d96578082015181840152602081019050611d7b565b83811115611da5576000848401525b50505050565b6000601f19601f8301169050919050565b6000611dc782611d5c565b611dd18185611d67565b9350611de1818560208601611d78565b611dea81611dab565b840191505092915050565b60006020820190508181036000830152611e0f8184611dbc565b905092915050565b600080fd5b600073ffffffffffffffffffffffffffffffffffffffff82169050919050565b6000611e4782611e1c565b9050919050565b611e5781611e3c565b8114611e6257600080fd5b50565b600081359050611e7481611e4e565b92915050565b6000819050919050565b611e8d81611e7a565b8114611e9857600080fd5b50565b600081359050611eaa81611e84565b92915050565b60008060408385031215611ec757611ec6611e17565b5b6000611ed585828601611e65565b9250506020611ee685828601611e9b565b9150509250929050565b60008115159050919050565b611f0581611ef0565b82525050565b6000602082019050611f206000830184611efc565b92915050565b611f2f81611e3c565b82525050565b6000602082019050611f4a6000830184611f26565b92915050565b611f5981611e7a565b82525050565b6000602082019050611f746000830184611f50565b92915050565b600080600060608486031215611f9357611f92611e17565b5b6000611fa186828701611e65565b9350506020611fb286828701611e65565b9250506040611fc386828701611e9b565b9150509250925092565b600060ff82169050919050565b611fe381611fcd565b82525050565b6000602082019050611ffe6000830184611fda565b92915050565b6000806040838503121561201b5761201a611e17565b5b600061202985828601611e65565b925050602061203a85828601611e65565b9150509250929050565b60006020828403121561205a57612059611e17565b5b600061206884828501611e65565b91505092915050565b60008060006060848603121561208a57612089611e17565b5b600061209886828701611e9b565b93505060206120a986828701611e9b565b92505060406120ba86828701611e65565b9150509250925092565b60006040820190506120d96000830185611f50565b6120e66020830184611f50565b9392505050565b7f4e487b7100000000000000000000000000000000000000000000000000000000600052602260045260246000fd5b6000600282049050600182168061213457607f821691505b602082108103612147576121466120ed565b5b50919050565b7f4e487b7100000000000000000000000000000000000000000000000000000000600052601160045260246000fd5b600061218782611e7a565b915061219283611e7a565b9250827fffffffffffffffffffffffffffffffffffffffffffffffffffffffffffffffff038211156121c7576121c661214d565b5b828201905092915050565b7f5061697220616c726561647920696e697469616c697a65640000000000000000600082015250565b6000612208601883611d67565b9150612213826121d2565b602082019050919050565b60006020820190508181036000830152612237816121fb565b9050919050565b60008151905061224d81611e84565b92915050565b60006020828403121561226957612268611e17565b5b60006122778482850161223e565b91505092915050565b600061228b82611e7a565b915061229683611e7a565b9250828210156122a9576122a861214d565b5b828203905092915050565b60006122bf82611e7a565b91506122ca83611e7a565b9250817fffffffffffffffffffffffffffffffffffffffffffffffffffffffffffffffff04831182151516156123035761230261214d565b5b828202905092915050565b7f4e487b7100000000000000000000000000000000000000000000000000000000600052601260045260246000fd5b600061234882611e7a565b915061235383611e7a565b9250826123635761236261230e565b5b828204905092915050565b7f496e73756666696369656e74206c697175696469747920746f6b656e73206d6960008201527f6e74656421000000000000000000000000000000000000000000000000000000602082015250565b60006123ca602583611d67565b91506123d58261236e565b604082019050919050565b600060208201905081810360008301526123f9816123bd565b9050919050565b60006060820190506124156000830186611f50565b6124226020830185611f50565b61242f6040830184611f50565b949350505050565b7f5a65726f206f757470757420616d6f756e747300000000000000000000000000600082015250565b600061246d601383611d67565b915061247882612437565b602082019050919050565b6000602082019050818103600083015261249c81612460565b9050919050565b7f4f757470757420616d6f756e742069732067726561746572207468616e20726560008201527f7365727665000000000000000000000000000000000000000000000000000000602082015250565b60006124ff602583611d67565b915061250a826124a3565b604082019050919050565b6000602082019050818103600083015261252e816124f2565b9050919050565b7f4e65772070726f64756374206f66207265736572766573206973206c6573732060008201527f7468616e2070726576696f757300000000000000000000000000000000000000602082015250565b6000612591602d83611d67565b915061259c82612535565b604082019050919050565b600060208201905081810360008301526125c081612584565b9050919050565b60006040820190506125dc6000830185611f26565b6125e96020830184611f50565b9392505050565b6125f981611ef0565b811461260457600080fd5b50565b600081519050612616816125f0565b92915050565b60006020828403121561263257612631611e17565b5b600061264084828501612607565b91505092915050565b7f496e73756666696369656e74206c697175696469747920746f6b656e7320627560008201527f726e656421000000000000000000000000000000000000000000000000000000602082015250565b60006126a5602583611d67565b91506126b082612649565b604082019050919050565b600060208201905081810360008301526126d481612698565b9050919050565b7f45524332303a2064656372656173656420616c6c6f77616e63652062656c6f7760008201527f207a65726f000000000000000000000000000000000000000000000000000000602082015250565b6000612737602583611d67565b9150612742826126db565b604082019050919050565b600060208201905081810360008301526127668161272a565b9050919050565b7f45524332303a20617070726f76652066726f6d20746865207a65726f2061646460008201527f7265737300000000000000000000000000000000000000000000000000000000602082015250565b60006127c9602483611d67565b91506127d48261276d565b604082019050919050565b600060208201905081810360008301526127f8816127bc565b9050919050565b7f45524332303a20617070726f766520746f20746865207a65726f20616464726560008201527f7373000000000000000000000000000000000000000000000000000000000000602082015250565b600061285b602283611d67565b9150612866826127ff565b604082019050919050565b6000602082019050818103600083015261288a8161284e565b9050919050565b7f45524332303a20696e73756666696369656e7420616c6c6f77616e6365000000600082015250565b60006128c7601d83611d67565b91506128d282612891565b602082019050919050565b600060208201905081810360008301526128f6816128ba565b9050919050565b7f45524332303a207472616e736665722066726f6d20746865207a65726f20616460008201527f6472657373000000000000000000000000000000000000000000000000000000602082015250565b6000612959602583611d67565b9150612964826128fd565b604082019050919050565b600060208201905081810360008301526129888161294c565b9050919050565b7f45524332303a207472616e7366657220746f20746865207a65726f206164647260008201527f6573730000000000000000000000000000000000000000000000000000000000602082015250565b60006129eb602383611d67565b91506129f68261298f565b604082019050919050565b60006020820190508181036000830152612a1a816129de565b9050919050565b7f45524332303a207472616e7366657220616d6f756e742065786365656473206260008201527f616c616e63650000000000000000000000000000000000000000000000000000602082015250565b6000612a7d602683611d67565b9150612a8882612a21565b604082019050919050565b60006020820190508181036000830152612aac81612a70565b9050919050565b7f45524332303a206d696e7420746f20746865207a65726f206164647265737300600082015250565b6000612ae9601f83611d67565b9150612af482612ab3565b602082019050919050565b60006020820190508181036000830152612b1881612adc565b9050919050565b7f45524332303a206275726e2066726f6d20746865207a65726f2061646472657360008201527f7300000000000000000000000000000000000000000000000000000000000000602082015250565b6000612b7b602183611d67565b9150612b8682612b1f565b604082019050919050565b60006020820190508181036000830152612baa81612b6e565b9050919050565b7f45524332303a206275726e20616d6f756e7420657863656564732062616c616e60008201527f6365000000000000000000000000000000000000000000000000000000000000602082015250565b6000612c0d602283611d67565b9150612c1882612bb1565b604082019050919050565b60006020820190508181036000830152612c3c81612c00565b905091905056fea2646970667358221220f1e83309ed2624cde734a1a6e71f4b36256a94c8906f35f96261c4549c927c3164736f6c634300080f0033",
  "immutableReferences": {},
  "source": "// SPDX-License-Identifier: MIT\npragma solidity ^0.8.15;\n\nimport \"@openzeppelin/contracts/utils/math/Math.sol\";\nimport \"@openzeppelin/contracts/token/ERC20/ERC20.sol\";\n\ncontract Pair is ERC20 {\n  uint256 constant MINIMUM_LIQUIDITY = 1000;\n\n  address public token0;\n  address public token1;\n\n  uint256 public reserve0;\n  uint256 public reserve1;\n\n  event Mint(address indexed sender, uint256 amount0, uint256 amount1, uint256 minte, address indexed to);\n  event Burn(address indexed sender, uint256 amount0, uint256 amount1, uint256 burned, address indexed to);\n  event Swap(address indexed sender, uint256 amount0, uint256 amount1, address indexed to);\n\n  constructor() ERC20(\"Liquidity Provider Token\", \"LPT\") {}\n\n  function initialize(address _token0, address _token1) public {\n    if (token0 != address(0) || token1 != address(0)) {\n      revert(\"Pair already initialized\");\n    }\n\n    token0 = _token0;\n    token1 = _token1;\n  }\n  \n  function mint(address to) public returns (uint256 lpTokens) {\n    uint256 balance0 = ERC20(token0).balanceOf(address(this));\n    uint256 balance1 = ERC20(token1).balanceOf(address(this));\n    \n    uint256 amount0 = balance0 - reserve0;\n    uint256 amount1 = balance1 - reserve1;\n\n    if (totalSupply() == 0) {\n      lpTokens = Math.sqrt(amount0 * amount1) - MINIMUM_LIQUIDITY;\n      _mint(address(this), MINIMUM_LIQUIDITY);\n    } else {\n      lpTokens = Math.min(\n        (amount0 * totalSupply()) / reserve0, \n        (amount1 * totalSupply()) / reserve1\n      );\n    }\n\n    if (lpTokens <= 0) {\n      revert('Insufficient liquidity tokens minted!');\n    }\n\n    _mint(to, lpTokens);\n\n    reserve0 = balance0;\n    reserve1 = balance1;\n\n    emit Mint(msg.sender, amount0, amount1, lpTokens, to);\n  }\n\n  function burn(address to, uint256 lpTokens) public returns (uint256 amount0, uint256 amount1) {\n    amount0 = (lpTokens * reserve0) / totalSupply();\n    amount1 = (lpTokens * reserve1) / totalSupply();\n\n    if (amount0 == 0 || amount1 == 0) {\n      revert('Insufficient liquidity tokens burned!');\n    }\n\n    _burn(to, lpTokens);\n\n    ERC20(token0).transfer(to, amount0);\n    ERC20(token1).transfer(to, amount1);\n\n    uint256 balance0 = ERC20(token0).balanceOf(address(this));\n    uint256 balance1 = ERC20(token1).balanceOf(address(this));\n\n    reserve0 = balance0;\n    reserve1 = balance1;\n\n    emit Burn(msg.sender, amount0, amount1, lpTokens, to);\n  }\n\n  function swap(uint256 amount0Out, uint256 amount1Out, address to) public {\n    if (amount0Out == 0 && amount1Out == 0) {\n      revert('Zero output amounts');\n    }\n\n    if (amount0Out > reserve0 || amount1Out > reserve1) {\n      revert('Output amount is greater than reserve');\n    }\n\n    uint256 balance0 = ERC20(token0).balanceOf(address(this)) - amount0Out;\n    uint256 balance1 = ERC20(token1).balanceOf(address(this)) - amount1Out;\n\n    if (balance0 * balance1 < reserve0 * reserve1) {\n      revert('New product of reserves is less than previous');\n    }\n\n    reserve0 = balance0;\n    reserve1 = balance1;\n\n    if (amount0Out > 0) {\n      ERC20(token0).transfer(to, amount0Out);\n    }\n\n    if (amount1Out > 0) {\n      ERC20(token1).transfer(to, amount1Out);\n    }\n\n    emit Swap(msg.sender, amount0Out, amount1Out, to);\n  }\n}\n",
  "sourcePath": "/Users/lambros/Downloads/my-crypto-exchange/contracts/Pair.sol",
  "compiler": {
    "name": "solc",
    "version": "0.8.15+commit.e14f2714.Emscripten.clang"
  },
  "schemaVersion": "3.4.8",
  "updatedAt": "2022-08-28T10:01:22.000Z",
  "networkType": "ethereum",
  "devdoc": {
    "kind": "dev",
    "methods": {
      "allowance(address,address)": {
        "details": "See {IERC20-allowance}."
      },
      "approve(address,uint256)": {
        "details": "See {IERC20-approve}. NOTE: If `amount` is the maximum `uint256`, the allowance is not updated on `transferFrom`. This is semantically equivalent to an infinite approval. Requirements: - `spender` cannot be the zero address."
      },
      "balanceOf(address)": {
        "details": "See {IERC20-balanceOf}."
      },
      "decimals()": {
        "details": "Returns the number of decimals used to get its user representation. For example, if `decimals` equals `2`, a balance of `505` tokens should be displayed to a user as `5.05` (`505 / 10 ** 2`). Tokens usually opt for a value of 18, imitating the relationship between Ether and Wei. This is the value {ERC20} uses, unless this function is overridden; NOTE: This information is only used for _display_ purposes: it in no way affects any of the arithmetic of the contract, including {IERC20-balanceOf} and {IERC20-transfer}."
      },
      "decreaseAllowance(address,uint256)": {
        "details": "Atomically decreases the allowance granted to `spender` by the caller. This is an alternative to {approve} that can be used as a mitigation for problems described in {IERC20-approve}. Emits an {Approval} event indicating the updated allowance. Requirements: - `spender` cannot be the zero address. - `spender` must have allowance for the caller of at least `subtractedValue`."
      },
      "increaseAllowance(address,uint256)": {
        "details": "Atomically increases the allowance granted to `spender` by the caller. This is an alternative to {approve} that can be used as a mitigation for problems described in {IERC20-approve}. Emits an {Approval} event indicating the updated allowance. Requirements: - `spender` cannot be the zero address."
      },
      "name()": {
        "details": "Returns the name of the token."
      },
      "symbol()": {
        "details": "Returns the symbol of the token, usually a shorter version of the name."
      },
      "totalSupply()": {
        "details": "See {IERC20-totalSupply}."
      },
      "transfer(address,uint256)": {
        "details": "See {IERC20-transfer}. Requirements: - `to` cannot be the zero address. - the caller must have a balance of at least `amount`."
      },
      "transferFrom(address,address,uint256)": {
        "details": "See {IERC20-transferFrom}. Emits an {Approval} event indicating the updated allowance. This is not required by the EIP. See the note at the beginning of {ERC20}. NOTE: Does not update the allowance if the current allowance is the maximum `uint256`. Requirements: - `from` and `to` cannot be the zero address. - `from` must have a balance of at least `amount`. - the caller must have allowance for ``from``'s tokens of at least `amount`."
      }
    },
    "version": 1
  },
  "userdoc": {
    "kind": "user",
    "methods": {},
    "version": 1
  }
}