{
  "contractName": "Pair",
  "abi": [
    {
      "inputs": [],
      "stateMutability": "nonpayable",
      "type": "constructor"
    },
    {
      "anonymous": false,
      "inputs": [
        {
          "indexed": true,
          "internalType": "address",
          "name": "owner",
          "type": "address"
        },
        {
          "indexed": true,
          "internalType": "address",
          "name": "spender",
          "type": "address"
        },
        {
          "indexed": false,
          "internalType": "uint256",
          "name": "value",
          "type": "uint256"
        }
      ],
      "name": "Approval",
      "type": "event"
    },
    {
      "anonymous": false,
      "inputs": [
        {
          "indexed": true,
          "internalType": "address",
          "name": "to",
          "type": "address"
        },
        {
          "indexed": false,
          "internalType": "uint256",
          "name": "amount0",
          "type": "uint256"
        },
        {
          "indexed": false,
          "internalType": "uint256",
          "name": "amount1",
          "type": "uint256"
        }
      ],
      "name": "Mint",
      "type": "event"
    },
    {
      "anonymous": false,
      "inputs": [
        {
          "indexed": true,
          "internalType": "address",
          "name": "from",
          "type": "address"
        },
        {
          "indexed": true,
          "internalType": "address",
          "name": "to",
          "type": "address"
        },
        {
          "indexed": false,
          "internalType": "uint256",
          "name": "value",
          "type": "uint256"
        }
      ],
      "name": "Transfer",
      "type": "event"
    },
    {
      "inputs": [
        {
          "internalType": "address",
          "name": "owner",
          "type": "address"
        },
        {
          "internalType": "address",
          "name": "spender",
          "type": "address"
        }
      ],
      "name": "allowance",
      "outputs": [
        {
          "internalType": "uint256",
          "name": "",
          "type": "uint256"
        }
      ],
      "stateMutability": "view",
      "type": "function",
      "constant": true
    },
    {
      "inputs": [
        {
          "internalType": "address",
          "name": "spender",
          "type": "address"
        },
        {
          "internalType": "uint256",
          "name": "amount",
          "type": "uint256"
        }
      ],
      "name": "approve",
      "outputs": [
        {
          "internalType": "bool",
          "name": "",
          "type": "bool"
        }
      ],
      "stateMutability": "nonpayable",
      "type": "function"
    },
    {
      "inputs": [
        {
          "internalType": "address",
          "name": "account",
          "type": "address"
        }
      ],
      "name": "balanceOf",
      "outputs": [
        {
          "internalType": "uint256",
          "name": "",
          "type": "uint256"
        }
      ],
      "stateMutability": "view",
      "type": "function",
      "constant": true
    },
    {
      "inputs": [],
      "name": "decimals",
      "outputs": [
        {
          "internalType": "uint8",
          "name": "",
          "type": "uint8"
        }
      ],
      "stateMutability": "view",
      "type": "function",
      "constant": true
    },
    {
      "inputs": [
        {
          "internalType": "address",
          "name": "spender",
          "type": "address"
        },
        {
          "internalType": "uint256",
          "name": "subtractedValue",
          "type": "uint256"
        }
      ],
      "name": "decreaseAllowance",
      "outputs": [
        {
          "internalType": "bool",
          "name": "",
          "type": "bool"
        }
      ],
      "stateMutability": "nonpayable",
      "type": "function"
    },
    {
      "inputs": [
        {
          "internalType": "address",
          "name": "spender",
          "type": "address"
        },
        {
          "internalType": "uint256",
          "name": "addedValue",
          "type": "uint256"
        }
      ],
      "name": "increaseAllowance",
      "outputs": [
        {
          "internalType": "bool",
          "name": "",
          "type": "bool"
        }
      ],
      "stateMutability": "nonpayable",
      "type": "function"
    },
    {
      "inputs": [],
      "name": "name",
      "outputs": [
        {
          "internalType": "string",
          "name": "",
          "type": "string"
        }
      ],
      "stateMutability": "view",
      "type": "function",
      "constant": true
    },
    {
      "inputs": [],
      "name": "reserve0",
      "outputs": [
        {
          "internalType": "uint256",
          "name": "",
          "type": "uint256"
        }
      ],
      "stateMutability": "view",
      "type": "function",
      "constant": true
    },
    {
      "inputs": [],
      "name": "reserve1",
      "outputs": [
        {
          "internalType": "uint256",
          "name": "",
          "type": "uint256"
        }
      ],
      "stateMutability": "view",
      "type": "function",
      "constant": true
    },
    {
      "inputs": [],
      "name": "symbol",
      "outputs": [
        {
          "internalType": "string",
          "name": "",
          "type": "string"
        }
      ],
      "stateMutability": "view",
      "type": "function",
      "constant": true
    },
    {
      "inputs": [],
      "name": "token0",
      "outputs": [
        {
          "internalType": "address",
          "name": "",
          "type": "address"
        }
      ],
      "stateMutability": "view",
      "type": "function",
      "constant": true
    },
    {
      "inputs": [],
      "name": "token1",
      "outputs": [
        {
          "internalType": "address",
          "name": "",
          "type": "address"
        }
      ],
      "stateMutability": "view",
      "type": "function",
      "constant": true
    },
    {
      "inputs": [],
      "name": "totalSupply",
      "outputs": [
        {
          "internalType": "uint256",
          "name": "",
          "type": "uint256"
        }
      ],
      "stateMutability": "view",
      "type": "function",
      "constant": true
    },
    {
      "inputs": [
        {
          "internalType": "address",
          "name": "to",
          "type": "address"
        },
        {
          "internalType": "uint256",
          "name": "amount",
          "type": "uint256"
        }
      ],
      "name": "transfer",
      "outputs": [
        {
          "internalType": "bool",
          "name": "",
          "type": "bool"
        }
      ],
      "stateMutability": "nonpayable",
      "type": "function"
    },
    {
      "inputs": [
        {
          "internalType": "address",
          "name": "from",
          "type": "address"
        },
        {
          "internalType": "address",
          "name": "to",
          "type": "address"
        },
        {
          "internalType": "uint256",
          "name": "amount",
          "type": "uint256"
        }
      ],
      "name": "transferFrom",
      "outputs": [
        {
          "internalType": "bool",
          "name": "",
          "type": "bool"
        }
      ],
      "stateMutability": "nonpayable",
      "type": "function"
    },
    {
      "inputs": [
        {
          "internalType": "address",
          "name": "_token0",
          "type": "address"
        },
        {
          "internalType": "address",
          "name": "_token1",
          "type": "address"
        }
      ],
      "name": "initialize",
      "outputs": [],
      "stateMutability": "nonpayable",
      "type": "function"
    },
    {
      "inputs": [
        {
          "internalType": "address",
          "name": "to",
          "type": "address"
        }
      ],
      "name": "mint",
      "outputs": [
        {
          "internalType": "uint256",
          "name": "mintedLP",
          "type": "uint256"
        }
      ],
      "stateMutability": "nonpayable",
      "type": "function"
    }
  ],
  "bytecode": "0x60806040523480156200001157600080fd5b506040518060400160405280601881526020017f4c69717569646974792050726f766964657220546f6b656e00000000000000008152506040518060400160405280600381526020017f4c5054000000000000000000000000000000000000000000000000000000000081525081600390816200008f919062000324565b508060049081620000a1919062000324565b5050506200040b565b600081519050919050565b7f4e487b7100000000000000000000000000000000000000000000000000000000600052604160045260246000fd5b7f4e487b7100000000000000000000000000000000000000000000000000000000600052602260045260246000fd5b600060028204905060018216806200012c57607f821691505b602082108103620001425762000141620000e4565b5b50919050565b60008190508160005260206000209050919050565b60006020601f8301049050919050565b600082821b905092915050565b600060088302620001ac7fffffffffffffffffffffffffffffffffffffffffffffffffffffffffffffffff826200016d565b620001b886836200016d565b95508019841693508086168417925050509392505050565b6000819050919050565b6000819050919050565b600062000205620001ff620001f984620001d0565b620001da565b620001d0565b9050919050565b6000819050919050565b6200022183620001e4565b6200023962000230826200020c565b8484546200017a565b825550505050565b600090565b6200025062000241565b6200025d81848462000216565b505050565b5b8181101562000285576200027960008262000246565b60018101905062000263565b5050565b601f821115620002d4576200029e8162000148565b620002a9846200015d565b81016020851015620002b9578190505b620002d1620002c8856200015d565b83018262000262565b50505b505050565b600082821c905092915050565b6000620002f960001984600802620002d9565b1980831691505092915050565b6000620003148383620002e6565b9150826002028217905092915050565b6200032f82620000aa565b67ffffffffffffffff8111156200034b576200034a620000b5565b5b62000357825462000113565b6200036482828562000289565b600060209050601f8311600181146200039c576000841562000387578287015190505b62000393858262000306565b86555062000403565b601f198416620003ac8662000148565b60005b82811015620003d657848901518255600182019150602085019450602081019050620003af565b86831015620003f65784890151620003f2601f891682620002e6565b8355505b6001600288020188555050505b505050505050565b611e0d806200041b6000396000f3fe608060405234801561001057600080fd5b506004361061010b5760003560e01c8063485cc955116100a257806395d89b411161007157806395d89b41146102d0578063a457c2d7146102ee578063a9059cbb1461031e578063d21220a71461034e578063dd62ed3e1461036c5761010b565b8063485cc955146102365780635a76f25e146102525780636a6278421461027057806370a08231146102a05761010b565b806323b872dd116100de57806323b872dd1461019a578063313ce567146101ca57806339509351146101e8578063443cb4bc146102185761010b565b806306fdde0314610110578063095ea7b31461012e5780630dfe16811461015e57806318160ddd1461017c575b600080fd5b61011861039c565b60405161012591906113db565b60405180910390f35b61014860048036038101906101439190611496565b61042e565b60405161015591906114f1565b60405180910390f35b610166610451565b604051610173919061151b565b60405180910390f35b610184610477565b6040516101919190611545565b60405180910390f35b6101b460048036038101906101af9190611560565b610481565b6040516101c191906114f1565b60405180910390f35b6101d26104b0565b6040516101df91906115cf565b60405180910390f35b61020260048036038101906101fd9190611496565b6104b9565b60405161020f91906114f1565b60405180910390f35b6102206104f0565b60405161022d9190611545565b60405180910390f35b610250600480360381019061024b91906115ea565b6104f6565b005b61025a610669565b6040516102679190611545565b60405180910390f35b61028a6004803603810190610285919061162a565b61066f565b6040516102979190611545565b60405180910390f35b6102ba60048036038101906102b5919061162a565b610916565b6040516102c79190611545565b60405180910390f35b6102d861095e565b6040516102e591906113db565b60405180910390f35b61030860048036038101906103039190611496565b6109f0565b60405161031591906114f1565b60405180910390f35b61033860048036038101906103339190611496565b610a67565b60405161034591906114f1565b60405180910390f35b610356610a8a565b604051610363919061151b565b60405180910390f35b610386600480360381019061038191906115ea565b610ab0565b6040516103939190611545565b60405180910390f35b6060600380546103ab90611686565b80601f01602080910402602001604051908101604052809291908181526020018280546103d790611686565b80156104245780601f106103f957610100808354040283529160200191610424565b820191906000526020600020905b81548152906001019060200180831161040757829003601f168201915b5050505050905090565b600080610439610b37565b9050610446818585610b3f565b600191505092915050565b600560009054906101000a900473ffffffffffffffffffffffffffffffffffffffff1681565b6000600254905090565b60008061048c610b37565b9050610499858285610d08565b6104a4858585610d94565b60019150509392505050565b60006012905090565b6000806104c4610b37565b90506104e58185856104d68589610ab0565b6104e091906116e6565b610b3f565b600191505092915050565b60075481565b600073ffffffffffffffffffffffffffffffffffffffff16600560009054906101000a900473ffffffffffffffffffffffffffffffffffffffff1673ffffffffffffffffffffffffffffffffffffffff161415806105a35750600073ffffffffffffffffffffffffffffffffffffffff16600660009054906101000a900473ffffffffffffffffffffffffffffffffffffffff1673ffffffffffffffffffffffffffffffffffffffff1614155b156105e3576040517f08c379a00000000000000000000000000000000000000000000000000000000081526004016105da90611788565b60405180910390fd5b81600560006101000a81548173ffffffffffffffffffffffffffffffffffffffff021916908373ffffffffffffffffffffffffffffffffffffffff16021790555080600660006101000a81548173ffffffffffffffffffffffffffffffffffffffff021916908373ffffffffffffffffffffffffffffffffffffffff1602179055505050565b60085481565b600080600560009054906101000a900473ffffffffffffffffffffffffffffffffffffffff1673ffffffffffffffffffffffffffffffffffffffff166370a08231306040518263ffffffff1660e01b81526004016106cd919061151b565b602060405180830381865afa1580156106ea573d6000803e3d6000fd5b505050506040513d601f19601f8201168201806040525081019061070e91906117bd565b90506000600660009054906101000a900473ffffffffffffffffffffffffffffffffffffffff1673ffffffffffffffffffffffffffffffffffffffff166370a08231306040518263ffffffff1660e01b815260040161076d919061151b565b602060405180830381865afa15801561078a573d6000803e3d6000fd5b505050506040513d601f19601f820116820180604052508101906107ae91906117bd565b90506000600754836107c091906117ea565b90506000600854836107d291906117ea565b905060006107de610477565b03610817576103e86107fa82846107f5919061181e565b611013565b61080491906117ea565b9450610812306103e86111c0565b610862565b61085f600754610825610477565b84610830919061181e565b61083a91906118a7565b600854610845610477565b84610850919061181e565b61085a91906118a7565b61131f565b94505b600085116108a5576040517f08c379a000000000000000000000000000000000000000000000000000000000815260040161089c9061194a565b60405180910390fd5b6108af86866111c0565b83600781905550826008819055508573ffffffffffffffffffffffffffffffffffffffff167f4c209b5fc8ad50758f13e2e1088ba56a560dff690a1c6fef26394f4c03821c4f838360405161090592919061196a565b60405180910390a250505050919050565b60008060008373ffffffffffffffffffffffffffffffffffffffff1673ffffffffffffffffffffffffffffffffffffffff168152602001908152602001600020549050919050565b60606004805461096d90611686565b80601f016020809104026020016040519081016040528092919081815260200182805461099990611686565b80156109e65780601f106109bb576101008083540402835291602001916109e6565b820191906000526020600020905b8154815290600101906020018083116109c957829003601f168201915b5050505050905090565b6000806109fb610b37565b90506000610a098286610ab0565b905083811015610a4e576040517f08c379a0000000000000000000000000000000000000000000000000000000008152600401610a4590611a05565b60405180910390fd5b610a5b8286868403610b3f565b60019250505092915050565b600080610a72610b37565b9050610a7f818585610d94565b600191505092915050565b600660009054906101000a900473ffffffffffffffffffffffffffffffffffffffff1681565b6000600160008473ffffffffffffffffffffffffffffffffffffffff1673ffffffffffffffffffffffffffffffffffffffff16815260200190815260200160002060008373ffffffffffffffffffffffffffffffffffffffff1673ffffffffffffffffffffffffffffffffffffffff16815260200190815260200160002054905092915050565b600033905090565b600073ffffffffffffffffffffffffffffffffffffffff168373ffffffffffffffffffffffffffffffffffffffff1603610bae576040517f08c379a0000000000000000000000000000000000000000000000000000000008152600401610ba590611a97565b60405180910390fd5b600073ffffffffffffffffffffffffffffffffffffffff168273ffffffffffffffffffffffffffffffffffffffff1603610c1d576040517f08c379a0000000000000000000000000000000000000000000000000000000008152600401610c1490611b29565b60405180910390fd5b80600160008573ffffffffffffffffffffffffffffffffffffffff1673ffffffffffffffffffffffffffffffffffffffff16815260200190815260200160002060008473ffffffffffffffffffffffffffffffffffffffff1673ffffffffffffffffffffffffffffffffffffffff168152602001908152602001600020819055508173ffffffffffffffffffffffffffffffffffffffff168373ffffffffffffffffffffffffffffffffffffffff167f8c5be1e5ebec7d5bd14f71427d1e84f3dd0314c0f7b2291e5b200ac8c7c3b92583604051610cfb9190611545565b60405180910390a3505050565b6000610d148484610ab0565b90507fffffffffffffffffffffffffffffffffffffffffffffffffffffffffffffffff8114610d8e5781811015610d80576040517f08c379a0000000000000000000000000000000000000000000000000000000008152600401610d7790611b95565b60405180910390fd5b610d8d8484848403610b3f565b5b50505050565b600073ffffffffffffffffffffffffffffffffffffffff168373ffffffffffffffffffffffffffffffffffffffff1603610e03576040517f08c379a0000000000000000000000000000000000000000000000000000000008152600401610dfa90611c27565b60405180910390fd5b600073ffffffffffffffffffffffffffffffffffffffff168273ffffffffffffffffffffffffffffffffffffffff1603610e72576040517f08c379a0000000000000000000000000000000000000000000000000000000008152600401610e6990611cb9565b60405180910390fd5b610e7d838383611338565b60008060008573ffffffffffffffffffffffffffffffffffffffff1673ffffffffffffffffffffffffffffffffffffffff16815260200190815260200160002054905081811015610f03576040517f08c379a0000000000000000000000000000000000000000000000000000000008152600401610efa90611d4b565b60405180910390fd5b8181036000808673ffffffffffffffffffffffffffffffffffffffff1673ffffffffffffffffffffffffffffffffffffffff16815260200190815260200160002081905550816000808573ffffffffffffffffffffffffffffffffffffffff1673ffffffffffffffffffffffffffffffffffffffff1681526020019081526020016000206000828254610f9691906116e6565b925050819055508273ffffffffffffffffffffffffffffffffffffffff168473ffffffffffffffffffffffffffffffffffffffff167fddf252ad1be2c89b69c2b068fc378daa952ba7f163c4a11628f55a4df523b3ef84604051610ffa9190611545565b60405180910390a361100d84848461133d565b50505050565b600080820361102557600090506111bb565b60006001905060008390506000608082901c111561104c57608081901c9050604082901b91505b6000604082901c111561106857604081901c9050602082901b91505b6000602082901c111561108457602081901c9050601082901b91505b6000601082901c11156110a057601081901c9050600882901b91505b6000600882901c11156110bc57600881901c9050600482901b91505b6000600482901c11156110d857600481901c9050600282901b91505b6000600282901c11156110ed57600182901b91505b60018285816110ff576110fe611878565b5b048301901c9150600182858161111857611117611878565b5b048301901c9150600182858161113157611130611878565b5b048301901c9150600182858161114a57611149611878565b5b048301901c9150600182858161116357611162611878565b5b048301901c9150600182858161117c5761117b611878565b5b048301901c9150600182858161119557611194611878565b5b048301901c91506111b6828386816111b0576111af611878565b5b0461131f565b925050505b919050565b600073ffffffffffffffffffffffffffffffffffffffff168273ffffffffffffffffffffffffffffffffffffffff160361122f576040517f08c379a000000000000000000000000000000000000000000000000000000000815260040161122690611db7565b60405180910390fd5b61123b60008383611338565b806002600082825461124d91906116e6565b92505081905550806000808473ffffffffffffffffffffffffffffffffffffffff1673ffffffffffffffffffffffffffffffffffffffff16815260200190815260200160002060008282546112a291906116e6565b925050819055508173ffffffffffffffffffffffffffffffffffffffff16600073ffffffffffffffffffffffffffffffffffffffff167fddf252ad1be2c89b69c2b068fc378daa952ba7f163c4a11628f55a4df523b3ef836040516113079190611545565b60405180910390a361131b6000838361133d565b5050565b600081831061132e5781611330565b825b905092915050565b505050565b505050565b600081519050919050565b600082825260208201905092915050565b60005b8381101561137c578082015181840152602081019050611361565b8381111561138b576000848401525b50505050565b6000601f19601f8301169050919050565b60006113ad82611342565b6113b7818561134d565b93506113c781856020860161135e565b6113d081611391565b840191505092915050565b600060208201905081810360008301526113f581846113a2565b905092915050565b600080fd5b600073ffffffffffffffffffffffffffffffffffffffff82169050919050565b600061142d82611402565b9050919050565b61143d81611422565b811461144857600080fd5b50565b60008135905061145a81611434565b92915050565b6000819050919050565b61147381611460565b811461147e57600080fd5b50565b6000813590506114908161146a565b92915050565b600080604083850312156114ad576114ac6113fd565b5b60006114bb8582860161144b565b92505060206114cc85828601611481565b9150509250929050565b60008115159050919050565b6114eb816114d6565b82525050565b600060208201905061150660008301846114e2565b92915050565b61151581611422565b82525050565b6000602082019050611530600083018461150c565b92915050565b61153f81611460565b82525050565b600060208201905061155a6000830184611536565b92915050565b600080600060608486031215611579576115786113fd565b5b60006115878682870161144b565b93505060206115988682870161144b565b92505060406115a986828701611481565b9150509250925092565b600060ff82169050919050565b6115c9816115b3565b82525050565b60006020820190506115e460008301846115c0565b92915050565b60008060408385031215611601576116006113fd565b5b600061160f8582860161144b565b92505060206116208582860161144b565b9150509250929050565b6000602082840312156116405761163f6113fd565b5b600061164e8482850161144b565b91505092915050565b7f4e487b7100000000000000000000000000000000000000000000000000000000600052602260045260246000fd5b6000600282049050600182168061169e57607f821691505b6020821081036116b1576116b0611657565b5b50919050565b7f4e487b7100000000000000000000000000000000000000000000000000000000600052601160045260246000fd5b60006116f182611460565b91506116fc83611460565b9250827fffffffffffffffffffffffffffffffffffffffffffffffffffffffffffffffff03821115611731576117306116b7565b5b828201905092915050565b7f5061697220616c726561647920696e697469616c697a65640000000000000000600082015250565b600061177260188361134d565b915061177d8261173c565b602082019050919050565b600060208201905081810360008301526117a181611765565b9050919050565b6000815190506117b78161146a565b92915050565b6000602082840312156117d3576117d26113fd565b5b60006117e1848285016117a8565b91505092915050565b60006117f582611460565b915061180083611460565b925082821015611813576118126116b7565b5b828203905092915050565b600061182982611460565b915061183483611460565b9250817fffffffffffffffffffffffffffffffffffffffffffffffffffffffffffffffff048311821515161561186d5761186c6116b7565b5b828202905092915050565b7f4e487b7100000000000000000000000000000000000000000000000000000000600052601260045260246000fd5b60006118b282611460565b91506118bd83611460565b9250826118cd576118cc611878565b5b828204905092915050565b7f496e73756666696369656e74206c697175696469747920746f6b656e73206d6960008201527f6e74656421000000000000000000000000000000000000000000000000000000602082015250565b600061193460258361134d565b915061193f826118d8565b604082019050919050565b6000602082019050818103600083015261196381611927565b9050919050565b600060408201905061197f6000830185611536565b61198c6020830184611536565b9392505050565b7f45524332303a2064656372656173656420616c6c6f77616e63652062656c6f7760008201527f207a65726f000000000000000000000000000000000000000000000000000000602082015250565b60006119ef60258361134d565b91506119fa82611993565b604082019050919050565b60006020820190508181036000830152611a1e816119e2565b9050919050565b7f45524332303a20617070726f76652066726f6d20746865207a65726f2061646460008201527f7265737300000000000000000000000000000000000000000000000000000000602082015250565b6000611a8160248361134d565b9150611a8c82611a25565b604082019050919050565b60006020820190508181036000830152611ab081611a74565b9050919050565b7f45524332303a20617070726f766520746f20746865207a65726f20616464726560008201527f7373000000000000000000000000000000000000000000000000000000000000602082015250565b6000611b1360228361134d565b9150611b1e82611ab7565b604082019050919050565b60006020820190508181036000830152611b4281611b06565b9050919050565b7f45524332303a20696e73756666696369656e7420616c6c6f77616e6365000000600082015250565b6000611b7f601d8361134d565b9150611b8a82611b49565b602082019050919050565b60006020820190508181036000830152611bae81611b72565b9050919050565b7f45524332303a207472616e736665722066726f6d20746865207a65726f20616460008201527f6472657373000000000000000000000000000000000000000000000000000000602082015250565b6000611c1160258361134d565b9150611c1c82611bb5565b604082019050919050565b60006020820190508181036000830152611c4081611c04565b9050919050565b7f45524332303a207472616e7366657220746f20746865207a65726f206164647260008201527f6573730000000000000000000000000000000000000000000000000000000000602082015250565b6000611ca360238361134d565b9150611cae82611c47565b604082019050919050565b60006020820190508181036000830152611cd281611c96565b9050919050565b7f45524332303a207472616e7366657220616d6f756e742065786365656473206260008201527f616c616e63650000000000000000000000000000000000000000000000000000602082015250565b6000611d3560268361134d565b9150611d4082611cd9565b604082019050919050565b60006020820190508181036000830152611d6481611d28565b9050919050565b7f45524332303a206d696e7420746f20746865207a65726f206164647265737300600082015250565b6000611da1601f8361134d565b9150611dac82611d6b565b602082019050919050565b60006020820190508181036000830152611dd081611d94565b905091905056fea2646970667358221220bbf6d62c148dd4c02f0ba77e826760f04d59a2635f74114e992d8c3e563ad34c64736f6c634300080f0033",
  "immutableReferences": {},
  "source": "// SPDX-License-Identifier: MIT\npragma solidity ^0.8.15;\n\nimport \"@openzeppelin/contracts/utils/math/Math.sol\";\nimport \"@openzeppelin/contracts/token/ERC20/ERC20.sol\";\n\ncontract Pair is ERC20 {\n  uint256 constant MINIMUM_LIQUIDITY = 1000;\n\n  address public token0;\n  address public token1;\n\n  uint256 public reserve0;\n  uint256 public reserve1;\n\n  event Mint(address indexed to, uint256 amount0, uint256 amount1);\n  \n  constructor() ERC20(\"Liquidity Provider Token\", \"LPT\") {}\n\n  function initialize(address _token0, address _token1) public {\n    if (token0 != address(0) || token1 != address(0)) {\n      revert(\"Pair already initialized\");\n    }\n\n    token0 = _token0;\n    token1 = _token1;\n  }\n  \n  function mint(address to) public returns (uint256 mintedLP) {\n    uint256 balance0 = ERC20(token0).balanceOf(address(this));\n    uint256 balance1 = ERC20(token1).balanceOf(address(this));\n    \n    uint256 amount0 = balance0 - reserve0;\n    uint256 amount1 = balance1 - reserve1;\n\n    if (totalSupply() == 0) {\n      mintedLP = Math.sqrt(amount0 * amount1) - MINIMUM_LIQUIDITY;\n      _mint(address(this), MINIMUM_LIQUIDITY);\n    } else {\n      mintedLP = Math.min(\n        (amount0 * totalSupply()) / reserve0, \n        (amount1 * totalSupply()) / reserve1\n      );\n    }\n\n    if (mintedLP <= 0) {\n      revert('Insufficient liquidity tokens minted!');\n    }\n\n    _mint(to, mintedLP);\n\n    reserve0 = balance0;\n    reserve1 = balance1;\n\n    emit Mint(to, amount0, amount1);\n  }\n}\n",
  "sourcePath": "/Users/lambros/Downloads/my-crypto-exchange/contracts/Pair.sol",
  "compiler": {
    "name": "solc",
    "version": "0.8.15+commit.e14f2714.Emscripten.clang"
  },
  "schemaVersion": "3.4.8",
  "updatedAt": "2022-08-27T14:10:12.486Z",
  "networkType": "ethereum",
  "devdoc": {
    "kind": "dev",
    "methods": {
      "allowance(address,address)": {
        "details": "See {IERC20-allowance}."
      },
      "approve(address,uint256)": {
        "details": "See {IERC20-approve}. NOTE: If `amount` is the maximum `uint256`, the allowance is not updated on `transferFrom`. This is semantically equivalent to an infinite approval. Requirements: - `spender` cannot be the zero address."
      },
      "balanceOf(address)": {
        "details": "See {IERC20-balanceOf}."
      },
      "decimals()": {
        "details": "Returns the number of decimals used to get its user representation. For example, if `decimals` equals `2`, a balance of `505` tokens should be displayed to a user as `5.05` (`505 / 10 ** 2`). Tokens usually opt for a value of 18, imitating the relationship between Ether and Wei. This is the value {ERC20} uses, unless this function is overridden; NOTE: This information is only used for _display_ purposes: it in no way affects any of the arithmetic of the contract, including {IERC20-balanceOf} and {IERC20-transfer}."
      },
      "decreaseAllowance(address,uint256)": {
        "details": "Atomically decreases the allowance granted to `spender` by the caller. This is an alternative to {approve} that can be used as a mitigation for problems described in {IERC20-approve}. Emits an {Approval} event indicating the updated allowance. Requirements: - `spender` cannot be the zero address. - `spender` must have allowance for the caller of at least `subtractedValue`."
      },
      "increaseAllowance(address,uint256)": {
        "details": "Atomically increases the allowance granted to `spender` by the caller. This is an alternative to {approve} that can be used as a mitigation for problems described in {IERC20-approve}. Emits an {Approval} event indicating the updated allowance. Requirements: - `spender` cannot be the zero address."
      },
      "name()": {
        "details": "Returns the name of the token."
      },
      "symbol()": {
        "details": "Returns the symbol of the token, usually a shorter version of the name."
      },
      "totalSupply()": {
        "details": "See {IERC20-totalSupply}."
      },
      "transfer(address,uint256)": {
        "details": "See {IERC20-transfer}. Requirements: - `to` cannot be the zero address. - the caller must have a balance of at least `amount`."
      },
      "transferFrom(address,address,uint256)": {
        "details": "See {IERC20-transferFrom}. Emits an {Approval} event indicating the updated allowance. This is not required by the EIP. See the note at the beginning of {ERC20}. NOTE: Does not update the allowance if the current allowance is the maximum `uint256`. Requirements: - `from` and `to` cannot be the zero address. - `from` must have a balance of at least `amount`. - the caller must have allowance for ``from``'s tokens of at least `amount`."
      }
    },
    "version": 1
  },
  "userdoc": {
    "kind": "user",
    "methods": {},
    "version": 1
  }
}