{
  "contractName": "Pair",
  "abi": [
    {
      "inputs": [],
      "name": "mint",
      "outputs": [],
      "stateMutability": "nonpayable",
      "type": "function"
    }
  ],
  "bytecode": "0x6080604052348015600f57600080fd5b50606d80601d6000396000f3fe6080604052348015600f57600080fd5b506004361060285760003560e01c80631249c58b14602d575b600080fd5b60336035565b005b56fea2646970667358221220d052aa5cc720db761c82e0b0d3fd7ae97ca08ac28fbfac1ce73cc3ad3a0bf1ba64736f6c634300080f0033",
  "immutableReferences": {},
  "source": "// SPDX-License-Identifier: MIT\npragma solidity ^0.8.15;\n\ncontract Pair {\n  function mint() public {}\n}\n",
  "sourcePath": "/Users/lambros/Downloads/my-crypto-exchange/contracts/Pair.sol",
  "compiler": {
    "name": "solc",
    "version": "0.8.15+commit.e14f2714.Emscripten.clang"
  },
  "schemaVersion": "3.4.8",
  "updatedAt": "2022-08-26T18:23:55.705Z",
  "networkType": "ethereum",
  "devdoc": {
    "kind": "dev",
    "methods": {},
    "version": 1
  },
  "userdoc": {
    "kind": "user",
    "methods": {},
    "version": 1
  }
}